{"abi":[{"type":"constructor","inputs":[{"name":"_marketId","type":"uint256","internalType":"uint256"},{"name":"_creator","type":"address","internalType":"address"},{"name":"_factory","type":"address","internalType":"address"},{"name":"_usdcToken","type":"address","internalType":"address"},{"name":"_positionNFT","type":"address","internalType":"address"},{"name":"_alpha","type":"uint256","internalType":"uint256"},{"name":"_poolBalance","type":"uint256","internalType":"uint256"},{"name":"_bucketRanges","type":"uint256[]","internalType":"uint256[]"},{"name":"_feeBps","type":"uint256","internalType":"uint256"},{"name":"_protocolFeeBps","type":"uint256","internalType":"uint256"},{"name":"_metadata","type":"tuple","internalType":"struct LMSRMarket.MarketMetadata","components":[{"name":"name","type":"string","internalType":"string"},{"name":"description","type":"string","internalType":"string"},{"name":"resolutionCriteria","type":"string","internalType":"string"},{"name":"valueUnit","type":"string","internalType":"string"},{"name":"resolver","type":"address","internalType":"address"},{"name":"biddingDeadline","type":"uint256","internalType":"uint256"},{"name":"scheduledResolutionTime","type":"uint256","internalType":"uint256"},{"name":"minBetSize","type":"uint256","internalType":"uint256"}]},{"name":"_protocolFeeCollector","type":"address","internalType":"address"}],"stateMutability":"nonpayable"},{"type":"function","name":"ALPHA_EPOCH_LENGTH","inputs":[],"outputs":[{"name":"","type":"uint256","internalType":"uint256"}],"stateMutability":"view"},{"type":"function","name":"CACHE_RESET_INTERVAL","inputs":[],"outputs":[{"name":"","type":"uint256","internalType":"uint256"}],"stateMutability":"view"},{"type":"function","name":"MAX_FEE_BPS","inputs":[],"outputs":[{"name":"","type":"uint256","internalType":"uint256"}],"stateMutability":"view"},{"type":"function","name":"MIN_ALPHA_FLOOR_BPS","inputs":[],"outputs":[{"name":"","type":"uint256","internalType":"uint256"}],"stateMutability":"view"},{"type":"function","name":"PHANTOM_SHARES","inputs":[],"outputs":[{"name":"","type":"uint256","internalType":"uint256"}],"stateMutability":"view"},{"type":"function","name":"SOLVENCY_DUST","inputs":[],"outputs":[{"name":"","type":"uint256","internalType":"uint256"}],"stateMutability":"view"},{"type":"function","name":"WAD","inputs":[],"outputs":[{"name":"","type":"uint256","internalType":"uint256"}],"stateMutability":"view"},{"type":"function","name":"activeBucketCount","inputs":[],"outputs":[{"name":"","type":"uint256","internalType":"uint256"}],"stateMutability":"view"},{"type":"function","name":"addLiquidity","inputs":[{"name":"amountUSDC","type":"uint256","internalType":"uint256"}],"outputs":[],"stateMutability":"nonpayable"},{"type":"function","name":"alpha","inputs":[],"outputs":[{"name":"","type":"uint256","internalType":"uint256"}],"stateMutability":"view"},{"type":"function","name":"alphaFinal","inputs":[],"outputs":[{"name":"","type":"uint256","internalType":"uint256"}],"stateMutability":"view"},{"type":"function","name":"alphaInitial","inputs":[],"outputs":[{"name":"","type":"uint256","internalType":"uint256"}],"stateMutability":"view"},{"type":"function","name":"biddingDeadline","inputs":[],"outputs":[{"name":"","type":"uint256","internalType":"uint256"}],"stateMutability":"view"},{"type":"function","name":"bucketCount","inputs":[],"outputs":[{"name":"","type":"uint256","internalType":"uint256"}],"stateMutability":"view"},{"type":"function","name":"bucketWidth","inputs":[],"outputs":[{"name":"","type":"uint256","internalType":"uint256"}],"stateMutability":"view"},{"type":"function","name":"buckets","inputs":[{"name":"","type":"uint256","internalType":"uint256"}],"outputs":[{"name":"shares","type":"uint256","internalType":"uint256"},{"name":"lowerBound","type":"uint256","internalType":"uint256"},{"name":"upperBound","type":"uint256","internalType":"uint256"}],"stateMutability":"view"},{"type":"function","name":"buyShares","inputs":[{"name":"bucketId","type":"uint256","internalType":"uint256"},{"name":"amountUSDC","type":"uint256","internalType":"uint256"},{"name":"minSharesOut","type":"uint256","internalType":"uint256"}],"outputs":[{"name":"sharesMinted","type":"uint256","internalType":"uint256"}],"stateMutability":"nonpayable"},{"type":"function","name":"buySharesRange","inputs":[{"name":"rangeLower","type":"uint256","internalType":"uint256"},{"name":"rangeUpper","type":"uint256","internalType":"uint256"},{"name":"amountUSDC","type":"uint256","internalType":"uint256"},{"name":"minSharesOut","type":"uint256","internalType":"uint256"},{"name":"targetShares","type":"uint256","internalType":"uint256"}],"outputs":[{"name":"shares","type":"uint256","internalType":"uint256"}],"stateMutability":"nonpayable"},{"type":"function","name":"calculateReturnForShares","inputs":[{"name":"bucketId","type":"uint256","internalType":"uint256"},{"name":"sharesToSell","type":"uint256","internalType":"uint256"}],"outputs":[{"name":"returnUSDC","type":"uint256","internalType":"uint256"}],"stateMutability":"view"},{"type":"function","name":"calculateSharesForCost","inputs":[{"name":"bucketId","type":"uint256","internalType":"uint256"},{"name":"costUSDC","type":"uint256","internalType":"uint256"}],"outputs":[{"name":"shares","type":"uint256","internalType":"uint256"}],"stateMutability":"view"},{"type":"function","name":"claimRange","inputs":[{"name":"rangeLower","type":"uint256","internalType":"uint256"},{"name":"rangeUpper","type":"uint256","internalType":"uint256"},{"name":"sharesToClaim","type":"uint256","internalType":"uint256"}],"outputs":[{"name":"payoutUSDC","type":"uint256","internalType":"uint256"}],"stateMutability":"nonpayable"},{"type":"function","name":"claimWinnings","inputs":[{"name":"bucketId","type":"uint256","internalType":"uint256"},{"name":"sharesToClaim","type":"uint256","internalType":"uint256"}],"outputs":[],"stateMutability":"nonpayable"},{"type":"function","name":"configureAlphaDecay","inputs":[{"name":"_alphaFinal","type":"uint256","internalType":"uint256"},{"name":"_decayStartTime","type":"uint256","internalType":"uint256"},{"name":"_decayDuration","type":"uint256","internalType":"uint256"}],"outputs":[],"stateMutability":"nonpayable"},{"type":"function","name":"configureExpansion","inputs":[{"name":"expandedMin","type":"uint256","internalType":"uint256"},{"name":"expandedMax","type":"uint256","internalType":"uint256"}],"outputs":[],"stateMutability":"nonpayable"},{"type":"function","name":"creationTime","inputs":[],"outputs":[{"name":"","type":"uint256","internalType":"uint256"}],"stateMutability":"view"},{"type":"function","name":"creator","inputs":[],"outputs":[{"name":"","type":"address","internalType":"address"}],"stateMutability":"view"},{"type":"function","name":"currentMaxBucketId","inputs":[],"outputs":[{"name":"","type":"uint256","internalType":"uint256"}],"stateMutability":"view"},{"type":"function","name":"decayDuration","inputs":[],"outputs":[{"name":"","type":"uint256","internalType":"uint256"}],"stateMutability":"view"},{"type":"function","name":"decayStartTime","inputs":[],"outputs":[{"name":"","type":"uint256","internalType":"uint256"}],"stateMutability":"view"},{"type":"function","name":"description","inputs":[],"outputs":[{"name":"","type":"string","internalType":"string"}],"stateMutability":"view"},{"type":"function","name":"emergencyPause","inputs":[],"outputs":[],"stateMutability":"nonpayable"},{"type":"function","name":"emergencyUnpause","inputs":[],"outputs":[],"stateMutability":"nonpayable"},{"type":"function","name":"factory","inputs":[],"outputs":[{"name":"","type":"address","internalType":"address"}],"stateMutability":"view"},{"type":"function","name":"feeBps","inputs":[],"outputs":[{"name":"","type":"uint256","internalType":"uint256"}],"stateMutability":"view"},{"type":"function","name":"feesCollectedLP","inputs":[],"outputs":[{"name":"","type":"uint256","internalType":"uint256"}],"stateMutability":"view"},{"type":"function","name":"feesCollectedProtocol","inputs":[],"outputs":[{"name":"","type":"uint256","internalType":"uint256"}],"stateMutability":"view"},{"type":"function","name":"getBucket","inputs":[{"name":"bucketId","type":"uint256","internalType":"uint256"}],"outputs":[{"name":"","type":"tuple","internalType":"struct LMSRMarket.Bucket","components":[{"name":"shares","type":"uint256","internalType":"uint256"},{"name":"lowerBound","type":"uint256","internalType":"uint256"},{"name":"upperBound","type":"uint256","internalType":"uint256"}]}],"stateMutability":"view"},{"type":"function","name":"getCachedSumExp","inputs":[],"outputs":[{"name":"","type":"uint256","internalType":"uint256"}],"stateMutability":"view"},{"type":"function","name":"getLPProfitability","inputs":[],"outputs":[{"name":"unrealizedProfit","type":"int256","internalType":"int256"},{"name":"roi","type":"int256","internalType":"int256"},{"name":"feesEarned","type":"uint256","internalType":"uint256"}],"stateMutability":"view"},{"type":"function","name":"getQuoteForRange","inputs":[{"name":"rangeLower","type":"uint256","internalType":"uint256"},{"name":"rangeUpper","type":"uint256","internalType":"uint256"},{"name":"amountUSDC","type":"uint256","internalType":"uint256"}],"outputs":[{"name":"shares","type":"uint256","internalType":"uint256"},{"name":"cost","type":"uint256","internalType":"uint256"},{"name":"odds","type":"uint256","internalType":"uint256"}],"stateMutability":"view"},{"type":"function","name":"getRequiredReserves","inputs":[],"outputs":[{"name":"","type":"uint256","internalType":"uint256"}],"stateMutability":"view"},{"type":"function","name":"getSafetyBuffer","inputs":[],"outputs":[{"name":"","type":"uint256","internalType":"uint256"}],"stateMutability":"view"},{"type":"function","name":"getWithdrawableSurplus","inputs":[],"outputs":[{"name":"","type":"uint256","internalType":"uint256"}],"stateMutability":"view"},{"type":"function","name":"initialBucketOffset","inputs":[],"outputs":[{"name":"","type":"uint256","internalType":"uint256"}],"stateMutability":"view"},{"type":"function","name":"initialDeposit","inputs":[],"outputs":[{"name":"","type":"uint256","internalType":"uint256"}],"stateMutability":"view"},{"type":"function","name":"initialize","inputs":[{"name":"_marketId","type":"uint256","internalType":"uint256"},{"name":"_creator","type":"address","internalType":"address"},{"name":"_factory","type":"address","internalType":"address"},{"name":"_usdcToken","type":"address","internalType":"address"},{"name":"_positionNFT","type":"address","internalType":"address"},{"name":"_alpha","type":"uint256","internalType":"uint256"},{"name":"_poolBalance","type":"uint256","internalType":"uint256"},{"name":"_bucketRanges","type":"uint256[]","internalType":"uint256[]"},{"name":"_feeBps","type":"uint256","internalType":"uint256"},{"name":"_protocolFeeBps","type":"uint256","internalType":"uint256"},{"name":"_metadata","type":"tuple","internalType":"struct LMSRMarket.MarketMetadata","components":[{"name":"name","type":"string","internalType":"string"},{"name":"description","type":"string","internalType":"string"},{"name":"resolutionCriteria","type":"string","internalType":"string"},{"name":"valueUnit","type":"string","internalType":"string"},{"name":"resolver","type":"address","internalType":"address"},{"name":"biddingDeadline","type":"uint256","internalType":"uint256"},{"name":"scheduledResolutionTime","type":"uint256","internalType":"uint256"},{"name":"minBetSize","type":"uint256","internalType":"uint256"}]},{"name":"_protocolFeeCollector","type":"address","internalType":"address"}],"outputs":[],"stateMutability":"nonpayable"},{"type":"function","name":"isAlphaDecayConfigured","inputs":[],"outputs":[{"name":"","type":"bool","internalType":"bool"}],"stateMutability":"view"},{"type":"function","name":"isSumExpDirty","inputs":[],"outputs":[{"name":"","type":"bool","internalType":"bool"}],"stateMutability":"view"},{"type":"function","name":"lastAlphaSyncTime","inputs":[],"outputs":[{"name":"","type":"uint256","internalType":"uint256"}],"stateMutability":"view"},{"type":"function","name":"lpFeesAccrued","inputs":[],"outputs":[{"name":"","type":"uint256","internalType":"uint256"}],"stateMutability":"view"},{"type":"function","name":"lpVault","inputs":[],"outputs":[{"name":"","type":"address","internalType":"address"}],"stateMutability":"view"},{"type":"function","name":"lpWithdrawn","inputs":[],"outputs":[{"name":"","type":"bool","internalType":"bool"}],"stateMutability":"view"},{"type":"function","name":"marketId","inputs":[],"outputs":[{"name":"","type":"uint256","internalType":"uint256"}],"stateMutability":"view"},{"type":"function","name":"marketMax","inputs":[],"outputs":[{"name":"","type":"uint256","internalType":"uint256"}],"stateMutability":"view"},{"type":"function","name":"marketMin","inputs":[],"outputs":[{"name":"","type":"uint256","internalType":"uint256"}],"stateMutability":"view"},{"type":"function","name":"maxBucketCount","inputs":[],"outputs":[{"name":"","type":"uint256","internalType":"uint256"}],"stateMutability":"view"},{"type":"function","name":"maxLiability","inputs":[],"outputs":[{"name":"","type":"uint256","internalType":"uint256"}],"stateMutability":"view"},{"type":"function","name":"maxRangeWidth","inputs":[],"outputs":[{"name":"","type":"uint256","internalType":"uint256"}],"stateMutability":"view"},{"type":"function","name":"minBetSize","inputs":[],"outputs":[{"name":"","type":"uint256","internalType":"uint256"}],"stateMutability":"view"},{"type":"function","name":"name","inputs":[],"outputs":[{"name":"","type":"string","internalType":"string"}],"stateMutability":"view"},{"type":"function","name":"needsAlphaSync","inputs":[],"outputs":[{"name":"","type":"bool","internalType":"bool"}],"stateMutability":"view"},{"type":"function","name":"poolBalance","inputs":[],"outputs":[{"name":"","type":"uint256","internalType":"uint256"}],"stateMutability":"view"},{"type":"function","name":"positionNFT","inputs":[],"outputs":[{"name":"","type":"address","internalType":"address"}],"stateMutability":"view"},{"type":"function","name":"protocolFeeBps","inputs":[],"outputs":[{"name":"","type":"uint256","internalType":"uint256"}],"stateMutability":"view"},{"type":"function","name":"protocolFeeCollector","inputs":[],"outputs":[{"name":"","type":"address","internalType":"address"}],"stateMutability":"view"},{"type":"function","name":"refreshMaxLiability","inputs":[],"outputs":[],"stateMutability":"nonpayable"},{"type":"function","name":"resolutionCriteria","inputs":[],"outputs":[{"name":"","type":"string","internalType":"string"}],"stateMutability":"view"},{"type":"function","name":"resolutionTime","inputs":[],"outputs":[{"name":"","type":"uint256","internalType":"uint256"}],"stateMutability":"view"},{"type":"function","name":"resolutionValue","inputs":[],"outputs":[{"name":"","type":"uint256","internalType":"uint256"}],"stateMutability":"view"},{"type":"function","name":"resolveMarket","inputs":[{"name":"_resolutionValue","type":"uint256","internalType":"uint256"}],"outputs":[],"stateMutability":"nonpayable"},{"type":"function","name":"resolver","inputs":[],"outputs":[{"name":"","type":"address","internalType":"address"}],"stateMutability":"view"},{"type":"function","name":"scheduledResolutionTime","inputs":[],"outputs":[{"name":"","type":"uint256","internalType":"uint256"}],"stateMutability":"view"},{"type":"function","name":"sellShares","inputs":[{"name":"bucketId","type":"uint256","internalType":"uint256"},{"name":"sharesToSell","type":"uint256","internalType":"uint256"},{"name":"minPayoutOut","type":"uint256","internalType":"uint256"}],"outputs":[{"name":"payoutUSDC","type":"uint256","internalType":"uint256"}],"stateMutability":"nonpayable"},{"type":"function","name":"sellSharesRange","inputs":[{"name":"rangeLower","type":"uint256","internalType":"uint256"},{"name":"rangeUpper","type":"uint256","internalType":"uint256"},{"name":"sharesToSell","type":"uint256","internalType":"uint256"},{"name":"minUsdcOut","type":"uint256","internalType":"uint256"}],"outputs":[{"name":"payoutUSDC","type":"uint256","internalType":"uint256"}],"stateMutability":"nonpayable"},{"type":"function","name":"setLPVault","inputs":[{"name":"_lpVault","type":"address","internalType":"address"}],"outputs":[],"stateMutability":"nonpayable"},{"type":"function","name":"setMaxRangeWidth","inputs":[{"name":"_maxRangeWidth","type":"uint256","internalType":"uint256"}],"outputs":[],"stateMutability":"nonpayable"},{"type":"function","name":"status","inputs":[],"outputs":[{"name":"","type":"uint8","internalType":"enum LMSRMarket.MarketStatus"}],"stateMutability":"view"},{"type":"function","name":"syncAlpha","inputs":[],"outputs":[],"stateMutability":"nonpayable"},{"type":"function","name":"totalDeposited","inputs":[],"outputs":[{"name":"","type":"uint256","internalType":"uint256"}],"stateMutability":"view"},{"type":"function","name":"totalSurplusWithdrawn","inputs":[],"outputs":[{"name":"","type":"uint256","internalType":"uint256"}],"stateMutability":"view"},{"type":"function","name":"totalVolume","inputs":[],"outputs":[{"name":"","type":"uint256","internalType":"uint256"}],"stateMutability":"view"},{"type":"function","name":"usdcToken","inputs":[],"outputs":[{"name":"","type":"address","internalType":"contract IUSDC"}],"stateMutability":"view"},{"type":"function","name":"valueUnit","inputs":[],"outputs":[{"name":"","type":"string","internalType":"string"}],"stateMutability":"view"},{"type":"function","name":"winningBucket","inputs":[],"outputs":[{"name":"","type":"uint256","internalType":"uint256"}],"stateMutability":"view"},{"type":"function","name":"withdrawLP","inputs":[],"outputs":[],"stateMutability":"nonpayable"},{"type":"function","name":"withdrawSurplus","inputs":[{"name":"recipient","type":"address","internalType":"address"},{"name":"amountUSDC","type":"uint256","internalType":"uint256"}],"outputs":[{"name":"withdrawnUSDC","type":"uint256","internalType":"uint256"}],"stateMutability":"nonpayable"},{"type":"event","name":"AlphaDecayConfigured","inputs":[{"name":"marketId","type":"uint256","indexed":true,"internalType":"uint256"},{"name":"alphaInitial","type":"uint256","indexed":false,"internalType":"uint256"},{"name":"alphaFinal","type":"uint256","indexed":false,"internalType":"uint256"},{"name":"decayStartTime","type":"uint256","indexed":false,"internalType":"uint256"},{"name":"decayDuration","type":"uint256","indexed":false,"internalType":"uint256"}],"anonymous":false},{"type":"event","name":"AlphaSynced","inputs":[{"name":"marketId","type":"uint256","indexed":true,"internalType":"uint256"},{"name":"oldAlpha","type":"uint256","indexed":false,"internalType":"uint256"},{"name":"newAlpha","type":"uint256","indexed":false,"internalType":"uint256"},{"name":"syncedAt","type":"uint256","indexed":false,"internalType":"uint256"}],"anonymous":false},{"type":"event","name":"BucketActivated","inputs":[{"name":"marketId","type":"uint256","indexed":true,"internalType":"uint256"},{"name":"bucketId","type":"uint256","indexed":true,"internalType":"uint256"},{"name":"lowerBound","type":"uint256","indexed":false,"internalType":"uint256"},{"name":"upperBound","type":"uint256","indexed":false,"internalType":"uint256"}],"anonymous":false},{"type":"event","name":"ExpansionConfigured","inputs":[{"name":"marketId","type":"uint256","indexed":true,"internalType":"uint256"},{"name":"expandedMin","type":"uint256","indexed":false,"internalType":"uint256"},{"name":"expandedMax","type":"uint256","indexed":false,"internalType":"uint256"},{"name":"maxBucketCount","type":"uint256","indexed":false,"internalType":"uint256"}],"anonymous":false},{"type":"event","name":"LPVaultSet","inputs":[{"name":"marketId","type":"uint256","indexed":true,"internalType":"uint256"},{"name":"vault","type":"address","indexed":true,"internalType":"address"}],"anonymous":false},{"type":"event","name":"LPWithdrawal","inputs":[{"name":"marketId","type":"uint256","indexed":true,"internalType":"uint256"},{"name":"creator","type":"address","indexed":true,"internalType":"address"},{"name":"amount","type":"uint256","indexed":false,"internalType":"uint256"},{"name":"profit","type":"int256","indexed":false,"internalType":"int256"}],"anonymous":false},{"type":"event","name":"LiquidityAdded","inputs":[{"name":"marketId","type":"uint256","indexed":true,"internalType":"uint256"},{"name":"provider","type":"address","indexed":true,"internalType":"address"},{"name":"amountUSDC","type":"uint256","indexed":false,"internalType":"uint256"}],"anonymous":false},{"type":"event","name":"MarketCreated","inputs":[{"name":"marketId","type":"uint256","indexed":true,"internalType":"uint256"},{"name":"creator","type":"address","indexed":true,"internalType":"address"},{"name":"poolBalance","type":"uint256","indexed":false,"internalType":"uint256"},{"name":"alpha","type":"uint256","indexed":false,"internalType":"uint256"},{"name":"bucketCount","type":"uint256","indexed":false,"internalType":"uint256"}],"anonymous":false},{"type":"event","name":"MarketEmergencyPaused","inputs":[{"name":"marketId","type":"uint256","indexed":true,"internalType":"uint256"}],"anonymous":false},{"type":"event","name":"MarketEmergencyUnpaused","inputs":[{"name":"marketId","type":"uint256","indexed":true,"internalType":"uint256"}],"anonymous":false},{"type":"event","name":"MarketResolved","inputs":[{"name":"marketId","type":"uint256","indexed":true,"internalType":"uint256"},{"name":"resolutionValue","type":"uint256","indexed":false,"internalType":"uint256"},{"name":"winningBucket","type":"uint256","indexed":false,"internalType":"uint256"},{"name":"resolutionTime","type":"uint256","indexed":false,"internalType":"uint256"}],"anonymous":false},{"type":"event","name":"RangeSharesPurchased","inputs":[{"name":"marketId","type":"uint256","indexed":true,"internalType":"uint256"},{"name":"buyer","type":"address","indexed":true,"internalType":"address"},{"name":"startBucket","type":"uint256","indexed":false,"internalType":"uint256"},{"name":"endBucket","type":"uint256","indexed":false,"internalType":"uint256"},{"name":"shares","type":"uint256","indexed":false,"internalType":"uint256"},{"name":"costUSDC","type":"uint256","indexed":false,"internalType":"uint256"}],"anonymous":false},{"type":"event","name":"RangeSharesSold","inputs":[{"name":"marketId","type":"uint256","indexed":true,"internalType":"uint256"},{"name":"seller","type":"address","indexed":true,"internalType":"address"},{"name":"startBucket","type":"uint256","indexed":false,"internalType":"uint256"},{"name":"endBucket","type":"uint256","indexed":false,"internalType":"uint256"},{"name":"shares","type":"uint256","indexed":false,"internalType":"uint256"},{"name":"payoutUSDC","type":"uint256","indexed":false,"internalType":"uint256"}],"anonymous":false},{"type":"event","name":"RangeWinningsClaimed","inputs":[{"name":"marketId","type":"uint256","indexed":true,"internalType":"uint256"},{"name":"claimer","type":"address","indexed":true,"internalType":"address"},{"name":"startBucket","type":"uint256","indexed":false,"internalType":"uint256"},{"name":"endBucket","type":"uint256","indexed":false,"internalType":"uint256"},{"name":"shares","type":"uint256","indexed":false,"internalType":"uint256"},{"name":"payoutUSDC","type":"uint256","indexed":false,"internalType":"uint256"}],"anonymous":false},{"type":"event","name":"SharesPurchased","inputs":[{"name":"marketId","type":"uint256","indexed":true,"internalType":"uint256"},{"name":"buyer","type":"address","indexed":true,"internalType":"address"},{"name":"bucketId","type":"uint256","indexed":true,"internalType":"uint256"},{"name":"amountUSDC","type":"uint256","indexed":false,"internalType":"uint256"},{"name":"sharesMinted","type":"uint256","indexed":false,"internalType":"uint256"},{"name":"newPrice","type":"uint256","indexed":false,"internalType":"uint256"}],"anonymous":false},{"type":"event","name":"SharesSold","inputs":[{"name":"marketId","type":"uint256","indexed":true,"internalType":"uint256"},{"name":"seller","type":"address","indexed":true,"internalType":"address"},{"name":"bucketId","type":"uint256","indexed":true,"internalType":"uint256"},{"name":"sharesBurned","type":"uint256","indexed":false,"internalType":"uint256"},{"name":"amountUSDC","type":"uint256","indexed":false,"internalType":"uint256"},{"name":"newPrice","type":"uint256","indexed":false,"internalType":"uint256"}],"anonymous":false},{"type":"event","name":"SurplusWithdrawn","inputs":[{"name":"marketId","type":"uint256","indexed":true,"internalType":"uint256"},{"name":"caller","type":"address","indexed":true,"internalType":"address"},{"name":"recipient","type":"address","indexed":true,"internalType":"address"},{"name":"amountUSDC","type":"uint256","indexed":false,"internalType":"uint256"}],"anonymous":false},{"type":"event","name":"WinningsClaimed","inputs":[{"name":"marketId","type":"uint256","indexed":true,"internalType":"uint256"},{"name":"claimer","type":"address","indexed":true,"internalType":"address"},{"name":"amount","type":"uint256","indexed":false,"internalType":"uint256"}],"anonymous":false},{"type":"error","name":"AlreadyInitialized","inputs":[]},{"type":"error","name":"BetTooSmall","inputs":[]},{"type":"error","name":"BiddingClosed","inputs":[]},{"type":"error","name":"ExpansionAlreadyConfigured","inputs":[]},{"type":"error","name":"FactorOverflow","inputs":[]},{"type":"error","name":"IndexOutOfBounds","inputs":[{"name":"index","type":"uint32","internalType":"uint32"},{"name":"size","type":"uint32","internalType":"uint32"}]},{"type":"error","name":"InsufficientBalance","inputs":[]},{"type":"error","name":"InvalidBucket","inputs":[]},{"type":"error","name":"InvalidFactor","inputs":[{"name":"factor","type":"uint256","internalType":"uint256"}]},{"type":"error","name":"InvalidParameters","inputs":[]},{"type":"error","name":"InvalidRange","inputs":[{"name":"lo","type":"uint32","internalType":"uint32"},{"name":"hi","type":"uint32","internalType":"uint32"}]},{"type":"error","name":"InvalidRange","inputs":[]},{"type":"error","name":"InvalidResolutionValue","inputs":[]},{"type":"error","name":"MarketAlreadyResolved","inputs":[]},{"type":"error","name":"MarketNotActive","inputs":[]},{"type":"error","name":"MarketPaused","inputs":[]},{"type":"error","name":"MathOverflowedMulDiv","inputs":[]},{"type":"error","name":"NoSurplusAvailable","inputs":[]},{"type":"error","name":"RangeNotWinner","inputs":[]},{"type":"error","name":"RangeTooWide","inputs":[]},{"type":"error","name":"ReentrancyGuardReentrantCall","inputs":[]},{"type":"error","name":"SolvencyViolation","inputs":[]},{"type":"error","name":"TreeAlreadyInitialized","inputs":[]},{"type":"error","name":"TreeNotInitialized","inputs":[]},{"type":"error","name":"TreeSizeTooLarge","inputs":[]},{"type":"error","name":"TreeSizeZero","inputs":[]},{"type":"error","name":"Unauthorized","inputs":[]},{"type":"error","name":"ZeroAlpha","inputs":[]},{"type":"error","name":"ZeroSum","inputs":[]}],"bytecode":{"object":"0x608060405234620009355762006ecb80380380916200002082608062000da6565b608039610180811262000935576080516200003c60a062000dca565b906200004960c062000dca565b6200005560e062000dca565b906200006361010062000dca565b6101205161014051610160519197909492939290916001600160401b03811162000935576080019382608001601f8601121562000935578451986001600160401b038a1162000682578960051b956040519a620000c4602089018d62000da6565b8b5260208b018097866080016020828501011162000935579060208301915b602081850101831062000d91575050610180516101a0516101c051979096919593509091506001600160401b03871162000935576101008782031262000935576040519661010088016001600160401b03811189821017620006825760405260808101516001600160401b03811162000935576200016b908360800190836080010162000ddf565b885260a08101516001600160401b038111620009355762000196908360800190836080010162000ddf565b602089015260c08101516001600160401b0381116200093557620001c4908360800190836080010162000ddf565b604089015260e0810151916001600160401b038311620009355760e092620001f59160800190836080010162000ddf565b606089015262000209610100820162000dca565b60808981019190915261012082015160a08a015261014082015160c08a01529101015160e08701526200023e6101e062000dca565b9660015f556005549060ff8260a01c1662000d8057841562000d6e578a1562000d6e5760028e511062000d6e576101f4861162000d6e578b60015560018060a01b038d1660018060a01b0319600254161760025560018060a01b031660018060a01b03196003541617600355600160a01b9160018060a01b03169060018060a81b031916171760055560018060a01b031660018060a01b0319600454161760045560065585600c5585600d55601c55601d5560ff1960165416601655805180519060018060401b038211620006825760215490600182811c9216801562000d63575b602083101462000a7f5781601f84931162000d05575b50602090601f831160011462000c8a575f9262000c7e575b50508160011b915f199060031b1c1916176021555b60208101518051906001600160401b038211620006825760225490600182811c9216801562000c73575b602083101462000a7f5781601f84931162000c15575b50602090601f831160011462000b9a575f9262000b8e575b50508160011b915f199060031b1c1916176022555b60408101518051906001600160401b038211620006825760235490600182811c9216801562000b83575b602083101462000a7f5781601f84931162000b25575b50602090601f831160011462000aaa575f9262000a9e575b50508160011b915f199060031b1c1916176023555b60608101518051906001600160401b0382116200068257602454600181811c9116801562000a93575b602082101462000a7f57601f811162000a1b575b50602090601f8311600114620009ab5760e09392915f91836200099f575b50508160011b915f199060031b1c1916176024555b60808101516001600160a01b031680620009995750865b602580546001600160a01b03199081166001600160a01b039384161790915560a083015160265560c0830151602755929091015160285542602955602e8054909216921691909117905584515f198101919082116200069657816010558551156200098557518060115585515f198101908111620006965762000548908762000e53565b5190816012558103908111620006965781620005649162000e68565b6013556006548060075560085542600b5581600e55670de0b6b3a7640000810290808204670de0b6b3a7640000149015171562000696576040519063126a748560e11b8252600482015260208160248173__$4aa18cb2ebd4829f68603673fae2e2f31a$__5af490811562000942575f916200094d575b50601455620005f0600c546010549062000e68565b915f5b601054811015620006aa576200060a818762000e53565b5190600181018111620006965762000626600182018862000e53565b5160405190926001600160401b0360608301908111908311176200068257600193600291606084016040528884526020840190815260408401918252845f52601560205260405f209351845551858401555191015501620005f3565b634e487b7160e01b5f52604160045260245ffd5b634e487b7160e01b5f52601160045260245ffd5b508383600181018082116200069657670de0b6b3a7640000810290808204670de0b6b3a764000014901517156200069657600654620006e99162000e68565b6010546040519163b581fbe360e01b8352600483015260208260248173__$4aa18cb2ebd4829f68603673fae2e2f31a$__5af491821562000942575f9262000904575b5063ffffffff811615620008f257603a5463ffffffff8160401c16620008e057637fffffff63ffffffff831611620008ce576bffffffff00000000000000008260401b1692603c55640100000000600160601b0319169063ffffffff5f199116019063ffffffff8211620006965763ffffffff83821760201c169163ffffffff831462000696576200084893600163ffffffff94019267ffffffff000000008460201b169167ffffffff0000000019161717603a55620007fa8263ffffffff165f52603960205260405f2090565b9060018201670de0b6b3a764000060018060c01b031982541617905583600181603c5493160116029055168063ffffffff19603a541617603a5563ffffffff165f52603960205260405f2090565b54603b55600c546103e8810180911162000696578111620008bc577f8dfadba5829db37a40e1dab1a739f8294a538ade264a5fbcc2745e229ad75a3991606091602055600654601054906040519687526020870152604086015260018060a01b031693a3604051615fe3908162000e888239f35b604051630b7db7f360e41b8152600490fd5b604051636251f89960e11b8152600490fd5b60405163118a8e6360e01b8152600490fd5b6040516366916dfd60e01b8152600490fd5b9091506020813d60201162000939575b81620009236020938362000da6565b8101031262000935575190866200072c565b5f80fd5b3d915062000914565b6040513d5f823e3d90fd5b90506020813d6020116200097c575b816200096b6020938362000da6565b810103126200093557515f620005db565b3d91506200095c565b634e487b7160e01b5f52603260045260245ffd5b620004c4565b015190505f8062000498565b9060245f5260205f20915f5b601f198516811062000a02575091839160019360e09695601f19811610620009e9575b505050811b01602455620004ad565b01515f1960f88460031b161c191690555f8080620009da565b91926020600181928685015181550194019201620009b7565b60245f527f7cd332d19b93bcabe3cce7ca0c18a052f57e5fd03b4758a09f30f5ddc4b22ec4601f840160051c81016020851062000a77575b601f830160051c8201811062000a6b5750506200047a565b5f815560010162000a53565b508062000a53565b634e487b7160e01b5f52602260045260245ffd5b90607f169062000466565b015190505f8062000428565b60235f90815293505f8051602062006eab83398151915291905b601f198416851062000b09576001945083601f1981161062000af0575b505050811b016023556200043d565b01515f1960f88460031b161c191690555f808062000ae1565b8181015183556020948501946001909301929091019062000ac4565b60235f529091505f8051602062006eab833981519152601f840160051c81016020851062000b7b575b90849392915b601f830160051c8201811062000b6c57505062000410565b5f815585945060010162000b54565b508062000b4e565b91607f1691620003fa565b015190505f80620003bb565b60225f90815293505f8051602062006e6b83398151915291905b601f198416851062000bf9576001945083601f1981161062000be0575b505050811b01602255620003d0565b01515f1960f88460031b161c191690555f808062000bd1565b8181015183556020948501946001909301929091019062000bb4565b60225f529091505f8051602062006e6b833981519152601f840160051c81016020851062000c6b575b90849392915b601f830160051c8201811062000c5c575050620003a3565b5f815585945060010162000c44565b508062000c3e565b91607f16916200038d565b015190505f806200034e565b60215f90815293505f8051602062006e8b83398151915291905b601f198416851062000ce9576001945083601f1981161062000cd0575b505050811b0160215562000363565b01515f1960f88460031b161c191690555f808062000cc1565b8181015183556020948501946001909301929091019062000ca4565b60215f529091505f8051602062006e8b833981519152601f840160051c81016020851062000d5b575b90849392915b601f830160051c8201811062000d4c57505062000336565b5f815585945060010162000d34565b508062000d2e565b91607f169162000320565b604051630e52390960e41b8152600490fd5b60405162dc149f60e41b8152600490fd5b602080809385518152019301929150620000e3565b601f909101601f19168101906001600160401b038211908210176200068257604052565b51906001600160a01b03821682036200093557565b919080601f84011215620009355782516001600160401b03811162000682576020906040519262000e1a83601f19601f850116018562000da6565b81845282828701011162000935575f5b81811062000e3f5750825f9394955001015290565b858101830151848201840152820162000e2a565b8051821015620009855760209160051b010190565b811562000e73570490565b634e487b7160e01b5f52601260045260245ffdfe6080806040526004361015610012575f80fd5b5f905f3560e01c90816302d05d3f14613e465750806304f3bcec14613e1e57806306fdde0314613d9557806308feb1ab14613d7857806309c5140614613d5b5780630fd388d314613d3e578063100686b714613d2157806311eac85514613cf957806313856b7914613cdf578063147d186214613cc25780631b83249914613ca8578063200d2ed214613c7f578063217c16e414613c6457806323228ecb14613c3c57806324a9d85314613c1f57806325c07832146139c5578063286db5c2146137df578063289f1185146137c65780632f8673671461379957806331a36c381461377b57806334d492aa1461375d57806335659fb81461373f57806338a3f3c5146137215780633b5d9d08146136f25780633e9e1ead14612b125780634043a2fb14612af45780634218bf0214612ad65780634a4e3bd514612a6b5780634bf33ab814612a4d5780634c8011bc1461295057806351858e27146128c8578063519a1d841461283e57806351a2f80a1461272d57806351bc0847146123bf57806351c6590a146122b35780635c038416146122955780635f81a57c146122775780635fd39d2f146121ed57806361d5f225146121cf5780636399d03d146120b0578063647365d51461209557806364daf9f214611f4657806365fe45ed14611ec25780636704150914611ea45780636774958114611e845780636a14602414611e615780636c8d9e3714611daa5780636db49f6014611d8d5780636ed71ede14611d6f5780637284e41614611cb857806377b8c9a514611c955780637aabf58a146118fe578063850a1501146118d5578063868be003146118b3578063880fc2681461155e57806388801cb014611539578063893f47b41461151b5780638f923177146114fd5780639307ee3914610adf57806396365d44146114df5780639b51fb0d146114a0578063a1a64a1e1461133b578063a2a244ea14610eee578063a890c99714610c95578063b298523b14610c77578063b4845fff14610ae4578063b70a759814610adf578063b7ccbc2914610ac1578063ba35736e14610aa3578063bdaef62314610a85578063bff9941014610a69578063c17e608f14610a4b578063c2f5673e14610a2d578063c45a015514610a04578063c494bd92146109e8578063d55be8c6146109cb578063d67c6872146104ff578063d8270dce146104e1578063db1d0fd5146104c3578063e037f889146104a5578063e0af4fed14610487578063e0c2218e1461046a578063f0b517901461042c578063f3e41e901461040e578063f91b73c3146103f05763ff50abdc146103d0575f80fd5b346103ed57806003193601126103ed576020600e54604051908152f35b80fd5b50346103ed57806003193601126103ed576020601f54604051908152f35b50346103ed57806003193601126103ed576020601a54604051908152f35b50346103ed5760203660031901126103ed576003546001600160a01b031633036104595760043560375580f35b6040516282b42960e81b8152600490fd5b50346103ed57806003193601126103ed5760206040516107088152f35b50346103ed57806003193601126103ed576020600854604051908152f35b50346103ed57806003193601126103ed576020600d54604051908152f35b50346103ed57806003193601126103ed576020600654604051908152f35b50346103ed57806003193601126103ed576020602954604051908152f35b50346103ed5761050e36613f39565b9091610518614ab6565b60ff6016541660048110156109b7576109a557610533614c50565b60105481101561099357821561086c57805f526020926015845260405f20548111610934576026548015159081610989575b5061097757610572614ad7565b6108e6575b61057f614eab565b603b5461059c63ffffffff85169161059683615594565b90614084565b845f52601587526105b18460405f2054614084565b926105cf6105c66105c18661402c565b614126565b60065490614156565b9173__$4aa18cb2ebd4829f68603673fae2e2f31a$__926040519063b581fbe360e01b825260048201528981602481875af480156107e2578a915f916108b5575b5061061b919261403a565b60246040518095819363126a748560e11b835260048301525af49182156107e2575f9261087e575b50670de0b6b3a764000061065c61066393600654614143565b0490614084565b6127109182610674601c5484614143565b04936106808584614084565b97881061086c576106fd936106a9876106e3946106bd9460158e8d5f525260405f2055806151a0565b6106b5601d5487614143565b048095614084565b6106c988600c54614084565b600c556106d881601e5461403a565b601e5560365461403a565b6036556106f283601f5461403a565b601f5560195461403a565b601955603854830361085f57610711614baa565b610719614ad7565b6107ed575b61072790614f91565b60055460405163a9059cbb60e01b815290859082906001600160a01b0316815f816107568a336004840161416e565b03925af180156107e2576107b5575b5061076f826151f1565b7f68abce32b9f873fe26e412682f3aa6504d7fb3226eb0da6167ec119f0168288b6107a66001549260405191829188339784613f53565b0390a460015f55604051908152f35b6107d490853d87116107db575b6107cc8183613ecf565b8101906141a7565b5084610765565b503d6107c2565b6040513d5f823e3d90fd5b6004546001600160a01b03169061080384614af8565b91803b1561085b57835f916108309483604051809781958294637a94c56560e11b84523360048501614189565b03925af19182156107e2576107279261084c575b50905061071e565b61085590613ea1565b86610844565b5f80fd5b610867614f6b565b610711565b604051630e52390960e41b8152600490fd5b91508782813d83116108ae575b6108958183613ecf565b8101031261085b57905190670de0b6b3a7640000610643565b503d61088b565b82819392503d83116108df575b6108cc8183613ecf565b8101031261085b5751899061061b610610565b503d6108c2565b610919846108f384614af8565b60018060a01b03600454166040518080958194627eeac760e11b8352336004840161416e565b03915afa80156107e25782915f91610946575b501015610577575b604051631e9acf1760e31b8152600490fd5b809250868092503d8311610970575b61095f8183613ecf565b8101031261085b578190518661092c565b503d610955565b604051638083ad0360e01b8152600490fd5b9050421185610565565b60405163778aa76b60e01b8152600490fd5b604051635a90bb8d60e11b8152600490fd5b634e487b7160e01b5f52602160045260245ffd5b50346103ed57806003193601126103ed5760206040516101f48152f35b50346103ed57806003193601126103ed57602060405160648152f35b50346103ed57806003193601126103ed576003546040516001600160a01b039091168152602090f35b50346103ed57806003193601126103ed576020601054604051908152f35b50346103ed57806003193601126103ed576020600954604051908152f35b50346103ed57806003193601126103ed57602090604051908152f35b50346103ed57806003193601126103ed576020602f54604051908152f35b50346103ed57806003193601126103ed576020600a54604051908152f35b50346103ed57806003193601126103ed576020603b54604051908152f35b614001565b50346103ed5760403660031901126103ed57610afe613f7f565b60243590610b0a614ab6565b60ff601654166004811015610c63576109a5576001600160a01b0381811691821561086c57816002541633141580610c52575b61045957610b49614b2d565b610b51614091565b8015610c40575f198514610c38575b8415908115610c2e575b5061086c5783602091610bb793610b8383600c54614084565b600c55610b9283600f5461403a565b600f5560055416908760405180968195829463a9059cbb60e01b84526004840161416e565b03925af18015610c23579160209491600193610c06575b508254604051908582527f4f0dd1f9cc0e5c7e34c0132340c17713de0c1bf49c69b91eb2d3df566cf2fd4a873393a455604051908152f35b610c1c90863d88116107db576107cc8183613ecf565b505f610bce565b6040513d86823e3d90fd5b905084115f610b6a565b935083610b60565b60405163b8a6bd3160e01b8152600490fd5b5081601b5460081c16331415610b3d565b634e487b7160e01b84526021600452602484fd5b50346103ed57806003193601126103ed576020603154604051908152f35b50346103ed57610ca436613f39565b929190610caf614ab6565b60ff601654166004811015610c63576001036109a557831561086c57610cd4916144d1565b929091601754928084108015610ee5575b610ed357838252602093601585526040832054841161093457610d06614ad7565b610e66575b82526015845260408220610d20848254614084565b9055610d2e83600c54614084565b600c55610d39614ad7565b610def575b60055460405163a9059cbb60e01b81529590859087906001600160a01b0316818681610d6e8a336004840161416e565b03925af1958615610de4576001949596610dc7575b507f0bc4e390c2e1783b037c3020ef71486b7789b49ca8c379531742486a1a9e222285855492610dbb826040519384933398856141d3565b0390a355604051908152f35b610ddd90873d89116107db576107cc8183613ecf565b505f610d83565b6040513d85823e3d90fd5b6004546001600160a01b0316610e058683614f36565b813b15610e625784610e3192859283604051809681958294637a94c56560e11b84523360048501614189565b03925af18015610de457908391610e4a575b5050610d3e565b610e5390613ea1565b610e5e57815f610e43565b5080fd5b8380fd5b610e74856108f38885614f36565b03915afa908115610c23579085918591610ea2575b501015610d0b57604051631e9acf1760e31b8152600490fd5b809250878092503d8311610ecc575b610ebb8183613ecf565b8101031261085b578490515f610e89565b503d610eb1565b604051636196d5dd60e11b8152600490fd5b50848411610ce5565b50346103ed5760a03660031901126103ed576044356024608435610f10614ab6565b60ff6016541660048110156109b7576109a5575f91610f2d614c50565b6026548015159081611331575b50610977576028548015159081611327575b5061131557610f5f6024356004356144d1565b9490926030546112db575b61271080610f7a601c5485614143565b0491610f868385614084565b905f95603b549163ffffffff92838a16938c1694610fa486866145b9565b9280611291575b508b15611232575b505050606435891061086c5790889291610fcf88600c5461403a565b896103e88201809211905b8d8111156111cf5750505050875b8a81111561117f57509261100561103493611028935f97966155e4565b61101187600c5461403a565b600c55611020601d5485614143565b048093614084565b6106d881601e5461403a565b60365561104381601f5461403a565b601f556110528360195461403a565b6019556005546040516323b872dd60e01b81526001600160a01b039490936020928592908716918391829061108c90303360048501614243565b03925af19182156107e2576110a692611160575b50614f91565b6110ae614ad7565b6110ea575b505f80516020615f77833981519152836020956110db600154946040519384933398856141d3565b0390a360015f55604051908152f35b600454166110f88584614f36565b90803b1561085b57845f916111259383604051809681958294630ab714fb60e11b84523360048501614189565b03925af180156107e2576020955f80516020615f77833981519152928692611151575b509550506110b3565b61115a90613ea1565b87611148565b6111789060203d6020116107db576107cc8183613ecf565b50876110a0565b6111ba91929350805f526015602081815261119e8c60405f205461403a565b91835f5281528160405f2055805482116111c3575b5050614160565b90889291610fe8565b55806038558b806111b3565b80919293949596505f526015602052816111ed8d60405f205461403a565b9061121f57831061120d5761120190614160565b908b9594939291610fda565b604051630b7db7f360e41b8152600490fd5b84634e487b7160e01b5f5260116004525ffd5b828261124393949d5060065461465a565b998a611250575b80610fb3565b6112899298506112809061127a61126a8d600654906147f0565b6112748386614084565b9261488a565b9061403a565b906006546149b1565b958a8061124a565b6112c06112b76112a3600654846147f0565b61127a6112b08888614084565b918861488a565b846006546149b1565b90828211156112d0575b50610fab565b9c5099508d806112ca565b835b868111156112eb5750610f6a565b806112f861130292614641565b1561130757614160565b6112dd565b61131081615015565b614160565b604051631a6254d160e31b8152600490fd5b9050841085610f4c565b9050421185610f3a565b50346103ed57806003193601126103ed57611354614ab6565b6002546001600160a01b039081163314158061148f575b6104595760ff60165416600481101561147b576001036109a557601b549060ff821661086c576017548352601560205260408320549060016113af83600c54614084565b93600e54600f54908181115f14611470576113d3916113cd91614084565b866141ef565b93600c5560ff191617601b55600554166020604051809263a9059cbb60e01b825281878161140589336004840161416e565b03925af18015610c2357611451575b506001549060405192835260208301527f88198030985a99aec42797b0bbe17d6da9e448538dc983f938b438656c477ff560403393a36001815580f35b6114699060203d6020116107db576107cc8183613ecf565b505f611414565b50506113d3866113cd565b634e487b7160e01b83526021600452602483fd5b5080601b5460081c1633141561136b565b50346103ed5760203660031901126103ed57604090600435815260156020522080546114db6002600184015493015460405193849384613f53565b0390f35b50346103ed57806003193601126103ed576020600c54604051908152f35b50346103ed57806003193601126103ed576020603754604051908152f35b50346103ed57806003193601126103ed576020600f54604051908152f35b50346103ed57806003193601126103ed5760206115546144b9565b6040519015158152f35b50346103ed5760803660031901126103ed5760443561157b614ab6565b60ff6016541660048110156109b7576109a557611596614c50565b60265480151590816118a9575b5061097757801561086c576115bc6024356004356144d1565b90805b8281111561188857506115d0614ad7565b611818575b603b549163ffffffff926116168484169483169161160d6115f684886145b9565b61127a61126a6116086006548c6147f0565b614998565b90600654615626565b61271080611626601c5484614143565b04926116328484614084565b96606435881061086c57908891875b878111156117ea5750926116606106e3936110289361167b97966151a0565b61166c89600c54614084565b600c556106b5601d5487614143565b6019555f83603854905b848111156117c9575b5050156117bc5761169d614baa565b6116a5614ad7565b61174d575b6116b390614f91565b60055460405163a9059cbb60e01b8152949060209086906001600160a01b0316815f816116e48a336004840161416e565b03925af19081156107e2576020957f3b240344272b011bc0ca6763e9e376305a97e072586bce27ce44ccea104c501392611730575b50600154926110db866040519384933398856141d3565b61174690873d89116107db576107cc8183613ecf565b5086611719565b6004546001600160a01b0316906117648385614f36565b91803b1561085b57865f916117919483604051809781958294637a94c56560e11b84523360048501614189565b03925af19182156107e2576116b3926117ad575b5090506116aa565b6117b690613ea1565b866117a5565b6117c4614f6b565b61169d565b8181146117de576117d990614160565b611685565b5050506001868061168e565b61180f91929350805f52601560205260405f206118088c8254614084565b9055614160565b90899291611641565b61182760206108f38484614f36565b03915afa80156107e25784915f91611853575b5010156115d557604051631e9acf1760e31b8152600490fd5b9150506020813d602011611880575b8161186f60209383613ecf565b8101031261085b578390518561183a565b3d9150611862565b805f5260156020528360405f205410610934576118a490614160565b6115bf565b90504211826115a3565b50346103ed5760206118cd6118c736613f69565b9061431f565b604051908152f35b50346103ed57806003193601126103ed57602e546040516001600160a01b039091168152602090f35b50346103ed5761190d36613f39565b9091611917614ab6565b60ff6016541660048110156109b7576109a557611932614c50565b60105481101561099357821561086c576026548015159081611c8b575b50610977576028548015159081611c81575b5061131557603054151580611c71575b611c63575b61197e614eab565b92603b5461199663ffffffff84169161059683615594565b9461271090816119a8601c5486614143565b04926119c46105c66105c16119bd8789614084565b809561403a565b73__$4aa18cb2ebd4829f68603673fae2e2f31a$__906040519063b581fbe360e01b825260048201526020998a82602481865af480156107e2578b925f91611c30575b5090611a1291614084565b60246040518094819363126a748560e11b835260048301525af49081156107e2575f91611bfb575b50670de0b6b3a7640000611a53611a5992600654614143565b04614076565b865f5260158952611a6e60405f205482614084565b97881061086c57611a89611a8484600c5461403a565b61401d565b811161120d57611ac5936106a9896106c994611abc9460158e8d5f52528060405f20558d548111611bef575b50806155e4565b91600c5461403a565b603655611ad481601f5461403a565b601f55611ae38260195461403a565b6019556005546040516323b872dd60e01b81526001600160a01b03929091879083908516815f81611b198a303360048501614243565b03925af19182156107e257611b3292611bd95750614f91565b611b3b836151f1565b90611b44614ad7565b611b81575b507f8762e26dc6d01995de17b45e1cff9555eea69c6277a19bdb7d21b30f7f4d448d6107a66001549260405191829188339784613f53565b60045416611b8e84614af8565b90803b1561085b57855f91611bbb9383604051809681958294630ab714fb60e11b84523360048501614189565b03925af180156107e25715611b4957611bd390613ea1565b85611b49565b61117890883d8a116107db576107cc8183613ecf565b8d558a6038558d611ab5565b90508881813d8311611c29575b611c128183613ecf565b8101031261085b5751670de0b6b3a7640000611a3a565b503d611c08565b8381939492503d8311611c5c575b611c488183613ecf565b8101031261085b57518a9190611a12611a07565b503d611c3e565b611c6c81615015565b611976565b50611c7b81614641565b15611971565b9050831084611961565b905042118461194f565b50346103ed57806003193601126103ed57602060ff601b54166040519015158152f35b50346103ed57806003193601126103ed576040515f90602254611cda81613e69565b808352602091600190818116908115611d4f5750600114611d12575b6114db84611d0681880382613ecf565b60405191829182613ef2565b91935060225f52835f20915f925b828410611d3c57505050816114db93611d069282010193611cf6565b8054858501870152928501928101611d20565b60ff1916858501525050151560051b8201019150611d06816114db611cf6565b50346103ed57806003193601126103ed576020600154604051908152f35b50346103ed57806003193601126103ed5760208054604051908152f35b50346103ed5760203660031901126103ed57611dc4613f7f565b60ff60165416600481101561147b576109a5576001600160a01b0381811691821561086c57816002541633141580611e53575b61045957601b54918260081c1661086c57610100600160a81b031990911660089190911b610100600160a81b031617601b556001547f408a3bb4b9dcbf62417447647cd90a3e0ff562ea88edb0b0de4a8caf0cda7d308380a380f35b508160035416331415611df7565b50346103ed57806003193601126103ed576020604051670de0b6b3a76400008152f35b50346103ed57806003193601126103ed5760206118cd815461127a614265565b50346103ed57806003193601126103ed576020603054604051908152f35b50346103ed5760203660031901126103ed576004358160408051611ee581613eb4565b8281528260208201520152601054811015610993578160409160609352601560205220604051611f1481613eb4565b815491828252604060026001830154926020850193845201549201918252604051928352516020830152516040820152f35b50346103ed57611f5536613f69565b919060105481101561099357611f8e6105c66105c1611f72614eab565b95611f88603b5461059663ffffffff8816615594565b9661403a565b73__$4aa18cb2ebd4829f68603673fae2e2f31a$__906040519063b581fbe360e01b825260048201526020948582602481865af480156107e25786928691612062575b5090611fdc91614084565b60246040518094819363126a748560e11b835260048301525af49283156107e25792612031575b5061201f670de0b6b3a7640000611a536118cd94600654614143565b905f526015835260405f205490614084565b91508282813d831161205b575b6120488183613ecf565b8101031261085b5790519061201f612003565b503d61203e565b8381939492503d831161208e575b61207a8183613ecf565b8101031261085b5751859190611fdc611fd1565b503d612070565b50346103ed57806003193601126103ed5760206118cd614265565b50346103ed5760203660031901126103ed57602554600435906001600160a01b03163303610459576016549060ff82166004811015610c63576121bd5760115480821080156121b2575b6121a05761210b6121149183614084565b60135490614156565b9160105480841015612176575b509060017f9f7cb4c52f35416365b5664015fc31776d715fff39c7b9cb7529d135f9885f499260ff191617601655806018558260175542601a5560015492612170604051928392429184613f53565b0390a280f35b9092505f19810190811161218c57916001612121565b634e487b7160e01b84526011600452602484fd5b6040516382d8c51160e01b8152600490fd5b5060125482116120fa565b60405163aa43cb2d60e01b8152600490fd5b50346103ed57806003193601126103ed576020602854604051908152f35b50346103ed57806003193601126103ed576040515f9060245461220f81613e69565b808352602091600190818116908115611d4f575060011461223a576114db84611d0681880382613ecf565b91935060245f52835f20915f925b82841061226457505050816114db93611d069282010193611cf6565b8054858501870152928501928101612248565b50346103ed57806003193601126103ed576020601954604051908152f35b50346103ed57806003193601126103ed576020601154604051908152f35b50346103ed5760203660031901126103ed576004356122d0614ab6565b60ff60165416600481101561147b576109a557801561086c576002546001600160a01b03908116331415806123ae575b6104595760055416602060405180926323b872dd60e01b825281868161232b88303360048501614243565b03925af18015610de45761238f575b5061234781600c5461403a565b600c5561235681600e5461403a565b600e556001546040519182527fc733c2813826d31c105dbff518b08258e9e7aeb3eb1c7c7f642d77696faf501d60203393a36001815580f35b6123a79060203d6020116107db576107cc8183613ecf565b505f61233a565b5080601b5460081c16331415612300565b50346103ed576123ce36613f69565b6003549091906001600160a01b031633036104595760305461271b5760195461086c576011549182821161086c576012549283821061086c576124118382614084565b61241e6013548092614207565b61086c57612435816124308786614084565b614207565b61086c5761244d6124528261244d8761245996614084565b614156565b9584614084565b916124706010549361246b868661403a565b61403a565b9380603155806126aa575b92816011558260125580602f558460305561249585614211565b90869473__$4aa18cb2ebd4829f68603673fae2e2f31a$__955b82811061260c5750505063ffffffff9081861690603a54838160401c16156125fa5782156125e857637fffffff83116125d6578261251e916124f661252695855114614e61565b5f603c55600160201b600160601b03191660408a901b63ffffffff60401b1617603a5561458e565b5f60396154e7565b911663ffffffff19603a541617603a55603b5583601055602061254a602f54614e1b565b60246040518096819363126a748560e11b835260048301525af480156107e2578590612597575b5f80516020615f9783398151915293506014556121706001549460405193849384613f53565b506020833d6020116125ce575b816125b160209383613ecf565b8101031261085b575f80516020615f978339815191529251612571565b3d91506125a4565b604051636251f89960e11b8152600490fd5b6040516366916dfd60e01b8152600490fd5b604051635fba374760e11b8152600490fd5b612616828261403a565b5f52602090601582526126326105c66105c160405f205461402c565b916040519263b581fbe360e01b8452600484015280836024818c5af49081156107e2578b9161267b575b506001925061267461266e858461403a565b876141bf565b52016124af565b905082813d83116126a3575b6126918183613ecf565b8101031261085b57600191515f61265c565b503d612687565b83805b6126b7575061247b565b5f19016126c4828261403a565b815f52601560205260405f20905f5260405f20908082036126fd575b5050805f52805f60026040822082815582600182015501556126ad565b80548255600180820154908301556002809101549101555f806126e0565b604051633eea63bd60e01b8152600490fd5b50346103ed57806003193601126103ed57600e54600f54808211156128365761275591614084565b60ff60165416600481101561147b576001146127f65761277781600c546141ef565b905b8015806127ec57612710908184029184830514841517156127d8576127c457600160ff1b81145f1983141661218c5760609350055b601e549060405192835260208301526040820152f35b634e487b7160e01b84526012600452602484fd5b634e487b7160e01b85526011600452602485fd5b50506060916127ae565b60175482526015602052604082205481600c548281115f1461282a576128249261281f91614084565b6141ef565b90612779565b506128249150836141ef565b505080612755565b50346103ed57806003193601126103ed576040515f9060235461286081613e69565b808352602091600190818116908115611d4f575060011461288b576114db84611d0681880382613ecf565b91935060235f52835f20915f925b8284106128b557505050816114db93611d069282010193611cf6565b8054858501870152928501928101612899565b50346103ed57806003193601126103ed576003546001600160a01b031633036104595760165460ff8116600481101561147b57600181146121bd5760031461293e5760ff19166003176016556001547f707ed636b82bf4fd0c25a45407821aa155c2e7b334e0556f5f98fe8b6e0648c68280a280f35b604051630a9105a360e31b8152600490fd5b50346103ed5761295f36613f39565b909160ff601654166004811015612a39576109a557600254336001600160a01b0391821614159081612a2a575b5061045957811561086c5780158015612a1e575b61086c576007546103e8808202908282041482151715612a0a576127109004821061086c576121707f2a61c04320dec6de3f28a98eb32780c627d034220aad5ac75e2fbbf47ed478d693836008558560095580600a5542600b5560015495604051948594856141d3565b634e487b7160e01b86526011600452602486fd5b506007548110156129a0565b9050600354163314155f61298c565b634e487b7160e01b85526021600452602485fd5b50346103ed57806003193601126103ed576020603654604051908152f35b50346103ed57806003193601126103ed576003546001600160a01b031633036104595760165460ff8116600481101561147b5760030361086c5760ff19166016556001547f7ab9ebf5b8e1041c7b25291b5c510cd362590128aa30c27aa37693f77a8a52468280a280f35b50346103ed57806003193601126103ed576020603854604051908152f35b50346103ed57806003193601126103ed576020601354604051908152f35b50346103ed576101803660031901126103ed576024356001600160a01b038116900361085b576044356001600160a01b038116810361085b576064356001600160a01b038116810361085b57608435916001600160a01b038316830361085b576001600160401b0360e43511610e625736602360e435011215610e6257612b9e60e43560040135613f95565b92612bac6040519485613ecf565b60e4356004810135808652602086019491602460059290921b0101843682116136ee57602460e43501905b8282106136de5750506001600160401b03610144351190506136da5761010061014435360360031901126136da57604051926001600160401b036101008501908111908511176136c65761010084016040526001600160401b036004610144350135116136c257612c5636600461014435810135610144350101613fac565b84526001600160401b036101443560240135116136c257612c833661014435602481013501600401613fac565b60208501526001600160401b036101443560440135116136c257612cb33661014435604481013501600401613fac565b60408501526001600160401b036101443560640135116136c257612ce33661014435606481013501600401613fac565b606085015261014435608401356001600160a01b038116810361085b5760808501526101443560a481013560a086015260c481013560c086015260e4013560e0850152610164356001600160a01b038116900361085b576005549060ff8260a01c166136b15760a4351561086c5760c4351561086c57600287511061086c576101f4610104351161086c5760048035600155600280546001600160a01b03199081166024356001600160a01b0390811691909117909255600380548216948316949094179093556001600160a81b031990931693831693909317600160a01b17600555825416921691909117905560a43560065560c435600c819055600d5561010435601c5561012435601d556016805460ff1916905580518051906001600160401b038211613418578190612e1a602154613e69565b601f8111613659575b50602090601f83116001146135e55787926135da575b50508160011b915f199060031b1c1916176021555b60208101518051906001600160401b038211613418578190612e71602254613e69565b601f8111613582575b50602090601f831160011461350e578792613503575b50508160011b915f199060031b1c1916176022555b60408101518051906001600160401b038211613418578190612ec8602354613e69565b601f81116134ab575b50602090601f831160011461343757879261342c575b50508160011b915f199060031b1c1916176023555b60608101518051906001600160401b03821161341857612f1d602454613e69565b601f81116133cc575b50602090601f83116001146133575760e093929187918361334c575b50508160011b915f199060031b1c1916176024555b60808101516001600160a01b03168061334757506024355b602580546001600160a01b03199081166001600160a01b039384161790915560a083015160265560c0830151602755929091015160285542602955602e80549092166101643590911617905581515f1981810192909183116127d857826010558351156133335751908160115583519081019081116127d8578261244d6130249493612ffe61300894886141bf565b5180601255614084565b6013556006548060075560085542600b5560c435600e55614e1b565b6040519063126a748560e11b8252600482015260208160248173__$4aa18cb2ebd4829f68603673fae2e2f31a$__5af4908115610de4578391613301575b50601455613075600c5460105490614156565b825b6010548110156130e65761308b81846141bf565b516001820182116127d8579060019160026130a8848401876141bf565b51604051926130b684613eb4565b86845260208401908152604084019182528489526015602052604089209351845551858401555191015501613077565b83826001810180821161328857670de0b6b3a7640000908181029080820483149015171561218c5760065461311a91614156565b9060105463ffffffff92838216916040519163b581fbe360e01b8352600483015260208260248173__$4aa18cb2ebd4829f68603673fae2e2f31a$__5af49182156132f65787926132c2575b5082156125e857603a5490858260401c166132b057637fffffff84116125d657603c92909255600160201b600160601b03191660409190911b63ffffffff60401b1617906131b39061458e565b91838260201c169284841461329c57600161321094019263ffffffff60201b8460201b1617603a558483165f52603960205260405f2091600183019060018060c01b031982541617905584600181603c5493160116029055614e38565b603a54165f5260405f2054603b55600c546103e8810180911161328857811161120d576020556006546010546040516024356001600160a01b031692600435927f8dfadba5829db37a40e1dab1a739f8294a538ade264a5fbcc2745e229ad75a39929182916132829160c43584613f53565b0390a380f35b634e487b7160e01b83526011600452602483fd5b634e487b7160e01b5f52601160045260245ffd5b60405163118a8e6360e01b8152600490fd5b9091506020813d6020116132ee575b816132de60209383613ecf565b8101031261085b57519087613166565b3d91506132d1565b6040513d89823e3d90fd5b90506020813d60201161332b575b8161331c60209383613ecf565b8101031261085b57515f613062565b3d915061330f565b634e487b7160e01b5f52603260045260245ffd5b612f6f565b015190505f80612f42565b602487525f80516020615fb78339815191529190875b601f19851681106133b4575091839160019360e09695601f1981161061339c575b505050811b01602455612f57565b01515f1960f88460031b161c191690555f808061338e565b9192602060018192868501518155019401920161336d565b602487525f80516020615fb7833981519152601f840160051c810160208510613411575b601f830160051c82018110613406575050612f26565b8881556001016133f0565b50806133f0565b634e487b7160e01b86526041600452602486fd5b015190505f80612ee7565b602388528793505f80516020615f5783398151915291905b601f1984168510613490576001945083601f19811610613478575b505050811b01602355612efc565b01515f1960f88460031b161c191690555f808061346a565b8181015183556020948501946001909301929091019061344f565b602388529091505f80516020615f57833981519152601f840160051c8101602085106134fc575b90849392915b601f830160051c820181106134ee575050612ed1565b8981558594506001016134d8565b50806134d2565b015190505f80612e90565b602288528793505f80516020615f1783398151915291905b601f1984168510613567576001945083601f1981161061354f575b505050811b01602255612ea5565b01515f1960f88460031b161c191690555f8080613541565b81810151835560209485019460019093019290910190613526565b602288529091505f80516020615f17833981519152601f840160051c8101602085106135d3575b90849392915b601f830160051c820181106135c5575050612e7a565b8981558594506001016135af565b50806135a9565b015190505f80612e39565b602188528793505f80516020615f3783398151915291905b601f198416851061363e576001945083601f19811610613626575b505050811b01602155612e4e565b01515f1960f88460031b161c191690555f8080613618565b818101518355602094850194600190930192909101906135fd565b602188529091505f80516020615f37833981519152601f840160051c8101602085106136aa575b90849392915b601f830160051c8201811061369c575050612e23565b898155859450600101613686565b5080613680565b60405162dc149f60e41b8152600490fd5b8680fd5b634e487b7160e01b5f52604160045260245ffd5b8580fd5b8135815260209182019101612bd7565b8780fd5b50346103ed57806003193601126103ed5760ff6016541660048110156109b7576109a55761371e614c50565b80f35b50346103ed57806003193601126103ed576020602754604051908152f35b50346103ed57806003193601126103ed576020601d54604051908152f35b50346103ed57806003193601126103ed576020601754604051908152f35b50346103ed57806003193601126103ed576020600b54604051908152f35b50346103ed57806003193601126103ed57601b5460405160089190911c6001600160a01b03168152602090f35b50346103ed57806003193601126103ed5761371e614b2d565b503461085b576137ee36613f69565b906137f7614ab6565b60ff6016541660048110156109b7576001036109a557601754810361099357811561086c57805f526020906015825260405f2054831161093457613839614ad7565b6138f5575b83526015815260408320613853838254614084565b905561386182600c54614084565b600c5560055460405163a9059cbb60e01b815290829082906001600160a01b031681878161389389336004840161416e565b03925af18015610c23576138d8575b507f5380cf6fe903b40c6d5a9e0dfbca2f3a423f0a21520b4d5947ed5169bdba946d600154916040519384523393a36001815580f35b6138ee90823d84116107db576107cc8183613ecf565b505f6138a2565b6138fe81614af8565b60018060a01b0360045416604051627eeac760e11b815284818061392686336004840161416e565b0381855afa80156107e25786915f91613994575b501061093457803b1561085b57845f9161396c9383604051809681958294637a94c56560e11b84523360048501614189565b03925af180156107e257613981575b5061383e565b61398c919450613ea1565b5f925f61397b565b809250868092503d83116139be575b6139ad8183613ecf565b8101031261085b578590515f61393a565b503d6139a3565b3461085b576139fb6139d636613f39565b5f93849390928492916139e991906144d1565b93909161271061065c601c5483614143565b92603b5491613a1363ffffffff8084169083166145b9565b94603054613b38575b85613b19575b611a84613a3191600c5461403a565b906030541515905b83811115613aaf57505050508315928315613a8e575b505083613a68575b6114db915060405193849384613f53565b50620f4240908183029183830414171561329c57613a89836114db92614156565b613a57565b613aa79295506112809061127a61126a600654886147f0565b928480613a4f565b8180613b09575b15613af7575f5b80841115613af057613acf9084614084565b888110613ae6575b50613ae190614160565b613a39565b9750613ae1613ad7565b505f613acf565b805f52601560205260405f2054613abd565b50613b1381614641565b15613ab6565b9550613a31611a84613b2f88888760065461465a565b97915050613a22565b6006548015613c0b576040519063b581fbe360e01b8252670de0b6b3a764000004600482015260208160248173__$4aa18cb2ebd4829f68603673fae2e2f31a$__5af49081156107e2575f91613bd9575b50825b84811115613b9b575050613a1c565b613ba481614641565b15613bb8575b613bb390614160565b613b8c565b9694613bd182613bcb81613bb39461403a565b9761403a565b979050613baa565b90506020813d602011613c03575b81613bf460209383613ecf565b8101031261085b575189613b89565b3d9150613be7565b634e487b7160e01b5f52601260045260245ffd5b3461085b575f36600319011261085b576020601c54604051908152f35b3461085b575f36600319011261085b576004546040516001600160a01b039091168152602090f35b3461085b575f36600319011261085b57602060405160018152f35b3461085b575f36600319011261085b5760ff6016541660405160048210156109b7576020918152f35b3461085b575f36600319011261085b5760206118cd614091565b3461085b575f36600319011261085b576020601e54604051908152f35b3461085b575f36600319011261085b576020611554614047565b3461085b575f36600319011261085b576005546040516001600160a01b039091168152602090f35b3461085b575f36600319011261085b576020601254604051908152f35b3461085b575f36600319011261085b576020602654604051908152f35b3461085b575f36600319011261085b576020600754604051908152f35b3461085b575f36600319011261085b576020601854604051908152f35b3461085b575f36600319011261085b576040515f90602154613db681613e69565b808352602091600190818116908115611d4f5750600114613de1576114db84611d0681880382613ecf565b91935060215f52835f20915f925b828410613e0b57505050816114db93611d069282010193611cf6565b8054858501870152928501928101613def565b3461085b575f36600319011261085b576025546040516001600160a01b039091168152602090f35b3461085b575f36600319011261085b576002546001600160a01b03168152602090f35b90600182811c92168015613e97575b6020831014613e8357565b634e487b7160e01b5f52602260045260245ffd5b91607f1691613e78565b6001600160401b0381116136c657604052565b606081019081106001600160401b038211176136c657604052565b601f909101601f19168101906001600160401b038211908210176136c657604052565b602080825282518183018190529093925f5b828110613f2557505060409293505f838284010152601f8019910116010190565b818101860151848201604001528501613f04565b606090600319011261085b57600435906024359060443590565b6040919493926060820195825260208201520152565b604090600319011261085b576004359060243590565b600435906001600160a01b038216820361085b57565b6001600160401b0381116136c65760051b60200190565b81601f8201121561085b578035906001600160401b0382116136c65760405192613fe0601f8401601f191660200185613ecf565b8284526020838301011161085b57815f926020809301838601378301015290565b3461085b575f36600319011261085b5760206040516103e88152f35b906103e8820180921161329c57565b906001820180921161329c57565b9190820180921161329c57565b61404f6144b9565b1561407257600954421061407257600b54610708810180911161329c5742101590565b5f90565b5f1981019190821161329c57565b9190820391821161329c57565b6005546040516370a0823160e01b815230600482015290602090829060249082906001600160a01b03165afa9081156107e2575f916140f4575b506140da60205461127a614265565b808211156140ee576140eb91614084565b90565b50505f90565b90506020813d60201161411e575b8161410f60209383613ecf565b8101031261085b57515f6140cb565b3d9150614102565b90670de0b6b3a76400009182810292818404149015171561329c57565b8181029291811591840414171561329c57565b8115613c0b570490565b5f19811461329c5760010190565b6001600160a01b039091168152602081019190915260400190565b604091949392606082019560018060a01b0316825260208201520152565b9081602091031261085b5751801515810361085b5790565b80518210156133335760209160051b010190565b9094939260609260808301968352602083015260408201520152565b81810392915f13801582851316918412161761329c57565b8115613c0b570690565b9061421b82613f95565b6142286040519182613ecf565b8281528092614239601f1991613f95565b0190602036910137565b6001600160a01b03918216815291166020820152604081019190915260600190565b6030541561431757614278602f54614e1b565b6040519063126a748560e11b8252600482015260208160248173__$4aa18cb2ebd4829f68603673fae2e2f31a$__5af49081156107e2575f916142e5575b505b6006548060011b908082046002149015171561329c57670de0b6b3a7640000916142e191614143565b0490565b90506020813d60201161430f575b8161430060209383613ecf565b8101031261085b57515f6142b6565b3d91506142f3565b6014546142b8565b906010548210156109935780156140ee57815f52602060158152604092835f205483116144a857614377614351614eab565b93614367603b5461059663ffffffff8616615594565b925f5260158452855f2054614084565b916001830180931161329c57670de0b6b3a7640000928381029080820485149015171561329c576006546143aa91614156565b9173__$4aa18cb2ebd4829f68603673fae2e2f31a$__9286519063b581fbe360e01b825260048201528281602481875af490811561449e579083915f9161446d575b506143f7919261403a565b602487518095819363126a748560e11b835260048301525af494851561446457505f94614430575b505061065c6140eb93600654614143565b90809450813d831161445d575b6144478183613ecf565b8101031261085b5761065c6140eb93519361441f565b503d61443d565b513d5f823e3d90fd5b82819392503d8311614497575b6144848183613ecf565b8101031261085b575182906143f76143ec565b503d61447a565b87513d5f823e3d90fd5b8351631e9acf1760e31b8152600490fd5b600a541515806144c65790565b506008546007541190565b9190918281101561456557601354801561086c5760115491828110614565576012548511614565578161244d8461450793614084565b935f19810190811161329c576145209261244d91614084565b906037548015159081614547575b5061453557565b60405163417ce9df60e01b8152600490fd5b90506145538484614084565b6001810180911161329c57115f61452e565b60405163561ce9bb60e01b8152600490fd5b63ffffffff91821681529116602082015260400190565b63ffffffff9081165f19019190821161329c57565b63ffffffff918216908216039190821161329c57565b603a5463ffffffff808260401c1680156125fa5781851680838616116146255781111561460357915f670de0b6b3a764000094926145fa6140eb979561458e565b92166039615253565b604051631858477560e01b8152908190614621908760048401614577565b0390fd5b60405163e57a21f760e01b815280614621888860048401614577565b5f52601560205260405f20600160028201549101541090565b80156147de57811580156147d6575b6147c45783156147bc57670de0b6b3a764000093848102908104850361329c578161469391614156565b9173__$4aa18cb2ebd4829f68603673fae2e2f31a$__936040519363b581fbe360e01b855260048501526020938481602481895af49081156107e25782905f9261478a575b506146e66146ec928561488a565b93614084565b918281111561477f576147079261470291614084565b614910565b8481111561477657829060246040518096819363126a748560e11b835260048301525af49182156107e2575f92614744575b506142e19250614143565b90915082813d831161476f575b61475b8183613ecf565b8101031261085b576142e19151905f614739565b503d614751565b50505050505f90565b505050505050505f90565b809250868092503d83116147b5575b6147a38183613ecf565b8101031261085b5751816146e66146d8565b503d614799565b505050505f90565b60405163135d4c6760e11b8152600490fd5b508215614669565b604051631761d4bb60e01b8152600490fd5b9080156147de57670de0b6b3a76400009182810292818404149015171561329c5761481a91614156565b6040519063b581fbe360e01b8252600482015260208160248173__$4aa18cb2ebd4829f68603673fae2e2f31a$__5af49081156107e2575f9161485b575090565b90506020813d602011614882575b8161487660209383613ecf565b8101031261085b575190565b3d9150614869565b90808202905f19818409908280831092039180830392146148ff57670de0b6b3a764000090828211156148ed577faccb18165bd6fe31ae1cf318dc5b51eee0e1ba569b88cd74c1773b91fac10669940990828211900360ee1b910360121c170290565b60405163227bc15360e01b8152600490fd5b5050670de0b6b3a764000091500490565b670de0b6b3a764000091818302915f198482099383808610950394808603951461498b57848311156148ed57829109815f038216809204600280826003021880830282030280830282030280830282030280830282030280830282030280920290030293600183805f03040190848311900302920304170290565b5050906140eb9250614156565b8015613c0b576a0c097ce7bc90715b34b9f160241b0490565b9181811115614aaf5773__$4aa18cb2ebd4829f68603673fae2e2f31a$__60405163126a748560e11b9283825260048201526020938482602481865af49384156107e25785925f95614a7c575b506024906040519485938492835260048301525af49283156107e2575f93614a40575b505091614a3a6142e192670de0b6b3a764000094614084565b90614143565b908094929350813d8311614a75575b614a598183613ecf565b8101031261085b57915190614a3a670de0b6b3a7640000614a21565b503d614a4f565b8381949296503d8311614aa8575b614a948183613ecf565b8101031261085b57602485925194906149fe565b503d614a8a565b5050505f90565b60025f5414614ac55760025f55565b604051633ee5aeb560e01b8152600490fd5b6004546001600160a01b03168015159081614af0575090565b90503b151590565b600154604082901b600160401b600160801b031660809190911b6001600160801b031916176001600160401b03919091161790565b5f805f601054906030541515905b828110614b5a575050506020548110614b52575050565b602055603855565b8180614b9a575b614b9257805f52601560205260405f2054848111614b85575b506001905b01614b3b565b9094509250836001614b7a565b600190614b7f565b50614ba481614641565b15614b61565b5f805f601054603054151591600c54926103e88401809411915b838110614bd8575050505050602055603855565b8180614c40575b614c38575f81815260156020818152604092839020548661329c578810614c2757835f52525f2054868111614c1a575b506001905b01614bc4565b9096509450856001614c0f565b8251630b7db7f360e41b8152600490fd5b600190614c14565b50614c4a81614641565b15614bdf565b614c58614047565b15614e1957614c66426153d0565b906006549042600b55818314614e145782600655601091614c88601054614211565b9173__$4aa18cb2ebd4829f68603673fae2e2f31a$__915f5b8554811015614d8c57603054151580614d7c575b614d6857805f52602090601582526040805f20546001810180911161329c57670de0b6b3a76400009081810291818304149015171561329c5789614cf891614156565b9281519363b581fbe360e01b8552600485015280846024818a5af491821561446457505f91614d39575b5060019250614d3182886141bf565b525b01614ca1565b905082813d8311614d61575b614d4f8183613ecf565b8101031261085b57600191515f614d22565b503d614d45565b805f614d76600193886141bf565b52614d33565b50614d8681614641565b15614cb5565b509150939250603a5463ffffffff8160401c1680156125fa578361251e82614df794614dde614df0957fb08cd2f9025943f3583cc9fd3428041e062b4e93e1f5c05a40d221b5d43835c1995114614e61565b63ffffffff60201b1916603a5561458e565b9190614e38565b603b5560015492614e0f604051928392429184613f53565b0390a2565b915050565b565b670de0b6b3a76400009081810291818304149015171561329c5790565b63ffffffff1663ffffffff19603a541617603a55565b9063ffffffff165f5260205260405f2090565b15614e6857565b60405162461bcd60e51b815260206004820152601b60248201527a084eac6d6cae8a8e4caca7440d8cadccee8d040dad2e6dac2e8c6d602b1b6044820152606490fd5b603b546040519063126a748560e11b8252600482015260208160248173__$4aa18cb2ebd4829f68603673fae2e2f31a$__5af49081156107e2575f91614f02575b506142e1670de0b6b3a764000091600654614143565b90506020813d602011614f2e575b81614f1d60209383613ecf565b8101031261085b57516142e1614eec565b3d9150614f10565b60015460409190911b600160401b600160801b031660809190911b6001600160801b031916176001600160401b039091161790565b6038545f52601560205260405f2054600c54906103e8820180921161329c571161120d57565b80151580615001575b614fa15750565b6020614fd59160018060a01b03806005541690602e54165f60405180968195829463a9059cbb60e01b84526004840161416e565b03925af180156107e257614fe65750565b614ffe9060203d6020116107db576107cc8183613ecf565b50565b50602e546001600160a01b03161515614f9a565b60115461503361502c6013549261127a8486614143565b918261403a565b9060409081519261504384613eb4565b5f8452602093600285820184815285830190848252885f5260158852865f2093518455516001840155519101556006548015613c0b5783519063b581fbe360e01b8252670de0b6b3a7640000046004820152848160248173__$4aa18cb2ebd4829f68603673fae2e2f31a$__5af4908115615196575f91615169575b5063ffffffff80871690603a54908082881c168015615158578084101561513b57915f61511e94926151157fcc66217056e00df89ae1e52fddf7bfd25c679b9bfebc0c5b9a6a9e214f8105279a9998979561458e565b9216603961581d565b615129602f54614160565b602f55600154948351928352820152a3565b8751631858477560e01b8152908190614621908660048401614577565b8751635fba374760e11b8152600490fd5b90508481813d831161518f575b6151808183613ecf565b8101031261085b57515f6150bf565b503d615176565b84513d5f823e3d90fd5b919091816151ac6156ae565b925b6151b85750505050565b6151e590838111156151eb5783905b6151e06151d9611608600654856147f0565b87866156c7565b614084565b806151ae565b806151c7565b63ffffffff6152009116615594565b603b54670de0b6b3a76400009182810292818404149015171561329c576140eb91614156565b90600163ffffffff8093160191821161329c57565b91909163ffffffff8080941691160191821161329c57565b94929190939563ffffffff80861615615360578381168882168082108015615353575b6153455782851610159182615338575b505061531e579086929161529a8688614e4e565b600101546001600160c01b03166001600160c01b03166152b9916157bf565b9485856152c684866145a3565b60011c637fffffff166152d9908561523b565b996152e58b948b614e4e565b6001015460c01c6152f5906157f4565b9561530195918c615253565b9661530b90615226565b9061531596615253565b6140eb9161403a565b949150506140eb9450615332929150614e4e565b54615780565b8616101590505f80615286565b505050505050505050505f90565b5082871683861611615276565b8781949297959398965016948382169086821080156153c3575b6153b6576140eb986153a19786821610156153ae5750935b831610156153a657509161576a565b615780565b90509161576a565b905093615392565b5050505050505050505f90565b50848416858a161161537a565b6153d86144b9565b1561542c5760095480821115615424576153f191614084565b600a54908181101561541c576105966140eb9261244d6007549361541760085486614084565b614143565b505060085490565b505060075490565b5060065490565b80546001600160c01b0319166001600160c01b03909216919091179055565b909291600182019081549463ffffffff808760201c169381851461329c5760016154c095019763ffffffff60201b8960201b169063ffffffff60201b191617905586165f528360205260405f209360018501670de0b6b3a764000060018060c01b031982541617905561576a565b9055565b80546001600160c01b031660c09290921b6001600160c01b031916919091179055565b909391936154f6858284615452565b946155018684614e4e565b9463ffffffff8084169083168114615572575061553c81615534637fffffff61552a87876145a3565b60011c168661523b565b8095876154e7565b94615552939161554c9095615226565b906154e7565b61556461556d949261246b9294615805565b600187016154c4565b809255565b80945081615588929450615590969793506141bf565b5190556141bf565b5190565b603a5463ffffffff808260401c168082851610156155c65792670de0b6b3a7640000925f82936145fa6140eb9761458e565b604051631858477560e01b8152908190614621908660048401614577565b919091816155f06156ae565b925b6155fc5750505050565b61561a90838111156156205783905b6151e06151d9600654846147f0565b806155f2565b8061560b565b919080821015614aaf5773__$4aa18cb2ebd4829f68603673fae2e2f31a$__60405163126a748560e11b9283825260048201526020938482602481865af49384156107e25785925f95614a7c57506024906040519485938492835260048301525af49283156107e2575f93614a4057505091614a3a6142e192670de0b6b3a764000094614084565b6006548060021b908082046004149015171561329c5790565b929190603a549363ffffffff94858160401c1680156125fa57868416808885161161574a578111156155c657662386f26fc1000085108015615738575b61572057614e1995966157175f9261458e565b921660396159f6565b604051624625bd60e81b815260048101869052602490fd5b5068056bc75e2d631000008511615704565b505060405163e57a21f760e01b8152928392614621925060048401614577565b60030154910363ffffffff908116600101160290565b801580156157b7575b6140ee57670de0b6b3a76400008083146157b15781146157ad57906140eb9161488a565b5090565b50905090565b508115615789565b90670de0b6b3a76400008083146157b15781146157ad57811580156157ec575b6140ee576140eb9161488a565b5080156157df565b9063ffffffff808360201c16921690565b60201b63ffffffff60201b1663ffffffff9091161790565b9392909463ffffffff918287169485156159ec5761583b8888614e4e565b97848316858716146159cf578286615853928a615cfb565b61587561586f61586387856145a3565b60011c637fffffff1690565b8661523b565b908160018a019661588f61588a895460c01c90565b6157f4565b9690938b89868a8783168386161161597457501615615954575b908484876158b7959461581d565b6158cf615900985b6158c98886615805565b906154c4565b828716156159435750506158e39088614e4e565b54935b83161561592f5750506158f99085614e4e565b549061403a565b809355615920615917600184015463ffffffff1690565b63ffffffff1690565b14615929575050565b60020155565b61127a925061593d90615226565b8661576a565b61594e92508961576a565b936158e6565b9450906158b791848461596882828a615452565b979293945050506158a9565b925050919293945016156159a8575b84929161599c91878d8a61599688615226565b9161581d565b6158cf615900986158bf565b95509061599c84926159c4878d6159be87615226565b90615452565b979150919250615983565b50505094859055505060018201546159209063ffffffff16615917565b5050505050505050565b95949392909363ffffffff9283851690848416978289108015615cee575b615ce257858816978815615cd557615a2c818c614e4e565b998784168581101580615cc9575b615b3a57505090615a5486848d9c9d989796959489615cfb565b615a6a615a6461586384886145a3565b8361523b565b9360018c0198615a7e61588a8b5460c01c90565b819991968b829b818b1680931115615b0a575b50851611615ab2575b505050505082906158cf615900986158c98886615805565b8a1615615ade575b918694939188615ad4948b615ace89615226565b916159f6565b905f808b81615a9a565b975091615ad49186949388615afc81615af689615226565b8d615452565b9a9294505091939450615aba565b1615615b27575b615b208686868c8b8d896159f6565b8b5f615a91565b9650615b34888784615452565b96615b11565b9396985093509350945014615cb9576001860192615bb281615b71615b65875460018060c01b031690565b6001600160c01b031690565b8a888787615b7f86866157bf565b93670de0b6b3a764000094858714159081615c8c575b50615c77575b5050505050615bab828b54615780565b8a556157bf565b683635c9adc5dea0000081118015615c67575b15615c305750615c0a94615bf09390929091615bea906001600160c01b031686615433565b88615cfb565b80546001600160c01b031916670de0b6b3a7640000179055565b615c1e615917600185015463ffffffff1690565b14615c27575050565b60029054910155565b94506001600160c01b0392505050808311615c5557615c50921690615433565b615c0a565b60405163bf4d83ab60e01b8152600490fd5b5066038d7ea4c680008110615bc5565b615c82949550615cfb565b5f8887878e615b9b565b683635c9adc5dea00000811191508115615ca8575b505f615b95565b66038d7ea4c680009150105f615ca1565b5050615900915083949354615780565b50888716821115615a3a565b5050505050505050505050565b50505050505050505050565b5085841686831611615a14565b9163ffffffff8083169283158015615e0f575b615e0757615d1c9085614e4e565b60018101805491969091906001600160c01b038216670de0b6b3a76400008114615dfc57615d62615d59615d5361586389866145a3565b8861523b565b9360c01c6157f4565b909690958681891615615de9575b1615615dc7575b83615d849183898c615e1c565b615d90615d9893615226565b908589615e1c565b615dbf83615db96158f993615bf0615db38761590099615805565b826154c4565b86614e4e565b549185614e4e565b9450615d8483615de084615dda83615226565b8c615452565b96915050615d77565b9750615df685838c615452565b97615d70565b505050505050505050565b505050505050565b5081861682841614615d0e565b93919063ffffffff8082169384158015615f05575b615efc57615e3f8388614e4e565b956001870193615e58615b65865460018060c01b031690565b615e6287826157bf565b94808416908516119081615ee9575b5080615ec7575b15615ea957615e88935088615cfb565b615c0a91615e98815b8654615780565b85556001600160c01b031690615433565b50506001600160c01b0382119050615c5557615e98615c0a93615e91565b50683635c9adc5dea00000841180615e78575066038d7ea4c680008410615e78565b670de0b6b3a7640000915014155f615e71565b50505050505050565b50670de0b6b3a76400008414615e3156fe61035b26e3e9eee00e0d72fd1ee8ddca6894550dca6916ea2ac6baa90d11e5103a6357012c1a3ae0a17d304c9920310382d968ebcc4b1771f41c6b304205b570d57b2b5166478fd4318d2acc6cc2c704584312bdd8781b32d5d06abda57f42304831c1c7e263bce520cfd33db63fc5ef873980d2fafe9b37cd8ce68b422c2c3b9f7a056ff748b1e0158cf98f8eaf45e18e89c5215ea0fd6e8a2efe8d45da6b727cd332d19b93bcabe3cce7ca0c18a052f57e5fd03b4758a09f30f5ddc4b22ec4a164736f6c6343000818000a61035b26e3e9eee00e0d72fd1ee8ddca6894550dca6916ea2ac6baa90d11e5103a6357012c1a3ae0a17d304c9920310382d968ebcc4b1771f41c6b304205b570d57b2b5166478fd4318d2acc6cc2c704584312bdd8781b32d5d06abda57f4230","linkReferences":{"src/FixedPointMath.sol":{"FixedPointMath":[{"start":1462,"length":20},{"start":1799,"length":20},{"start":5210,"length":20},{"start":10318,"length":20},{"start":11800,"length":20},{"start":13090,"length":20},{"start":16071,"length":20},{"start":16331,"length":20},{"start":18926,"length":20},{"start":20763,"length":20},{"start":21045,"length":20},{"start":21790,"length":20},{"start":22205,"length":20},{"start":22596,"length":20},{"start":23315,"length":20},{"start":23889,"length":20},{"start":24356,"length":20},{"start":25786,"length":20}]}}},"methodIdentifiers":{"ALPHA_EPOCH_LENGTH()":"e0c2218e","CACHE_RESET_INTERVAL()":"c494bd92","MAX_FEE_BPS()":"d55be8c6","MIN_ALPHA_FLOOR_BPS()":"9307ee39","PHANTOM_SHARES()":"217c16e4","SOLVENCY_DUST()":"b70a7598","WAD()":"6a146024","activeBucketCount()":"bdaef623","addLiquidity(uint256)":"51c6590a","alpha()":"db1d0fd5","alphaFinal()":"e0af4fed","alphaInitial()":"09c51406","biddingDeadline()":"0fd388d3","bucketCount()":"c2f5673e","bucketWidth()":"4043a2fb","buckets(uint256)":"9b51fb0d","buyShares(uint256,uint256,uint256)":"7aabf58a","buySharesRange(uint256,uint256,uint256,uint256,uint256)":"a2a244ea","calculateReturnForShares(uint256,uint256)":"868be003","calculateSharesForCost(uint256,uint256)":"64daf9f2","claimRange(uint256,uint256,uint256)":"a890c997","claimWinnings(uint256,uint256)":"286db5c2","configureAlphaDecay(uint256,uint256,uint256)":"4c8011bc","configureExpansion(uint256,uint256)":"51bc0847","creationTime()":"d8270dce","creator()":"02d05d3f","currentMaxBucketId()":"4218bf02","decayDuration()":"ba35736e","decayStartTime()":"c17e608f","description()":"7284e416","emergencyPause()":"51858e27","emergencyUnpause()":"4a4e3bd5","factory()":"c45a0155","feeBps()":"24a9d853","feesCollectedLP()":"147d1862","feesCollectedProtocol()":"f91b73c3","getBucket(uint256)":"65fe45ed","getCachedSumExp()":"b7ccbc29","getLPProfitability()":"51a2f80a","getQuoteForRange(uint256,uint256,uint256)":"25c07832","getRequiredReserves()":"67749581","getSafetyBuffer()":"647365d5","getWithdrawableSurplus()":"1b832499","initialBucketOffset()":"b298523b","initialDeposit()":"e037f889","initialize(uint256,address,address,address,address,uint256,uint256,uint256[],uint256,uint256,(string,string,string,string,address,uint256,uint256,uint256),address)":"3e9e1ead","isAlphaDecayConfigured()":"88801cb0","isSumExpDirty()":"bff99410","lastAlphaSyncTime()":"31a36c38","lpFeesAccrued()":"4bf33ab8","lpVault()":"2f867367","lpWithdrawn()":"77b8c9a5","marketId()":"6ed71ede","marketMax()":"100686b7","marketMin()":"5c038416","maxBucketCount()":"67041509","maxLiability()":"6db49f60","maxRangeWidth()":"8f923177","minBetSize()":"61d5f225","name()":"06fdde03","needsAlphaSync()":"13856b79","poolBalance()":"96365d44","positionNFT()":"23228ecb","protocolFeeBps()":"35659fb8","protocolFeeCollector()":"850a1501","refreshMaxLiability()":"289f1185","resolutionCriteria()":"519a1d84","resolutionTime()":"f3e41e90","resolutionValue()":"08feb1ab","resolveMarket(uint256)":"6399d03d","resolver()":"04f3bcec","scheduledResolutionTime()":"38a3f3c5","sellShares(uint256,uint256,uint256)":"d67c6872","sellSharesRange(uint256,uint256,uint256,uint256)":"880fc268","setLPVault(address)":"6c8d9e37","setMaxRangeWidth(uint256)":"f0b51790","status()":"200d2ed2","syncAlpha()":"3b5d9d08","totalDeposited()":"ff50abdc","totalSurplusWithdrawn()":"893f47b4","totalVolume()":"5f81a57c","usdcToken()":"11eac855","valueUnit()":"5fd39d2f","winningBucket()":"34d492aa","withdrawLP()":"a1a64a1e","withdrawSurplus(address,uint256)":"b4845fff"},"id":85}