{"abi":[{"type":"constructor","inputs":[{"name":"p","type":"tuple","internalType":"struct LMSRMarket.InitParams","components":[{"name":"marketId","type":"uint256","internalType":"uint256"},{"name":"creator","type":"address","internalType":"address"},{"name":"factory","type":"address","internalType":"address"},{"name":"usdcToken","type":"address","internalType":"address"},{"name":"positionNFT","type":"address","internalType":"address"},{"name":"alpha","type":"uint256","internalType":"uint256"},{"name":"poolBalance","type":"uint256","internalType":"uint256"},{"name":"bucketWidth","type":"uint256","internalType":"uint256"},{"name":"maxBucketId","type":"uint256","internalType":"uint256"},{"name":"seededBucketIds","type":"uint256[]","internalType":"uint256[]"},{"name":"seededShares","type":"uint256[]","internalType":"uint256[]"},{"name":"feeBps","type":"uint256","internalType":"uint256"},{"name":"protocolFeeBps","type":"uint256","internalType":"uint256"},{"name":"metadata","type":"tuple","internalType":"struct LMSRMarket.MarketMetadata","components":[{"name":"name","type":"string","internalType":"string"},{"name":"description","type":"string","internalType":"string"},{"name":"resolutionCriteria","type":"string","internalType":"string"},{"name":"valueUnit","type":"string","internalType":"string"},{"name":"resolver","type":"address","internalType":"address"},{"name":"biddingDeadline","type":"uint256","internalType":"uint256"},{"name":"scheduledResolutionTime","type":"uint256","internalType":"uint256"},{"name":"minBetSize","type":"uint256","internalType":"uint256"}]},{"name":"protocolFeeCollector","type":"address","internalType":"address"}]}],"stateMutability":"nonpayable"},{"type":"function","name":"ALPHA_EPOCH_LENGTH","inputs":[],"outputs":[{"name":"","type":"uint256","internalType":"uint256"}],"stateMutability":"view"},{"type":"function","name":"CACHE_RESET_INTERVAL","inputs":[],"outputs":[{"name":"","type":"uint256","internalType":"uint256"}],"stateMutability":"view"},{"type":"function","name":"MAX_FEE_BPS","inputs":[],"outputs":[{"name":"","type":"uint256","internalType":"uint256"}],"stateMutability":"view"},{"type":"function","name":"MIN_ALPHA_FLOOR_BPS","inputs":[],"outputs":[{"name":"","type":"uint256","internalType":"uint256"}],"stateMutability":"view"},{"type":"function","name":"PHANTOM_SHARES","inputs":[],"outputs":[{"name":"","type":"uint256","internalType":"uint256"}],"stateMutability":"view"},{"type":"function","name":"SOLVENCY_DUST","inputs":[],"outputs":[{"name":"","type":"uint256","internalType":"uint256"}],"stateMutability":"view"},{"type":"function","name":"WAD","inputs":[],"outputs":[{"name":"","type":"uint256","internalType":"uint256"}],"stateMutability":"view"},{"type":"function","name":"activeBucketCount","inputs":[],"outputs":[{"name":"","type":"uint256","internalType":"uint256"}],"stateMutability":"view"},{"type":"function","name":"addLiquidity","inputs":[{"name":"amountUSDC","type":"uint256","internalType":"uint256"}],"outputs":[],"stateMutability":"nonpayable"},{"type":"function","name":"alpha","inputs":[],"outputs":[{"name":"","type":"uint256","internalType":"uint256"}],"stateMutability":"view"},{"type":"function","name":"alphaFinal","inputs":[],"outputs":[{"name":"","type":"uint256","internalType":"uint256"}],"stateMutability":"view"},{"type":"function","name":"alphaInitial","inputs":[],"outputs":[{"name":"","type":"uint256","internalType":"uint256"}],"stateMutability":"view"},{"type":"function","name":"biddingDeadline","inputs":[],"outputs":[{"name":"","type":"uint256","internalType":"uint256"}],"stateMutability":"view"},{"type":"function","name":"bucketCount","inputs":[],"outputs":[{"name":"","type":"uint256","internalType":"uint256"}],"stateMutability":"view"},{"type":"function","name":"bucketWidth","inputs":[],"outputs":[{"name":"","type":"uint256","internalType":"uint256"}],"stateMutability":"view"},{"type":"function","name":"buckets","inputs":[{"name":"","type":"uint256","internalType":"uint256"}],"outputs":[{"name":"shares","type":"uint256","internalType":"uint256"},{"name":"initialShares","type":"uint256","internalType":"uint256"},{"name":"lowerBound","type":"uint256","internalType":"uint256"},{"name":"upperBound","type":"uint256","internalType":"uint256"}],"stateMutability":"view"},{"type":"function","name":"buySharesRange","inputs":[{"name":"rangeLower","type":"uint256","internalType":"uint256"},{"name":"rangeUpper","type":"uint256","internalType":"uint256"},{"name":"amountUSDC","type":"uint256","internalType":"uint256"},{"name":"minSharesOut","type":"uint256","internalType":"uint256"},{"name":"targetShares","type":"uint256","internalType":"uint256"},{"name":"recipient","type":"address","internalType":"address"}],"outputs":[{"name":"shares","type":"uint256","internalType":"uint256"}],"stateMutability":"nonpayable"},{"type":"function","name":"calculateReturnForShares","inputs":[{"name":"bucketId","type":"uint256","internalType":"uint256"},{"name":"sharesToSell","type":"uint256","internalType":"uint256"}],"outputs":[{"name":"returnUSDC","type":"uint256","internalType":"uint256"}],"stateMutability":"view"},{"type":"function","name":"calculateSharesForCost","inputs":[{"name":"bucketId","type":"uint256","internalType":"uint256"},{"name":"costUSDC","type":"uint256","internalType":"uint256"}],"outputs":[{"name":"shares","type":"uint256","internalType":"uint256"}],"stateMutability":"view"},{"type":"function","name":"claim","inputs":[{"name":"tokenId","type":"uint256","internalType":"uint256"},{"name":"recipient","type":"address","internalType":"address"}],"outputs":[{"name":"payoutUSDC","type":"uint256","internalType":"uint256"}],"stateMutability":"nonpayable"},{"type":"function","name":"configureAlphaDecay","inputs":[{"name":"_alphaFinal","type":"uint256","internalType":"uint256"},{"name":"_decayStartTime","type":"uint256","internalType":"uint256"},{"name":"_decayDuration","type":"uint256","internalType":"uint256"}],"outputs":[],"stateMutability":"nonpayable"},{"type":"function","name":"creationTime","inputs":[],"outputs":[{"name":"","type":"uint256","internalType":"uint256"}],"stateMutability":"view"},{"type":"function","name":"creator","inputs":[],"outputs":[{"name":"","type":"address","internalType":"address"}],"stateMutability":"view"},{"type":"function","name":"currentMaxBucketId","inputs":[],"outputs":[{"name":"","type":"uint256","internalType":"uint256"}],"stateMutability":"view"},{"type":"function","name":"decayDuration","inputs":[],"outputs":[{"name":"","type":"uint256","internalType":"uint256"}],"stateMutability":"view"},{"type":"function","name":"decayStartTime","inputs":[],"outputs":[{"name":"","type":"uint256","internalType":"uint256"}],"stateMutability":"view"},{"type":"function","name":"description","inputs":[],"outputs":[{"name":"","type":"string","internalType":"string"}],"stateMutability":"view"},{"type":"function","name":"emergencyPause","inputs":[],"outputs":[],"stateMutability":"nonpayable"},{"type":"function","name":"emergencyUnpause","inputs":[],"outputs":[],"stateMutability":"nonpayable"},{"type":"function","name":"factory","inputs":[],"outputs":[{"name":"","type":"address","internalType":"address"}],"stateMutability":"view"},{"type":"function","name":"feeBps","inputs":[],"outputs":[{"name":"","type":"uint256","internalType":"uint256"}],"stateMutability":"view"},{"type":"function","name":"feesCollectedLP","inputs":[],"outputs":[{"name":"","type":"uint256","internalType":"uint256"}],"stateMutability":"view"},{"type":"function","name":"feesCollectedProtocol","inputs":[],"outputs":[{"name":"","type":"uint256","internalType":"uint256"}],"stateMutability":"view"},{"type":"function","name":"getLPProfitability","inputs":[],"outputs":[{"name":"unrealizedProfit","type":"int256","internalType":"int256"},{"name":"roi","type":"int256","internalType":"int256"},{"name":"feesEarned","type":"uint256","internalType":"uint256"}],"stateMutability":"view"},{"type":"function","name":"getQuoteForRange","inputs":[{"name":"rangeLower","type":"uint256","internalType":"uint256"},{"name":"rangeUpper","type":"uint256","internalType":"uint256"},{"name":"amountUSDC","type":"uint256","internalType":"uint256"}],"outputs":[{"name":"shares","type":"uint256","internalType":"uint256"},{"name":"cost","type":"uint256","internalType":"uint256"},{"name":"odds","type":"uint256","internalType":"uint256"}],"stateMutability":"view"},{"type":"function","name":"getRequiredReserves","inputs":[],"outputs":[{"name":"","type":"uint256","internalType":"uint256"}],"stateMutability":"view"},{"type":"function","name":"getSafetyBuffer","inputs":[],"outputs":[{"name":"","type":"uint256","internalType":"uint256"}],"stateMutability":"view"},{"type":"function","name":"getWithdrawableSurplus","inputs":[],"outputs":[{"name":"","type":"uint256","internalType":"uint256"}],"stateMutability":"view"},{"type":"function","name":"initialBucketOffset","inputs":[],"outputs":[{"name":"","type":"uint256","internalType":"uint256"}],"stateMutability":"view"},{"type":"function","name":"initialDeposit","inputs":[],"outputs":[{"name":"","type":"uint256","internalType":"uint256"}],"stateMutability":"view"},{"type":"function","name":"initialize","inputs":[{"name":"p","type":"tuple","internalType":"struct LMSRMarket.InitParams","components":[{"name":"marketId","type":"uint256","internalType":"uint256"},{"name":"creator","type":"address","internalType":"address"},{"name":"factory","type":"address","internalType":"address"},{"name":"usdcToken","type":"address","internalType":"address"},{"name":"positionNFT","type":"address","internalType":"address"},{"name":"alpha","type":"uint256","internalType":"uint256"},{"name":"poolBalance","type":"uint256","internalType":"uint256"},{"name":"bucketWidth","type":"uint256","internalType":"uint256"},{"name":"maxBucketId","type":"uint256","internalType":"uint256"},{"name":"seededBucketIds","type":"uint256[]","internalType":"uint256[]"},{"name":"seededShares","type":"uint256[]","internalType":"uint256[]"},{"name":"feeBps","type":"uint256","internalType":"uint256"},{"name":"protocolFeeBps","type":"uint256","internalType":"uint256"},{"name":"metadata","type":"tuple","internalType":"struct LMSRMarket.MarketMetadata","components":[{"name":"name","type":"string","internalType":"string"},{"name":"description","type":"string","internalType":"string"},{"name":"resolutionCriteria","type":"string","internalType":"string"},{"name":"valueUnit","type":"string","internalType":"string"},{"name":"resolver","type":"address","internalType":"address"},{"name":"biddingDeadline","type":"uint256","internalType":"uint256"},{"name":"scheduledResolutionTime","type":"uint256","internalType":"uint256"},{"name":"minBetSize","type":"uint256","internalType":"uint256"}]},{"name":"protocolFeeCollector","type":"address","internalType":"address"}]}],"outputs":[],"stateMutability":"nonpayable"},{"type":"function","name":"lastAlphaSyncTime","inputs":[],"outputs":[{"name":"","type":"uint256","internalType":"uint256"}],"stateMutability":"view"},{"type":"function","name":"lpFeesAccrued","inputs":[],"outputs":[{"name":"","type":"uint256","internalType":"uint256"}],"stateMutability":"view"},{"type":"function","name":"lpVault","inputs":[],"outputs":[{"name":"","type":"address","internalType":"address"}],"stateMutability":"view"},{"type":"function","name":"lpWithdrawn","inputs":[],"outputs":[{"name":"","type":"bool","internalType":"bool"}],"stateMutability":"view"},{"type":"function","name":"marketId","inputs":[],"outputs":[{"name":"","type":"uint256","internalType":"uint256"}],"stateMutability":"view"},{"type":"function","name":"marketMin","inputs":[],"outputs":[{"name":"","type":"uint256","internalType":"uint256"}],"stateMutability":"view"},{"type":"function","name":"maxBucketCount","inputs":[],"outputs":[{"name":"","type":"uint256","internalType":"uint256"}],"stateMutability":"view"},{"type":"function","name":"maxBucketId","inputs":[],"outputs":[{"name":"","type":"uint256","internalType":"uint256"}],"stateMutability":"view"},{"type":"function","name":"maxLiability","inputs":[],"outputs":[{"name":"","type":"uint256","internalType":"uint256"}],"stateMutability":"view"},{"type":"function","name":"maxRangeWidth","inputs":[],"outputs":[{"name":"","type":"uint256","internalType":"uint256"}],"stateMutability":"view"},{"type":"function","name":"minBetSize","inputs":[],"outputs":[{"name":"","type":"uint256","internalType":"uint256"}],"stateMutability":"view"},{"type":"function","name":"name","inputs":[],"outputs":[{"name":"","type":"string","internalType":"string"}],"stateMutability":"view"},{"type":"function","name":"poolBalance","inputs":[],"outputs":[{"name":"","type":"uint256","internalType":"uint256"}],"stateMutability":"view"},{"type":"function","name":"positionNFT","inputs":[],"outputs":[{"name":"","type":"address","internalType":"address"}],"stateMutability":"view"},{"type":"function","name":"protocolFeeBps","inputs":[],"outputs":[{"name":"","type":"uint256","internalType":"uint256"}],"stateMutability":"view"},{"type":"function","name":"protocolFeeCollector","inputs":[],"outputs":[{"name":"","type":"address","internalType":"address"}],"stateMutability":"view"},{"type":"function","name":"resolutionCriteria","inputs":[],"outputs":[{"name":"","type":"string","internalType":"string"}],"stateMutability":"view"},{"type":"function","name":"resolutionTime","inputs":[],"outputs":[{"name":"","type":"uint256","internalType":"uint256"}],"stateMutability":"view"},{"type":"function","name":"resolutionValue","inputs":[],"outputs":[{"name":"","type":"uint256","internalType":"uint256"}],"stateMutability":"view"},{"type":"function","name":"resolveMarket","inputs":[{"name":"_resolutionValue","type":"uint256","internalType":"uint256"}],"outputs":[],"stateMutability":"nonpayable"},{"type":"function","name":"resolver","inputs":[],"outputs":[{"name":"","type":"address","internalType":"address"}],"stateMutability":"view"},{"type":"function","name":"router","inputs":[],"outputs":[{"name":"","type":"address","internalType":"address"}],"stateMutability":"view"},{"type":"function","name":"scheduledResolutionTime","inputs":[],"outputs":[{"name":"","type":"uint256","internalType":"uint256"}],"stateMutability":"view"},{"type":"function","name":"sellSharesRange","inputs":[{"name":"rangeLower","type":"uint256","internalType":"uint256"},{"name":"rangeUpper","type":"uint256","internalType":"uint256"},{"name":"sharesToSell","type":"uint256","internalType":"uint256"},{"name":"minUsdcOut","type":"uint256","internalType":"uint256"},{"name":"recipient","type":"address","internalType":"address"}],"outputs":[{"name":"payoutUSDC","type":"uint256","internalType":"uint256"}],"stateMutability":"nonpayable"},{"type":"function","name":"setFees","inputs":[{"name":"_feeBps","type":"uint256","internalType":"uint256"},{"name":"_protocolFeeBps","type":"uint256","internalType":"uint256"}],"outputs":[],"stateMutability":"nonpayable"},{"type":"function","name":"setLPVault","inputs":[{"name":"_lpVault","type":"address","internalType":"address"}],"outputs":[],"stateMutability":"nonpayable"},{"type":"function","name":"setMaxRangeWidth","inputs":[{"name":"_maxRangeWidth","type":"uint256","internalType":"uint256"}],"outputs":[],"stateMutability":"nonpayable"},{"type":"function","name":"setRouter","inputs":[{"name":"_router","type":"address","internalType":"address"}],"outputs":[],"stateMutability":"nonpayable"},{"type":"function","name":"status","inputs":[],"outputs":[{"name":"","type":"uint8","internalType":"enum LMSRMarket.MarketStatus"}],"stateMutability":"view"},{"type":"function","name":"syncAlpha","inputs":[],"outputs":[],"stateMutability":"nonpayable"},{"type":"function","name":"totalDeposited","inputs":[],"outputs":[{"name":"","type":"uint256","internalType":"uint256"}],"stateMutability":"view"},{"type":"function","name":"totalSurplusWithdrawn","inputs":[],"outputs":[{"name":"","type":"uint256","internalType":"uint256"}],"stateMutability":"view"},{"type":"function","name":"totalVolume","inputs":[],"outputs":[{"name":"","type":"uint256","internalType":"uint256"}],"stateMutability":"view"},{"type":"function","name":"usdcToken","inputs":[],"outputs":[{"name":"","type":"address","internalType":"contract IUSDC"}],"stateMutability":"view"},{"type":"function","name":"valueUnit","inputs":[],"outputs":[{"name":"","type":"string","internalType":"string"}],"stateMutability":"view"},{"type":"function","name":"winningBucket","inputs":[],"outputs":[{"name":"","type":"uint256","internalType":"uint256"}],"stateMutability":"view"},{"type":"function","name":"withdrawLP","inputs":[],"outputs":[],"stateMutability":"nonpayable"},{"type":"function","name":"withdrawSurplus","inputs":[{"name":"recipient","type":"address","internalType":"address"},{"name":"amountUSDC","type":"uint256","internalType":"uint256"}],"outputs":[{"name":"withdrawnUSDC","type":"uint256","internalType":"uint256"}],"stateMutability":"nonpayable"},{"type":"event","name":"AlphaDecayConfigured","inputs":[{"name":"marketId","type":"uint256","indexed":true,"internalType":"uint256"},{"name":"alphaInitial","type":"uint256","indexed":false,"internalType":"uint256"},{"name":"alphaFinal","type":"uint256","indexed":false,"internalType":"uint256"},{"name":"decayStartTime","type":"uint256","indexed":false,"internalType":"uint256"},{"name":"decayDuration","type":"uint256","indexed":false,"internalType":"uint256"}],"anonymous":false},{"type":"event","name":"AlphaSynced","inputs":[{"name":"marketId","type":"uint256","indexed":true,"internalType":"uint256"},{"name":"oldAlpha","type":"uint256","indexed":false,"internalType":"uint256"},{"name":"newAlpha","type":"uint256","indexed":false,"internalType":"uint256"},{"name":"syncedAt","type":"uint256","indexed":false,"internalType":"uint256"}],"anonymous":false},{"type":"event","name":"BucketActivated","inputs":[{"name":"marketId","type":"uint256","indexed":true,"internalType":"uint256"},{"name":"bucketId","type":"uint256","indexed":true,"internalType":"uint256"},{"name":"lowerBound","type":"uint256","indexed":false,"internalType":"uint256"},{"name":"upperBound","type":"uint256","indexed":false,"internalType":"uint256"}],"anonymous":false},{"type":"event","name":"FeesUpdated","inputs":[{"name":"marketId","type":"uint256","indexed":true,"internalType":"uint256"},{"name":"feeBps","type":"uint256","indexed":false,"internalType":"uint256"},{"name":"protocolFeeBps","type":"uint256","indexed":false,"internalType":"uint256"}],"anonymous":false},{"type":"event","name":"LPVaultSet","inputs":[{"name":"marketId","type":"uint256","indexed":true,"internalType":"uint256"},{"name":"vault","type":"address","indexed":true,"internalType":"address"}],"anonymous":false},{"type":"event","name":"LPWithdrawal","inputs":[{"name":"marketId","type":"uint256","indexed":true,"internalType":"uint256"},{"name":"creator","type":"address","indexed":true,"internalType":"address"},{"name":"amount","type":"uint256","indexed":false,"internalType":"uint256"},{"name":"profit","type":"int256","indexed":false,"internalType":"int256"}],"anonymous":false},{"type":"event","name":"LiquidityAdded","inputs":[{"name":"marketId","type":"uint256","indexed":true,"internalType":"uint256"},{"name":"provider","type":"address","indexed":true,"internalType":"address"},{"name":"amountUSDC","type":"uint256","indexed":false,"internalType":"uint256"}],"anonymous":false},{"type":"event","name":"MarketCreated","inputs":[{"name":"marketId","type":"uint256","indexed":true,"internalType":"uint256"},{"name":"creator","type":"address","indexed":true,"internalType":"address"},{"name":"poolBalance","type":"uint256","indexed":false,"internalType":"uint256"},{"name":"alpha","type":"uint256","indexed":false,"internalType":"uint256"},{"name":"bucketCount","type":"uint256","indexed":false,"internalType":"uint256"}],"anonymous":false},{"type":"event","name":"MarketEmergencyPaused","inputs":[{"name":"marketId","type":"uint256","indexed":true,"internalType":"uint256"}],"anonymous":false},{"type":"event","name":"MarketEmergencyUnpaused","inputs":[{"name":"marketId","type":"uint256","indexed":true,"internalType":"uint256"}],"anonymous":false},{"type":"event","name":"MarketResolved","inputs":[{"name":"marketId","type":"uint256","indexed":true,"internalType":"uint256"},{"name":"resolutionValue","type":"uint256","indexed":false,"internalType":"uint256"},{"name":"winningBucket","type":"uint256","indexed":false,"internalType":"uint256"},{"name":"resolutionTime","type":"uint256","indexed":false,"internalType":"uint256"}],"anonymous":false},{"type":"event","name":"MaxRangeWidthUpdated","inputs":[{"name":"marketId","type":"uint256","indexed":true,"internalType":"uint256"},{"name":"maxRangeWidth","type":"uint256","indexed":false,"internalType":"uint256"}],"anonymous":false},{"type":"event","name":"RouterUpdated","inputs":[{"name":"marketId","type":"uint256","indexed":true,"internalType":"uint256"},{"name":"router","type":"address","indexed":true,"internalType":"address"}],"anonymous":false},{"type":"event","name":"SurplusWithdrawn","inputs":[{"name":"marketId","type":"uint256","indexed":true,"internalType":"uint256"},{"name":"caller","type":"address","indexed":true,"internalType":"address"},{"name":"recipient","type":"address","indexed":true,"internalType":"address"},{"name":"amountUSDC","type":"uint256","indexed":false,"internalType":"uint256"}],"anonymous":false},{"type":"error","name":"AddressEmptyCode","inputs":[{"name":"target","type":"address","internalType":"address"}]},{"type":"error","name":"AddressInsufficientBalance","inputs":[{"name":"account","type":"address","internalType":"address"}]},{"type":"error","name":"AlreadyInitialized","inputs":[]},{"type":"error","name":"BetTooSmall","inputs":[]},{"type":"error","name":"BiddingClosed","inputs":[]},{"type":"error","name":"ExpDomainOverflow","inputs":[]},{"type":"error","name":"FactorOverflow","inputs":[]},{"type":"error","name":"FailedInnerCall","inputs":[]},{"type":"error","name":"IndexOutOfBounds","inputs":[{"name":"index","type":"uint32","internalType":"uint32"},{"name":"size","type":"uint32","internalType":"uint32"}]},{"type":"error","name":"InsufficientBalance","inputs":[]},{"type":"error","name":"InvalidBucket","inputs":[]},{"type":"error","name":"InvalidFactor","inputs":[{"name":"factor","type":"uint256","internalType":"uint256"}]},{"type":"error","name":"InvalidParameters","inputs":[]},{"type":"error","name":"InvalidRange","inputs":[{"name":"lo","type":"uint32","internalType":"uint32"},{"name":"hi","type":"uint32","internalType":"uint32"}]},{"type":"error","name":"InvalidRange","inputs":[]},{"type":"error","name":"InvalidResolutionValue","inputs":[]},{"type":"error","name":"MarketAlreadyResolved","inputs":[]},{"type":"error","name":"MarketNotActive","inputs":[]},{"type":"error","name":"MarketPaused","inputs":[]},{"type":"error","name":"MathOverflowedMulDiv","inputs":[]},{"type":"error","name":"NoSurplusAvailable","inputs":[]},{"type":"error","name":"RangeNotWinner","inputs":[]},{"type":"error","name":"RangeTooWide","inputs":[]},{"type":"error","name":"ReentrancyGuardReentrantCall","inputs":[]},{"type":"error","name":"SafeERC20FailedOperation","inputs":[{"name":"token","type":"address","internalType":"address"}]},{"type":"error","name":"SolvencyViolation","inputs":[]},{"type":"error","name":"TreeAlreadyInitialized","inputs":[]},{"type":"error","name":"TreeNotInitialized","inputs":[]},{"type":"error","name":"TreeSizeTooLarge","inputs":[]},{"type":"error","name":"TreeSizeZero","inputs":[]},{"type":"error","name":"Unauthorized","inputs":[]},{"type":"error","name":"ZeroAlpha","inputs":[]},{"type":"error","name":"ZeroSum","inputs":[]}],"bytecode":{"object":"0x6080806040523461086e57616947803803809161001c8285610e3e565b833981019060208183031261086e578051906001600160401b03821161086e5701906101e08282031261086e576040516101e081016001600160401b03811182821017610b61576040528251815261007660208401610e61565b916020820192835261008a60408501610e61565b906040830191825261009e60608601610e61565b606084019081526100b160808701610e61565b906080850191825260a08701519360a0860194855260c08801519760c0870198895260e08101519460e0880195865261010082015193610100890194855261012083015160018060401b03811161086e578261010e918501610e8c565b6101208a019081526101408401519098906001600160401b03811161086e5783610139918601610e8c565b966101408b01978852610160850151926101608c01938452610180860151946101808d019586526101a087015160018060401b03811161086e5787016101008183031261086e576040519761010089016001600160401b0381118a821017610b615760405281516001600160401b03811161086e57836101ba918401610ee9565b895260208201516001600160401b03811161086e57836101db918401610ee9565b60208a015260408201516001600160401b03811161086e57836101ff918401610ee9565b60408a015260608201516001600160401b03811161086e578f60e0848c606061023361026c996101a0976101c09a01610ee9565b9101528c6080610244818401610e61565b9101528c60a0808301519101528c60c080830151910152015160e08c01520198895201610e61565b966101c08d0197885260015f5560ff60055460a01c16610e30576005805460ff60a01b1916600160a01b1790558351156108f7578e51156108f7578a51156108f75760028c5151106108f7578b51518a5151036108f7576101f48551116108f7578c516001558d51600280546001600160a01b03199081166001600160a01b0393841617909155915160038054841691831691909117905591516005805483169184169190911790559151600480549093169116179055516006558a51600c819055600d5551601c5551601d556016805460ff191690558051518051906001600160401b038211610b615760215490600182811c92168015610e26575b6020831014610b435781601f849311610db8575b50602090601f8311600114610d52575f92610d47575b50508160011b915f199060031b1c1916176021555b8051602001518051906001600160401b038211610b615760225490600182811c92168015610d3d575b6020831014610b435781601f849311610ccf575b50602090601f8311600114610c69575f92610c5e575b50508160011b915f199060031b1c1916176022555b8051604001518051906001600160401b038211610b615760235490600182811c92168015610c54575b6020831014610b435781601f849311610be6575b50602090601f8311600114610b80575f92610b75575b50508160011b915f199060031b1c1916176023555b8051606001518051906001600160401b038211610b6157602454600181811c91168015610b57575b6020821014610b4357601f8111610ae0575b50602090601f8311600114610a785760e09392915f9183610a6d575b50508160011b915f199060031b1c1916176024555b5160808101516001600160a01b031680610a68575088516001600160a01b03165b602580546001600160a01b039283166001600160a01b03199182161790915560a083015160265560c08301516027559290910151602855426029559151602e805491909316911617905582516013558051601281905561056390610f3e565b6010555f60115560065460075560065460085542600b558651600e5560105463ffffffff811680156108d95763ffffffff603a5460401c16610a5957637fffffff81116108ca57603a80545f603c55600160201b600160601b03191660409390931b6bffffffff000000000000000016929092179091556105e390610fa5565b63ffffffff603a5460201c169063ffffffff821461083057603a805463ffffffff60201b19166001938401602081811b67ffffffff000000001692909217835563ffffffff9081165f81815260399093526040832080870180546001600160c01b031916670de0b6b3a7640000179055603c549583169096019091169093028455815463ffffffff191690921790559054603b558451516010549495919493909285929161069086610e75565b9561069e6040519788610e3e565b8087526106ad601f1991610e75565b0136602088013773__$4aa18cb2ebd4829f68603673fae2e2f31a$__975f5b8681106109065750505050508751036108f7576010549263ffffffff84169363ffffffff603a5460401c16156108e85784156108d957637fffffff85116108ca578484510361088557603a80545f603c55600160201b600160601b03191660409290921b6bffffffff0000000000000000169190911790556020936107859363ffffffff91610767919061075f90610fa5565b5f6039611009565b911663ffffffff19603a541617603a55603b55835580602f55610f81565b60246040518094819363126a748560e11b835260048301525af490811561087a575f91610844575b50601455602054600c54906103e8820180921161083057116108215760607f8dfadba5829db37a40e1dab1a739f8294a538ade264a5fbcc2745e229ad75a399151925160018060a01b031693516006546010549060405192835260208301526040820152a36040516157c590816111828239f35b630b7db7f360e41b5f5260045ffd5b634e487b7160e01b5f52601160045260245ffd5b90506020813d602011610872575b8161085f60209383610e3e565b8101031261086e57515f6107ad565b5f80fd5b3d9150610852565b6040513d5f823e3d90fd5b60405162461bcd60e51b815260206004820152601b60248201527f4275636b6574547265653a206c656e677468206d69736d6174636800000000006044820152606490fd5b636251f89960e11b5f5260045ffd5b6366916dfd60e01b5f5260045ffd5b635fba374760e11b5f5260045ffd5b630e52390960e41b5f5260045ffd5b610911818651610f59565b5161091d828551610f59565b5196855182116108f75787156108f757835180830290838204148315171561083057600361094c865183610f4c565b6040519261095b608085610e3e565b8b8452602084018c81526040850191825260608501928352865f52601560205260405f2094518555516001850155516002840155519101556109a461099f89610f3e565b610f81565b90600654918215610a45578d926020910460246040518095819363b581fbe360e01b835260048301525af4801561087a5789925f91610a0d575b506109ec6109f2948d610f59565b52610f4c565b95898111610a04575b506001016106cc565b985060016109fb565b9250506020823d8211610a3d575b81610a2860209383610e3e565b8101031261086e5790518891906109ec6109de565b3d9150610a1b565b634e487b7160e01b5f52601260045260245ffd5b63118a8e6360e01b5f5260045ffd5b610504565b015190505f806104ce565b90601f1983169160245f52815f20925f5b818110610ac8575091600193918560e097969410610ab0575b505050811b016024556104e3565b01515f1960f88460031b161c191690555f8080610aa2565b92936020600181928786015181550195019301610a89565b60245f527f7cd332d19b93bcabe3cce7ca0c18a052f57e5fd03b4758a09f30f5ddc4b22ec4601f840160051c81019160208510610b39575b601f0160051c01905b818110610b2e57506104b2565b5f8155600101610b21565b9091508190610b18565b634e487b7160e01b5f52602260045260245ffd5b90607f16906104a0565b634e487b7160e01b5f52604160045260245ffd5b015190505f80610463565b60235f9081528281209350601f198516905b818110610bce5750908460019594939210610bb6575b505050811b01602355610478565b01515f1960f88460031b161c191690555f8080610ba8565b92936020600181928786015181550195019301610b92565b60235f529091507fd57b2b5166478fd4318d2acc6cc2c704584312bdd8781b32d5d06abda57f4230601f840160051c81019160208510610c4a575b90601f859493920160051c01905b818110610c3c575061044d565b5f8155849350600101610c2f565b9091508190610c21565b91607f1691610439565b015190505f806103fb565b60225f9081528281209350601f198516905b818110610cb75750908460019594939210610c9f575b505050811b01602255610410565b01515f1960f88460031b161c191690555f8080610c91565b92936020600181928786015181550195019301610c7b565b60225f529091507f61035b26e3e9eee00e0d72fd1ee8ddca6894550dca6916ea2ac6baa90d11e510601f840160051c81019160208510610d33575b90601f859493920160051c01905b818110610d2557506103e5565b5f8155849350600101610d18565b9091508190610d0a565b91607f16916103d1565b015190505f80610393565b60215f9081528281209350601f198516905b818110610da05750908460019594939210610d88575b505050811b016021556103a8565b01515f1960f88460031b161c191690555f8080610d7a565b92936020600181928786015181550195019301610d64565b60215f529091507f3a6357012c1a3ae0a17d304c9920310382d968ebcc4b1771f41c6b304205b570601f840160051c81019160208510610e1c575b90601f859493920160051c01905b818110610e0e575061037d565b5f8155849350600101610e01565b9091508190610df3565b91607f1691610369565b62dc149f60e41b5f5260045ffd5b601f909101601f19168101906001600160401b03821190821017610b6157604052565b51906001600160a01b038216820361086e57565b6001600160401b038111610b615760051b60200190565b9080601f8301121561086e578151610ea381610e75565b92610eb16040519485610e3e565b81845260208085019260051b82010192831161086e57602001905b828210610ed95750505090565b8151815260209182019101610ecc565b81601f8201121561086e578051906001600160401b038211610b615760405192610f1d601f8401601f191660200185610e3e565b8284526020838301011161086e57815f9260208093018386015e8301015290565b906001820180921161083057565b9190820180921161083057565b8051821015610f6d5760209160051b010190565b634e487b7160e01b5f52603260045260245ffd5b90670de0b6b3a7640000820291808304670de0b6b3a7640000149015171561083057565b63ffffffff5f199116019063ffffffff821161083057565b9063ffffffff8091169116039063ffffffff821161083057565b63ffffffff60019116019063ffffffff821161083057565b9063ffffffff8091169116019063ffffffff821161083057565b93919293600181019363ffffffff855460201c1663ffffffff8114610830576001611053910180969067ffffffff0000000082549160201b169067ffffffff000000001916179055565b61106b85839063ffffffff165f5260205260405f2090565b60018101670de0b6b3a764000060018060c01b0319825416179055600383015463ffffffff60018187860316011602905584956110b686849063ffffffff165f5260205260405f2090565b9563ffffffff851663ffffffff8416811461115f5750506110fb816110f36110ed6110e18887610fbd565b60011c637fffffff1690565b87610fef565b809686611009565b93611111939161110b9096610fd7565b90611009565b6001860180546001600160c01b031660209590951b67ffffffff000000001663ffffffff939093169290921760c01b6001600160c01b03191693909317905561115a9190610f4c565b809255565b9450965091505061117d92936111758383610f59565b519055610f59565b519056fe6080806040526004361015610012575f80fd5b5f3560e01c90816302d05d3f146129bd5750806304f3bcec1461299557806306fdde031461290357806308feb1ab146128e657806309c51406146128c95780630b78f9c0146128575780630f14cbe6146127db5780630fd388d3146127be57806311eac85514612796578063147d1862146127795780631b8324991461275f578063200d2ed214612736578063217c16e41461271b57806323228ecb146126f357806324a9d853146126d657806325c07832146124875780632f8673671461245b57806331a36c381461243e57806334d492aa1461242157806335659fb81461240457806338a3f3c5146123e75780633b5d9d08146123ba5780634043a2fb1461239d5780634218bf02146123805780634a4e3bd5146123175780634bf33ab8146122fa5780634c8011bc1461222357806351858e2714612196578063519a1d841461210457806351a2f80a14611fe757806351c6590a14611f105780635c03841614611ef35780635f81a57c14611ed65780635fd39d2f14611e4457806361d5f22514611e275780636399d03d14611d6657806363c1bc8b146110c1578063647365d5146110a757806364daf9f214610f3f5780636704150914610f225780636774958114610efd5780636a14602414610edb5780636c8d9e3714610e105780636db49f6014610df45780636ed71ede14610dd75780637284e41614610d1457806377b8c9a514610cf2578063850a150114610cca578063868be00314610ca9578063893f47b414610c8c5780638f92317714610c6f5780639307ee391461090c57806396365d4414610c525780639b51fb0d14610c0d578063a1a64a1e14610ad6578063b298523b14610ab9578063b4845fff14610911578063b70a75981461090c578063ba35736e146108ef578063bdaef623146108d2578063c0d786551461085f578063c17e608f14610842578063c2f5673e14610825578063c45a0155146107fd578063c494bd92146107e2578063d304420f14610762578063d55be8c614610746578063d8270dce14610729578063db1d0fd51461070c578063ddd5e1b2146104e0578063e037f889146104c3578063e0af4fed146104a6578063e0c2218e1461048a578063f0b5179014610421578063f3e41e9014610404578063f887ea40146103dc578063f91b73c3146103bf578063ff45f144146103a25763ff50abdc14610381575f80fd5b3461039e575f36600319011261039e576020600e54604051908152f35b5f80fd5b3461039e575f36600319011261039e576020601254604051908152f35b3461039e575f36600319011261039e576020601f54604051908152f35b3461039e575f36600319011261039e576032546040516001600160a01b039091168152602090f35b3461039e575f36600319011261039e576020601a54604051908152f35b3461039e57602036600319011261039e57600354600435906001600160a01b0316330361047c57806037557f64d097b997eb7f3499558132f5fa5de0dfd1461973cc6c71f8ba8ca2e439ffac602060015492604051908152a2005b6282b42960e81b5f5260045ffd5b3461039e575f36600319011261039e5760206040516107088152f35b3461039e575f36600319011261039e576020600854604051908152f35b3461039e575f36600319011261039e576020600d54604051908152f35b3461039e57604036600319011261039e576024356001600160a01b038116906004359082810361039e57610512613cc6565b6032546001600160a01b03168015159081610701575b5061047c5791156106f9575b600160ff6016541661054581612aa5565b036106ea576001548160801c036106ba5760175490604081901c6001600160401b0316821080156106d8575b6106c95761057d613f38565b156106ba5760018060a01b03600454169160206040518094627eeac760e11b825281806105ae873360048401612bfa565b03915afa92831561066c575f93610686575b508215610677575f52601560205260405f206105dd838254612c64565b90556105eb82600c54612c64565b600c556004546001600160a01b0316803b1561039e57825f916106269383604051809681958294637a94c56560e11b84523360048501612c9b565b03925af1801561066c5760209361065092849261065c575b506005546001600160a01b0316614085565b60015f55604051908152f35b5f61066691612a18565b8561063e565b6040513d5f823e3d90fd5b631e9acf1760e31b5f5260045ffd5b9092506020813d6020116106b2575b816106a260209383612a18565b8101031261039e575191846105c0565b3d9150610695565b630e52390960e41b5f5260045ffd5b636196d5dd60e11b5f5260045ffd5b506001600160401b0381168211610571565b635a90bb8d60e11b5f5260045ffd5b339150610534565b905033141584610528565b3461039e575f36600319011261039e576020600654604051908152f35b3461039e575f36600319011261039e576020602954604051908152f35b3461039e575f36600319011261039e5760206040516101f48152f35b3461039e5760c036600319011261039e5760a4356001600160a01b038116810361039e5761078e613cc6565b60ff6016541661079d81612aa5565b6106ea576032546001600160a01b031680151590816107d7575b5061047c576106506020916084356064356044356024356004355f6134ff565b9050331415826107b7565b3461039e575f36600319011261039e57602060405160648152f35b3461039e575f36600319011261039e576003546040516001600160a01b039091168152602090f35b3461039e575f36600319011261039e576020601054604051908152f35b3461039e575f36600319011261039e576020600954604051908152f35b3461039e57602036600319011261039e57610878612a7b565b6003546001600160a01b0316330361047c57603280546001600160a01b0319166001600160a01b039290921691821790556001547f565535078ff7b99541db6ae0dd94dc984c721ec2def6df469fc1a4fa3a8195bc5f80a3005b3461039e575f36600319011261039e576020602f54604051908152f35b3461039e575f36600319011261039e576020600a54604051908152f35b612bb4565b3461039e57604036600319011261039e5761092a612a7b565b602435610935613cc6565b60ff6016541661094481612aa5565b6106ea576001600160a01b03821680156106ba576002546001600160a01b031633141580610a9e575b61047c575f5f905f601254905b81811115610a555750506020548110610a48575b505061099861328e565b8015610a39575f198314610a31575b8215908115610a27575b506106ba576109ec826020946109c982600c54612c64565b600c556109d882600f54612c8e565b600f556005546001600160a01b0316614085565b600154604051908382527f4f0dd1f9cc0e5c7e34c0132340c17713de0c1bf49c69b91eb2d3df566cf2fd4a853393a460015f55604051908152f35b90508211846109b1565b9150816109a7565b63b8a6bd3160e01b5f5260045ffd5b602055603855838061098e565b610a5e81614174565b15610a7757805f5260156020528260405f205411610a85575b610a8090612bec565b61097a565b5f81815260156020526040902054909350915082610a77565b50601b543360089190911c6001600160a01b0316141561096d565b3461039e575f36600319011261039e576020603154604051908152f35b3461039e575f36600319011261039e57610aee613cc6565b6002546001600160a01b031633141580610bf2575b61047c57600160ff60165416610b1881612aa5565b036106ea57601b5460ff81166106ba576017545f908152601560205260409020600181015490549080821115610bea57610b5191612c64565b6001610b5f82600c54612c64565b92600e54600f54908181115f14610bdf57610b8391610b7d91612c64565b856132b7565b92600c5560ff191617601b55610ba4823360018060a01b0360055416614085565b6001549060405192835260208301527f88198030985a99aec42797b0bbe17d6da9e448538dc983f938b438656c477ff560403393a360015f55005b5050610b835f610b7d565b50505f610b51565b50601b543360089190911c6001600160a01b03161415610b03565b3461039e57602036600319011261039e576004355f52601560205260405f208054610c4e600183015492600360028201549101549060405194859485612bd0565b0390f35b3461039e575f36600319011261039e576020600c54604051908152f35b3461039e575f36600319011261039e576020603754604051908152f35b3461039e575f36600319011261039e576020600f54604051908152f35b3461039e576020610cc2610cbc36612a65565b9061337e565b604051908152f35b3461039e575f36600319011261039e57602e546040516001600160a01b039091168152602090f35b3461039e575f36600319011261039e57602060ff601b54166040519015158152f35b3461039e575f36600319011261039e576040515f602254610d34816129e0565b8084529060018116908115610db35750600114610d68575b610c4e83610d5c81850382612a18565b60405191829182612a3b565b60225f9081525f5160206157195f395f51905f52939250905b808210610d9957509091508101602001610d5c610d4c565b919260018160209254838588010152019101909291610d81565b60ff191660208086019190915291151560051b84019091019150610d5c9050610d4c565b3461039e575f36600319011261039e576020600154604051908152f35b3461039e575f36600319011261039e5760208054604051908152f35b3461039e57602036600319011261039e57610e29612a7b565b60ff60165416610e3881612aa5565b6106ea576001600160a01b0381169081156106ba576002546001600160a01b031633141580610ec6575b61047c57601b5490600882901c6001600160a01b03166106ba57610100600160a81b031990911660089190911b610100600160a81b031617601b556001547f408a3bb4b9dcbf62417447647cd90a3e0ff562ea88edb0b0de4a8caf0cda7d305f80a3005b506003546001600160a01b0316331415610e62565b3461039e575f36600319011261039e576020604051670de0b6b3a76400008152f35b3461039e575f36600319011261039e576020610cc28154610f1c61334e565b90612c8e565b3461039e575f36600319011261039e576020603054604051908152f35b3461039e57610f4d36612a65565b60105482101561109857610f86610f7d610f78610f686146f8565b93610f7286614783565b94612c8e565b612c15565b60065490612c4c565b9073__$4aa18cb2ebd4829f68603673fae2e2f31a$__916040519063b581fbe360e01b82526004820152602081602481865af490811561066c575f91611065575b50602091610fd491612c64565b60246040518094819363126a748560e11b835260048301525af490811561066c575f91611032575b6020610cc284611020670de0b6b3a764000061101a87600654612c39565b04612c56565b905f526015835260405f205490612c64565b90506020813d60201161105d575b8161104d60209383612a18565b8101031261039e57516020610ffc565b3d9150611040565b90506020813d602011611090575b8161108060209383612a18565b8101031261039e57516020610fc7565b3d9150611073565b63778aa76b60e01b5f5260045ffd5b3461039e575f36600319011261039e576020610cc261334e565b3461039e57602036600319011261039e576004356001600160401b03811161039e576101e0600319823603011261039e576040516101e081016001600160401b03811182821017611acc576040528160040135815261112260248301612a91565b906020810191825261113660448401612a91565b926040820193845261114a60648201612a91565b906060830191825261115e60848201612a91565b916080840192835260a084019060a4830135825260c085019660c4840135885260e086019360e48101358552610100870192610104820135845261012482013560018060401b03811161039e576111bb9060043691850101612af6565b6101208901908152966101448301356001600160401b03811161039e576111e89060043691860101612af6565b956101408a019687526101608a019161016485013583526101808b019361018486013585526101a486013560018060401b03811161039e578601610100600319823603011261039e576040519661010088016001600160401b03811189821017611acc5760405260048201356001600160401b03811161039e576112729060043691850101612b6e565b885260248201356001600160401b03811161039e576112979060043691850101612b6e565b602089015260448201356001600160401b03811161039e576112bf9060043691850101612b6e565b60408901526064820135906001600160401b03821161039e576101a08f60e4611332958c60606112f86101c49860043691860101612b6e565b9101528c608061130a60848401612a91565b91015260a481013560a08e015260c481013560c08e0152013560e08c01520198895201612a91565b966101c08d0197885260ff60055460a01c16611d58576005805460ff60a01b1916600160a01b1790558351156106ba578e51156106ba578a51156106ba5760028c5151106106ba578b51518a5151036106ba576101f48551116106ba578c516001558d51600280546001600160a01b03199081166001600160a01b0393841617909155915160038054841691831691909117905591516005805483169184169190911790559151600480549093169116179055516006558a51600c819055600d5551601c5551601d556016805460ff191690558051518051906001600160401b038211611acc5781906114266021546129e0565b601f8111611ce9575b50602090601f8311600114611c83575f92611c78575b50508160011b915f199060031b1c1916176021555b8051602001518051906001600160401b038211611acc57819061147e6022546129e0565b601f8111611c1d575b50602090601f8311600114611bb7575f92611bac575b50508160011b915f199060031b1c1916176022555b8051604001518051906001600160401b038211611acc5781906114d66023546129e0565b601f8111611b51575b50602090601f8311600114611aeb575f92611ae0575b50508160011b915f199060031b1c1916176023555b8051606001518051906001600160401b038211611acc5761152c6024546129e0565b601f8111611a7c575b50602090601f8311600114611a145760e09392915f9183611a09575b50508160011b915f199060031b1c1916176024555b5160808101516001600160a01b031680611a04575088516001600160a01b03165b602580546001600160a01b039283166001600160a01b03199182161790915560a083015160265560c08301516027559290910151602855426029559151602e80549190931691161790558251601355805160128190556115e690612c80565b6010555f60115560065460075560065460085542600b558651600e5560105463ffffffff811680156118ad5763ffffffff603a5460401c166119f557637fffffff811161189e57603a80545f603c55600160201b600160601b03191660409390931b63ffffffff60401b1692909217909155611661906140bf565b63ffffffff603a5460201c169063ffffffff82146119e157603a805463ffffffff60201b19166001938401602081811b63ffffffff60201b1692909217835563ffffffff9081165f81815260399093526040832080870180546001600160c01b031916670de0b6b3a7640000179055603c549583169096019091169093028455815463ffffffff191690921790559054603b5584515160105494959194909285929161170c906132cf565b945f9773__$4aa18cb2ebd4829f68603673fae2e2f31a$__985b8681106118cb5750505050508751036106ba576010549263ffffffff84169363ffffffff603a5460401c16156118bc5784156118ad57637fffffff851161189e576117b6846117ae8763ffffffff9461178660209a6117d49a51146146ae565b603a80545f603c55918716604090811b9088901b1990921691909117868b1b191690556140bf565b5f6039614cf7565b911663ffffffff19603a541617603a55603b55835580602f55612c15565b60246040518094819363126a748560e11b835260048301525af490811561066c575f9161186c575b5060145560205461180e600c54612c71565b1061185d577f8dfadba5829db37a40e1dab1a739f8294a538ade264a5fbcc2745e229ad75a399051915160018060a01b031692516006549061185860105460405193849384612ac9565b0390a3005b630b7db7f360e41b5f5260045ffd5b90506020813d602011611896575b8161188760209383612a18565b8101031261039e5751846117fc565b3d915061187a565b636251f89960e11b5f5260045ffd5b6366916dfd60e01b5f5260045ffd5b635fba374760e11b5f5260045ffd5b6118d6818651613301565b516118e2828551613301565b5196855182116106ba5787156106ba578b90611940611902865185612c39565b61190d875182612c8e565b6040519161191c608084612a18565b8c83528c602084015260408301526060820152845f52601560205260405f20613329565b6020611951610f7d610f788c612c80565b60246040518095819363b581fbe360e01b835260048301525af4801561066c5789925f916119a9575b5061198861198e948d613301565b52612c8e565b958981116119a0575b50600101611726565b98506001611997565b9250506020823d82116119d9575b816119c460209383612a18565b8101031261039e57905188919061198861197a565b3d91506119b7565b634e487b7160e01b5f52601160045260245ffd5b63118a8e6360e01b5f5260045ffd5b611587565b015190508c80611551565b90601f1983169160245f52815f20925f5b818110611a64575091600193918560e097969410611a4c575b505050811b01602455611566565b01515f1960f88460031b161c191690558c8080611a3e565b92936020600181928786015181550195019301611a25565b60245f525f5160206157995f395f51905f52601f840160051c81019160208510611ac2575b601f0160051c01905b818110611ab75750611535565b5f8155600101611aaa565b9091508190611aa1565b634e487b7160e01b5f52604160045260245ffd5b015190508b806114f5565b60235f9081528281209350601f198516905b818110611b395750908460019594939210611b21575b505050811b0160235561150a565b01515f1960f88460031b161c191690558b8080611b13565b92936020600181928786015181550195019301611afd565b60235f529091505f5160206157595f395f51905f52601f840160051c81019160208510611ba2575b90601f859493920160051c01905b818110611b9457506114df565b5f8155849350600101611b87565b9091508190611b79565b015190508b8061149d565b60225f9081528281209350601f198516905b818110611c055750908460019594939210611bed575b505050811b016022556114b2565b01515f1960f88460031b161c191690558b8080611bdf565b92936020600181928786015181550195019301611bc9565b60225f529091505f5160206157195f395f51905f52601f840160051c81019160208510611c6e575b90601f859493920160051c01905b818110611c605750611487565b5f8155849350600101611c53565b9091508190611c45565b015190508b80611445565b60215f9081528281209350601f198516905b818110611cd15750908460019594939210611cb9575b505050811b0160215561145a565b01515f1960f88460031b161c191690558b8080611cab565b92936020600181928786015181550195019301611c95565b60215f529091505f5160206157395f395f51905f52601f840160051c81019160208510611d3a575b90601f859493920160051c01905b818110611d2c575061142f565b5f8155849350600101611d1f565b9091508190611d11565b634e487b7160e01b5f52602160045260245ffd5b62dc149f60e41b5f5260045ffd5b3461039e57602036600319011261039e57602554600435906001600160a01b0316330361047c5760165460ff8116611d9d81612aa5565b611e1857611dad60135483612c4c565b916012548311611e095760017f9f7cb4c52f35416365b5664015fc31776d715fff39c7b9cb7529d135f9885f499260ff191617601655806018558260175542601a5560015492611e04604051928392429184612ac9565b0390a2005b6382d8c51160e01b5f5260045ffd5b63aa43cb2d60e01b5f5260045ffd5b3461039e575f36600319011261039e576020602854604051908152f35b3461039e575f36600319011261039e576040515f602454611e64816129e0565b8084529060018116908115610db35750600114611e8b57610c4e83610d5c81850382612a18565b60245f9081525f5160206157995f395f51905f52939250905b808210611ebc57509091508101602001610d5c610d4c565b919260018160209254838588010152019101909291611ea4565b3461039e575f36600319011261039e576020601954604051908152f35b3461039e575f36600319011261039e576020601154604051908152f35b3461039e57602036600319011261039e57600435611f2c613cc6565b60ff60165416611f3b81612aa5565b6106ea5780156106ba576002546001600160a01b031633141580611fcc575b61047c57600554611f79908290309033906001600160a01b0316614657565b611f8581600c54612c8e565b600c55611f9481600e54612c8e565b600e556001546040519182527fc733c2813826d31c105dbff518b08258e9e7aeb3eb1c7c7f642d77696faf501d60203393a360015f55005b50601b543360089190911c6001600160a01b03161415611f5a565b3461039e575f36600319011261039e57600e54600f54808211156120fc5761200e91612c64565b600160ff6016541661201f81612aa5565b1461209b5761203081600c546132b7565b811591826120905761271082029282840561271014831517156119e15761207c57600160ff1b83145f198214166119e157606092055b601e549060405192835260208301526040820152f35b634e487b7160e01b5f52601260045260245ffd5b50606091505f612066565b6017545f9081526015602052604090206001810154905490808211156120f4576120c491612c64565b81600c548281115f146120e8576120e3926120de91612c64565b6132b7565b612030565b506120e391505f6132b7565b50505f6120c4565b50505f61200e565b3461039e575f36600319011261039e576040515f602354612124816129e0565b8084529060018116908115610db3575060011461214b57610c4e83610d5c81850382612a18565b60235f9081525f5160206157595f395f51905f52939250905b80821061217c57509091508101602001610d5c610d4c565b919260018160209254838588010152019101909291612164565b3461039e575f36600319011261039e576003546001600160a01b0316330361047c5760165460ff81166121c881612aa5565b60018114611e18576003906121dc81612aa5565b146122145760ff19166003176016556001547f707ed636b82bf4fd0c25a45407821aa155c2e7b334e0556f5f98fe8b6e0648c65f80a2005b630a9105a360e31b5f5260045ffd5b3461039e5761223136612aaf565b909160ff6016541661224281612aa5565b6106ea576002546001600160a01b0316331415806122e5575b61047c5781156106ba57801580156122d9575b6106ba576007546103e881028181046103e814821517156119e157612710900482106106ba57611e047f2a61c04320dec6de3f28a98eb32780c627d034220aad5ac75e2fbbf47ed478d693836008558560095580600a5542600b556001549560405194859485612bd0565b5060075481101561226e565b506003546001600160a01b031633141561225b565b3461039e575f36600319011261039e576020603654604051908152f35b3461039e575f36600319011261039e576003546001600160a01b0316330361047c57601654600360ff821661234b81612aa5565b036106ba5760ff19166016556001547f7ab9ebf5b8e1041c7b25291b5c510cd362590128aa30c27aa37693f77a8a52465f80a2005b3461039e575f36600319011261039e576020603854604051908152f35b3461039e575f36600319011261039e576020601354604051908152f35b3461039e575f36600319011261039e5760ff601654166123d981612aa5565b6106ea576123e5613ce4565b005b3461039e575f36600319011261039e576020602754604051908152f35b3461039e575f36600319011261039e576020601d54604051908152f35b3461039e575f36600319011261039e576020601754604051908152f35b3461039e575f36600319011261039e576020600b54604051908152f35b3461039e575f36600319011261039e57601b5460405160089190911c6001600160a01b03168152602090f35b3461039e576124c461249836612aaf565b5f93849390928492916124ab9190613eab565b9390916127106124bd601c5483612c39565b0490612c64565b92603b54916124df63ffffffff831663ffffffff83166140f1565b946124f5670de0b6b3a764000060065490612c4c565b6040519063b581fbe360e01b8252600482015260208160248173__$4aa18cb2ebd4829f68603673fae2e2f31a$__5af490811561066c575f916126a4575b50825b8481111561266657505085612647575b61255561255a91600c54612c8e565b612c71565b905b828111156125ec5750505083159283156125b2575b50508361258a575b610c4e915060405193849384612ac9565b50620f4240820290828204620f42401417156119e1576125ad83610c4e92612c4c565b612579565b6125e49295506125db90610f1c6125cb6006548861433f565b6125d58386612c64565b92614400565b90600654614556565b928480612571565b6125f581614174565b612635575f5b8083111561262e5761260d9083612c64565b878110612624575b5061261f90612bec565b61255c565b965061261f612615565b505f61260d565b805f52601560205260405f20546125fb565b955061255a61255561265d888887600654614190565b97915050612546565b61266f81614174565b15612683575b61267e90612bec565b612536565b969461269c826126968161267e94612c8e565b97612c8e565b979050612675565b90506020813d6020116126ce575b816126bf60209383612a18565b8101031261039e575189612533565b3d91506126b2565b3461039e575f36600319011261039e576020601c54604051908152f35b3461039e575f36600319011261039e576004546040516001600160a01b039091168152602090f35b3461039e575f36600319011261039e57602060405160018152f35b3461039e575f36600319011261039e57602060ff601654166040519061275b81612aa5565b8152f35b3461039e575f36600319011261039e576020610cc261328e565b3461039e575f36600319011261039e576020601e54604051908152f35b3461039e575f36600319011261039e576005546040516001600160a01b039091168152602090f35b3461039e575f36600319011261039e576020602654604051908152f35b3461039e5760a036600319011261039e576084356001600160a01b038116810361039e57612807613cc6565b60ff6016541661281681612aa5565b6106ea576032546001600160a01b0316801515908161284c575b5061047c57610650602091606435604435602435600435612cb9565b905033141582612830565b3461039e5761286536612a65565b6003549091906001600160a01b0316330361047c576101f481116106ba5761271082116106ba576040817fcf8a1e1d5f09cf3c97dbb653cd9a4d7aace9292fbc1bb8211febf2d400febbdd92601c5583601d556001549382519182526020820152a2005b3461039e575f36600319011261039e576020600754604051908152f35b3461039e575f36600319011261039e576020601854604051908152f35b3461039e575f36600319011261039e576040515f602154612923816129e0565b8084529060018116908115610db3575060011461294a57610c4e83610d5c81850382612a18565b60215f9081525f5160206157395f395f51905f52939250905b80821061297b57509091508101602001610d5c610d4c565b919260018160209254838588010152019101909291612963565b3461039e575f36600319011261039e576025546040516001600160a01b039091168152602090f35b3461039e575f36600319011261039e576002546001600160a01b03168152602090f35b90600182811c92168015612a0e575b60208310146129fa57565b634e487b7160e01b5f52602260045260245ffd5b91607f16916129ef565b601f909101601f19168101906001600160401b03821190821017611acc57604052565b602060409281835280519182918282860152018484015e5f828201840152601f01601f1916010190565b604090600319011261039e576004359060243590565b600435906001600160a01b038216820361039e57565b35906001600160a01b038216820361039e57565b60041115611d4457565b606090600319011261039e57600435906024359060443590565b6040919493926060820195825260208201520152565b6001600160401b038111611acc5760051b60200190565b9080601f8301121561039e578135612b0d81612adf565b92612b1b6040519485612a18565b81845260208085019260051b82010192831161039e57602001905b828210612b435750505090565b8135815260209182019101612b36565b6001600160401b038111611acc57601f01601f191660200190565b81601f8201121561039e57803590612b8582612b53565b92612b936040519485612a18565b8284526020838301011161039e57815f926020809301838601378301015290565b3461039e575f36600319011261039e5760206040516103e88152f35b9094939260609260808301968352602083015260408201520152565b5f1981146119e15760010190565b6001600160a01b039091168152602081019190915260400190565b90670de0b6b3a7640000820291808304670de0b6b3a764000014901517156119e157565b818102929181159184041417156119e157565b811561207c570490565b5f198101919082116119e157565b919082039182116119e157565b906103e882018092116119e157565b90600182018092116119e157565b919082018092116119e157565b604091949392606082019560018060a01b0316825260208201520152565b91949293915f916001600160a01b03841615613286575b612cd8613ce4565b86156106ba57602654801515908161327c575b5061326d57612cf991613eab565b919095865b8381111561324c5750612d0f613f38565b6131b9575b828714612f4357603b549663ffffffff811693612d5763ffffffff821699612d4e612d3f8c896140f1565b610f1c6125cb600654896148d4565b9060065461490e565b98612710612d67601c548c612c39565b0495612d73878c612c64565b998a10612f3457612d94612710612d8c601d548a612c39565b048098612c64565b91612d9f888c612c8e565b91855b85811115612f0d575092612dcf8c9d93612dc7899d9e9c9d612de995612e0398614886565b600c54612c64565b600c55612dde81601e54612c8e565b601e55603654612c8e565b603655612df887601f54612c8e565b601f55601954612c8e565b6019558382603854905b83811115612eec575b505015612edf57612e25613fb4565b612e2d613f38565b612e56575b5050505091612e43612e549361403e565b6005546001600160a01b0316614085565b565b612e7091929394955060018060a01b036004541692613f59565b813b15612edb57918391612e9c9383604051809681958294637a94c56560e11b84523360048501612c9b565b03925af18015612ed05792612e549492612e43928895612ec0575b82949650612e32565b81612eca91612a18565b5f612eb7565b6040513d84823e3d90fd5b8380fd5b612ee7613f8e565b612e25565b818114612f0157612efc90612bec565b612e0d565b50505060015f80612e16565b612f2f90805f52601560205260405f20612f288a8254612c64565b9055612bec565b612da2565b630e52390960e41b8652600486fd5b929150612f519593956146f8565b93612f5b81614783565b815f526015602052612f718560405f2054612c64565b95612f81610f7d610f7889612c80565b9173__$4aa18cb2ebd4829f68603673fae2e2f31a$__926040519063b581fbe360e01b82526004820152602081602481875af490811561066c575f91613186575b50612fcf90602092612c8e565b60246040518095819363126a748560e11b835260048301525af491821561066c575f9261314a575b50670de0b6b3a76400006124bd61301093600654612c39565b93612710613020601c5487612c39565b049561302c8787612c64565b9788106106ba57879561309091845f52601560205260405f20556130578363ffffffff861680614886565b61308161307461271061306c601d548c612c39565b04809a612c64565b612dcf612dc78b8b612c8e565b603655612df888601f54612c8e565b601955603854820361313d576130a4613fb4565b6130ac613f38565b6130c2575b505061063e6130bf9461403e565b90565b6004546001600160a01b0316959450906130dc9080613f59565b90853b1561039e57613108955f9283604051809981958294637a94c56560e11b84523360048501612c9b565b03925af192831561066c576130bf948694613126575b8195506130b1565b6131339192505f90612a18565b5f9061063e61311e565b613145613f8e565b6130a4565b91506020823d60201161317e575b8161316560209383612a18565b8101031261039e57905190670de0b6b3a7640000612ff7565b3d9150613158565b90506020813d6020116131b1575b816131a160209383612a18565b8101031261039e57516020612fc2565b3d9150613194565b6131ee60206131c8858a613f59565b60018060a01b03600454166040518080958194627eeac760e11b83523360048401612bfa565b03915afa801561066c5782915f91613217575b501015612d1457631e9acf1760e31b5f5260045ffd5b9150506020813d602011613244575b8161323360209383612a18565b8101031261039e578190515f613201565b3d9150613226565b805f5260156020528160405f2054106106775761326890612bec565b612cfe565b638083ad0360e01b5f5260045ffd5b905042115f612ceb565b339350612cd0565b61329c602054610f1c61334e565b600c5490808211156132b1576130bf91612c64565b50505f90565b81810392915f1380158285131691841216176119e157565b906132d982612adf565b6132e66040519182612a18565b82815280926132f7601f1991612adf565b0190602036910137565b80518210156133155760209160051b010190565b634e487b7160e01b5f52603260045260245ffd5b9060606003918051845560208101516001850155604081015160028501550151910155565b6006548060011b90808204600214901517156119e15761337a670de0b6b3a76400009160145490612c39565b0490565b906010548210156110985780156132b157815f52601560205260405f20548111610677576133c96133ad6146f8565b916133b784614783565b935f52601560205260405f2054612c64565b600181018091116119e157670de0b6b3a7640000810290808204670de0b6b3a764000014901517156119e15760065461340191612c4c565b9173__$4aa18cb2ebd4829f68603673fae2e2f31a$__926040519063b581fbe360e01b82526004820152602081602481875af490811561066c575f916134cc575b5061344f90602092612c8e565b60246040518095819363126a748560e11b835260048301525af491821561066c575f92613490575b50670de0b6b3a76400006124bd6130bf93600654612c39565b91506020823d6020116134c4575b816134ab60209383612a18565b8101031261039e57905190670de0b6b3a7640000613477565b3d915061349e565b90506020813d6020116134f7575b816134e760209383612a18565b8101031261039e57516020613442565b3d91506134da565b969592939194905f9560018060a01b03851615613cbe575b61351f613ce4565b85156106ba576026548015159081613cb4575b5061326d576028548015159081613caa575b50613c9b5761355291613eab565b929094855b84811115613a92575083861461384957613581612710613579601c5484612c39565b048092612c64565b918790603b549463ffffffff89169563ffffffff8816956135a287896140f1565b92806137ff575b508d156137c3575b5050508a106137b4576127106135c9601d5484612c39565b04938a6135d68685612c64565b946135ec6135e48786612c8e565b600c54612c8e565b8a906103e88101809111915b8d8b821115613757575050505061360f8685612c8e565b928a5b8981111561370857509361363a61364f946135e461364295613685999561368a9c9b99614dac565b600c55612c8e565b91612dde81601e54612c8e565b60365561365e83601f54612c8e565b601f5561366d81601954612c8e565b601955600554309033906001600160a01b0316614657565b61403e565b613692613f38565b61369d575b50505050565b6004546001600160a01b0316926136b49190613f59565b90823b15612edb576136e292849283889360405196879586948593630ab714fb60e11b855260048501612c9b565b03925af18015612ed0576136f8575b8080613697565b8161370291612a18565b5f6136f1565b613723613741929394825f52601560205260405f2054612c8e565b815f5260156020528060405f2055602054811161374a575b50612bec565b908d9291613612565b602055806038555f61373b565b8394956040828461377394979596975260156020522054612c8e565b906137a05782106137915761378790612bec565b908e9392916135f8565b630b7db7f360e41b8d5260048dfd5b634e487b7160e01b8e52601160045260248efd5b630e52390960e41b8852600488fd5b82826137d493949f50600654614190565b9b8c80156135b1576137f693945090610f1c6125cb6125db936006549061433f565b905f808c6135b1565b61382e6138256138116006548461433f565b610f1c61381e8888612c64565b9188614400565b84600654614556565b908282111561383e575b506135a9565b9e5094505f80613838565b93949550959650505061385a6146f8565b61386384614783565b90612710613873601c5485612c39565b049161388f610f7d610f786138888688612c64565b8095612c8e565b9073__$4aa18cb2ebd4829f68603673fae2e2f31a$__916040519063b581fbe360e01b82526004820152602081602481865af490811561066c575f91613a5f575b506020916138dd91612c64565b60246040518094819363126a748560e11b835260048301525af490811561066c575f91613a25575b50670de0b6b3a764000061101a61391e92600654612c39565b92855f52601560205261393560405f205485612c64565b9687106106ba5761394b61255583600c54612c8e565b841161185d5761364f613685926139a595885f5260156020528060405f20556020548111613a18575b506139868963ffffffff8a1680614dac565b612dcf6135e461399e612710612d8c601d548a612c39565b8093612c8e565b6139ad613f38565b6139b657505090565b6004546001600160a01b0316916139cd9080613f59565b90823b1561039e576139fb925f9283869360405196879586948593630ab714fb60e11b855260048501612c9b565b03925af1801561066c57613a0e575b5090565b5f6130bf91612a18565b602055876038555f613974565b90506020813d602011613a57575b81613a4060209383612a18565b8101031261039e5751670de0b6b3a7640000613905565b3d9150613a33565b90506020813d602011613a8a575b81613a7a60209383612a18565b8101031261039e575160206138d0565b3d9150613a6d565b613a9b81614174565b15613aaf575b613aaa90612bec565b613557565b60135490613ac7613ac08383612c39565b9283612c8e565b613afe604051613ad8608082612a18565b5f81525f6020820152846040820152826060820152835f52601560205260405f20613329565b670de0b6b3a7640000613b1360065482612c4c565b9073__$4aa18cb2ebd4829f68603673fae2e2f31a$__916040519063b581fbe360e01b82526004820152602081602481865af490811561066c575f91613c6a575b5063ffffffff8516603a5463ffffffff8160401c1680156118bc5780831015613c5457905f63ffffffff613b8c613b959695946140bf565b92166039614f6f565b613ba0602f54612bec565b602f55602f548181029181830414901517156119e157806020915060246040518094819363126a748560e11b835260048301525af490811561066c575f91613c14575b50905f5160206157795f395f51905f526040613aaa9585946014556001549382519182526020820152a39050613aa1565b9190506020823d8211613c4c575b81613c2f60209383612a18565b8101031261039e5790515f5160206157795f395f51905f52613be3565b3d9150613c22565b82631858477560e01b5f5260045260245260445ffd5b90506020813d8211613c93575b81613c8460209383612a18565b8101031261039e57515f613b54565b3d9150613c77565b631a6254d160e31b5f5260045ffd5b905086105f613544565b905042115f613532565b339450613517565b60025f5414613cd55760025f55565b633ee5aeb560e01b5f5260045ffd5b613cec6147ef565b15612e5457613cfa4261481e565b906006549142600b55828114613ea65780600693929355613d1c6010546132cf565b905f9373__$4aa18cb2ebd4829f68603673fae2e2f31a$__945b601054811015613e1757613d4981614174565b15613e0357805f52601560205260405f2054600181018091116119e157670de0b6b3a7640000810290808204670de0b6b3a764000014901517156119e15783613d9191612c4c565b906040519163b581fbe360e01b835260048301526020826024818a5af4801561066c575f90613dd1575b60019250613dc98287613301565b525b01613d36565b506020823d8211613dfb575b81613dea60209383612a18565b8101031261039e5760019151613dbb565b3d9150613ddd565b805f613e1160019387613301565b52613dcb565b5093509163ffffffff603a5460401c169182156118bc57613e79816117ae85613e687fb08cd2f9025943f3583cc9fd3428041e062b4e93e1f5c05a40d221b5d43835c19763ffffffff9651146146ae565b8460201b19603a5416603a556140bf565b911663ffffffff19603a541617603a55603b5560015492613ea1604051928392429184612ac9565b0390a2565b509050565b919080831015613f29576013549283156106ba5783613ec991612c4c565b925f1982019182116119e157613ede91612c4c565b906012548211613f29576037548015159081613f0b575b50613efc57565b63417ce9df60e01b5f5260045ffd5b9050613f178484612c64565b600181018091116119e157115f613ef5565b63561ce9bb60e01b5f5260045ffd5b6004546001600160a01b03168015159081613f51575090565b90503b151590565b60015460409190911b600160401b600160801b031660809190911b6001600160801b031916176001600160401b039091161790565b6038545f52601560205260405f2054600c54906103e882018092116119e1571161185d57565b601254600c545f9182916103e88101908110835b83811115613fdc5750505050602055603855565b613fe581614174565b1561401757805f5260156020528160405f2054906119e157831061185d57805f5260156020528460405f205411614025575b61402090612bec565b613fc8565b5f81815260156020526040902054909550935084614017565b806140465750565b602e546001600160a01b03161561407457600554602e54612e5492916001600160a01b039182169116614085565b61408090600c54612c8e565b600c55565b6140ba612e5493926140ac60405194859263a9059cbb60e01b602085015260248401612bfa565b03601f198101845283612a18565b614999565b63ffffffff5f199116019063ffffffff82116119e157565b9063ffffffff8091169116039063ffffffff82116119e157565b603a5463ffffffff8160401c1680156118bc5763ffffffff841663ffffffff841681811161415f57508181101561414a5750916130bf93915f63ffffffff614141670de0b6b3a7640000966140bf565b92166039614a73565b631858477560e01b5f5260045260245260445ffd5b63e57a21f760e01b5f5260045260245260445ffd5b5f90815260156020526040902060038101546002909101541090565b9283156143305781158015614328575b61431957801561431157670de0b6b3a76400008102908104670de0b6b3a7640000036119e157836141d091612c4c565b9173__$4aa18cb2ebd4829f68603673fae2e2f31a$__926040519063b581fbe360e01b82526004820152602081602481875af490811561066c5782905f926142db575b506142216142279285614400565b93612c64565b91828111156142d2576142429261423d91612c64565b614492565b670de0b6b3a76400008111156142cb5760209060246040518094819363126a748560e11b835260048301525af490811561066c575f91614291575b5061337a90670de0b6b3a764000092612c39565b90506020813d6020116142c3575b816142ac60209383612a18565b8101031261039e5751670de0b6b3a764000061427d565b3d915061429f565b5050505f90565b50505050505f90565b9150506020813d602011614309575b816142f760209383612a18565b8101031261039e575181614221614213565b3d91506142ea565b505050505f90565b63135d4c6760e11b5f5260045ffd5b5082156141a0565b631761d4bb60e01b5f5260045ffd5b90801561433057670de0b6b3a7640000820291808304670de0b6b3a764000014901517156119e15761437091612c4c565b680735beeb55f6f400008110156143f1576040519063b581fbe360e01b8252600482015260208160248173__$4aa18cb2ebd4829f68603673fae2e2f31a$__5af490811561066c575f916143c2575090565b90506020813d6020116143e9575b816143dd60209383612a18565b8101031261039e575190565b3d91506143d0565b632c4292e160e11b5f5260045ffd5b9190915f838202915f198582099183808410930392808403931461447f5782670de0b6b3a7640000111561447057507faccb18165bd6fe31ae1cf318dc5b51eee0e1ba569b88cd74c1773b91fac106699394670de0b6b3a7640000910990828211900360ee1b910360121c170290565b63227bc15360e01b8152600490fd5b505050670de0b6b3a76400009192500490565b90670de0b6b3a76400008202905f19670de0b6b3a7640000840992828085109403938085039414614531578382111561452257670de0b6b3a7640000829109815f0382168092046002816003021880820260020302808202600203028082026002030280820260020302808202600203028091026002030293600183805f03040190848311900302920304170290565b63227bc15360e01b5f5260045ffd5b50906130bf9250612c4c565b801561207c576a0c097ce7bc90715b34b9f160241b0490565b9091828111156142cb5773__$4aa18cb2ebd4829f68603673fae2e2f31a$__926040519163126a748560e11b83526004830152602082602481875af491821561066c575f92614622575b5060209060246040518096819363126a748560e11b835260048301525af492831561066c575f936145ea575b50906145e4670de0b6b3a76400009361337a93612c64565b90612c39565b9250906020833d60201161461a575b8161460660209383612a18565b8101031261039e57915191906145e46145cc565b3d91506145f9565b9091506020813d60201161464f575b8161463e60209383612a18565b8101031261039e57519060206145a0565b3d9150614631565b6040516323b872dd60e01b60208201526001600160a01b039283166024820152929091166044830152606480830193909352918152612e54916140ba608483612a18565b9063ffffffff165f5260205260405f2090565b156146b557565b60405162461bcd60e51b815260206004820152601b60248201527a084eac6d6cae8a8e4caca7440d8cadccee8d040dad2e6dac2e8c6d602b1b6044820152606490fd5b603b546040519063126a748560e11b8252600482015260208160248173__$4aa18cb2ebd4829f68603673fae2e2f31a$__5af490811561066c575f9161474f575b5061337a670de0b6b3a764000091600654612c39565b90506020813d60201161477b575b8161476a60209383612a18565b8101031261039e575161337a614739565b3d915061475d565b9063ffffffff603b54921691603a549263ffffffff8460401c1693848210156147d857816147d2926130bf95965f6147ca63ffffffff670de0b6b3a76400009616926140bf565b916039614a73565b90612c64565b8482631858477560e01b5f5260045260245260445ffd5b6147f7614dee565b1561481a57600954421061481a57600b5461070881018091116119e15742101590565b5f90565b614826614dee565b1561487f57600954808211156148775761483f91612c64565b600a54908181101561486f576147d26130bf9261486a6007549361486560085486612c64565b612c39565b612c4c565b505060085490565b505060075490565b5060065490565b91909181614892614e06565b925b61489e5750505050565b6148c890838111156148ce5783905b6148c36148bc600654846148d4565b8786614e1f565b612c64565b80614894565b806148ad565b906148de9161433f565b6148e78161453d565b90801561207c57670de0b6b3a764000080096149005790565b600181018091116119e15790565b90808310156142cb5773__$4aa18cb2ebd4829f68603673fae2e2f31a$__926040519163126a748560e11b83526004830152602082602481875af491821561066c575f92614622575060209060246040518096819363126a748560e11b835260048301525af492831561066c575f936145ea5750906145e4670de0b6b3a76400009361337a93612c64565b5f806149e19260018060a01b03169360208151910182865af13d15614a2d573d906149c382612b53565b916149d16040519384612a18565b82523d5f602084013e5b836155bf565b8051908115159182614a09575b50506149f75750565b635274afe760e01b5f5260045260245ffd5b819250906020918101031261039e576020015180159081150361039e575f806149ee565b6060906149db565b6001600160c01b031690565b63ffffffff60019116019063ffffffff82116119e157565b9063ffffffff8091169116019063ffffffff82116119e157565b94929190939563ffffffff851615614ba75763ffffffff871663ffffffff8416908082108015614b92575b614b855763ffffffff841610159081614b74575b50614b5a5790869291614ac5868861469b565b60010154614ad290614a35565b614adb90614a35565b614ae491614f1a565b948585614af184866140d7565b614b019060011c637fffffff1690565b614b0b9085614a59565b99614b178b948b61469b565b6001015460c01c614b3163ffffffff808360201c16921690565b95614b3d95918c614a73565b96614b4790614a41565b90614b5196614a73565b6130bf91612c8e565b949150506130bf9450614b6e92915061469b565b54614ed8565b905063ffffffff851610155f614ab2565b5050505050505050505f90565b5063ffffffff861663ffffffff851611614a9e565b9492909591935063ffffffff82169363ffffffff8116928584108015614c19575b614c0d576130bf97614bf89663ffffffff82161015614c055750925b63ffffffff83161015614bfd575091614ec2565b614ed8565b905091614ec2565b905092614be4565b50505050505050505f90565b5063ffffffff831663ffffffff891611614bc8565b80546001600160c01b0319166001600160c01b03909216919091179055565b90929192600182019363ffffffff855460201c169163ffffffff83146119e157614c9a6001614cd0940180979081549063ffffffff60201b9060201b169063ffffffff60201b1916179055565b63ffffffff86165f9081526020859052604090206001810180546001600160c01b031916670de0b6b3a764000017905593614ec2565b9055565b80546001600160c01b031660c09290921b6001600160c01b031916919091179055565b90939193614d06858284614c4d565b94614d11868461469b565b9463ffffffff831663ffffffff83168114614d8a5750614d4f81614d47637fffffff614d3d87876140d7565b60011c1686614a59565b809587614cf7565b94614d659391614d5f9095614a41565b90614cf7565b614d77614d859492614d809294614f57565b60018701614cd4565b612c8e565b809255565b80945081614da0929450614da896979350613301565b519055613301565b5190565b91909181614db8614e06565b925b614dc45750505050565b614de29083811115614de85783905b6148c36148bc6006548461433f565b80614dba565b80614dd3565b600a54151580614dfb5790565b506008546007541190565b6006548060021b90808204600414901517156119e15790565b929190603a549363ffffffff8560401c169485156118bc5763ffffffff831663ffffffff831681811161415f575086811015614eab5750662386f26fc1000084108015614e99575b614e87575f63ffffffff614e7e612e5497986140bf565b92166039615178565b83624625bd60e81b5f5260045260245ffd5b5068056bc75e2d631000008411614e67565b8690631858477560e01b5f5260045260245260445ffd5b60030154910363ffffffff908116600101160290565b80158015614f12575b6132b157670de0b6b3a76400008214614f0d57670de0b6b3a76400008114613a0a57906130bf91614400565b905090565b508115614ee1565b90670de0b6b3a76400008214614f0d57670de0b6b3a76400008114613a0a5781158015614f4f575b6132b1576130bf91614400565b508015614f42565b60201b63ffffffff60201b1663ffffffff9091161790565b9493909363ffffffff851693841561516f57614f8b868861469b565b9563ffffffff821663ffffffff861614615142578185614fab928a615489565b614fcd614fc7614fbb86846140d7565b60011c637fffffff1690565b85614a59565b92836001880195614ff3614fe2885460c01c90565b9063ffffffff808360201c16921690565b9590938b858863ffffffff878116908516116150ec575063ffffffff16156150cc575b908484876150249594614f6f565b61503c615076975b6150368786614f57565b90614cd4565b63ffffffff8316156150bb575050615054908861469b565b54925b63ffffffff8316156150a757505061506f908661469b565b5490612c8e565b825561509561508c600185015463ffffffff1690565b63ffffffff1690565b1461509e575050565b60029054910155565b610f1c92506150b590614a41565b87614ec2565b6150c6925089614ec2565b92615057565b9450906150249184846150e082828a614c4d565b97929394505050615016565b905063ffffffff9150161561511f575b9061511391868d8961510d88614a41565b91614f6f565b61503c6150769761502c565b955061511390615139868d61513387614a41565b90614c4d565b969091506150fc565b5050949390508491505561516061508c600184015463ffffffff1690565b14615169575050565b60020155565b50505050505050565b9591949293909363ffffffff821663ffffffff8216968188108015615474575b6154695763ffffffff871696871561545d576151b4818b61469b565b9863ffffffff8316848110158061544d575b6152df57505083826151d8928c615489565b6151ee6151e8614fbb83866140d7565b82614a59565b946001890190615202614fe2835460c01c90565b9890968c88968a8c9a63ffffffff82168093111561529f575b505063ffffffff841611615243575b5050505061507696509061503c86926150368786614f57565b63ffffffff8a96959b1615615277575b908761526b9493928a61526589614a41565b91615178565b9050855f80808c61522a565b97509061526b9291876152938161528d89614a41565b8c614c4d565b99919293945050615253565b63ffffffff16156152c1575b8585856152ba938b8d88615178565b8a5f61521b565b97506152ba8585856152d48c8c88614c4d565b9b93505050506152ab565b92955092509295501461543f5760018601926153036152fe8554614a35565b614a35565b8161530e8183614f1a565b670de0b6b3a76400008314159081615412575b506153f5575b61533d91615336828b54614ed8565b8a55614f1a565b683635c9adc5dea00000811180156153e5575b156153a957506153959461537b9390929091615375906001600160c01b031686614c2e565b88615489565b80546001600160c01b031916670de0b6b3a7640000179055565b61509561508c600185015463ffffffff1690565b9450506001600160c01b03841191506153d69050576153d1916001600160c01b031690614c2e565b615395565b63bf4d83ab60e01b5f5260045ffd5b5066038d7ea4c680008110615350565b50506154038584848b615489565b670de0b6b3a764000081615327565b683635c9adc5dea0000081119150811561542e575b505f615321565b66038d7ea4c680009150105f615427565b505061507691508354614ed8565b5063ffffffff89168211156151c6565b50505050505050505050565b505050505050505050565b5063ffffffff861663ffffffff821611615198565b9263ffffffff821691821580156155aa575b6155a3576154a9908561469b565b926001840180546154bc6152fe82614a35565b93670de0b6b3a76400008514615599576154ef614fe26154e86154e2614fbb88866140d7565b87614a59565b9360c01c90565b909590948563ffffffff88161561557f575b63ffffffff161561555d575b8361551a9183898d61561d565b61552661552e93614a41565b90858a61561d565b6155558361554f61506f9361537b6155498761507699614f57565b82614cd4565b8761469b565b54918661469b565b945061551a836155768461557083614a41565b8d614c4d565b9691505061550d565b965063ffffffff61559185838d614c4d565b979050615501565b5050505050505050565b5050505050565b5063ffffffff821663ffffffff85161461549b565b906155e357508051156155d457805190602001fd5b630a12f52160e11b5f5260045ffd5b81511580615614575b6155f4575090565b639996b31560e01b5f9081526001600160a01b0391909116600452602490fd5b50803b156155ec565b939263ffffffff8216929183158015615707575b6156ff5761563f818761469b565b9460018601926156526152fe8554614a35565b9261565d8685614f1a565b9363ffffffff831663ffffffff85161190816156ec575b50806156ca575b156156ac5761568b935088615489565b6153959161569b815b8654614ed8565b85556001600160c01b031690614c2e565b50506001600160c01b03821190506153d65761569b61539593615694565b50683635c9adc5dea0000084118061567b575066038d7ea4c68000841061567b565b670de0b6b3a7640000915014155f615674565b505050505050565b50670de0b6b3a7640000831461563156fe61035b26e3e9eee00e0d72fd1ee8ddca6894550dca6916ea2ac6baa90d11e5103a6357012c1a3ae0a17d304c9920310382d968ebcc4b1771f41c6b304205b570d57b2b5166478fd4318d2acc6cc2c704584312bdd8781b32d5d06abda57f4230cc66217056e00df89ae1e52fddf7bfd25c679b9bfebc0c5b9a6a9e214f8105277cd332d19b93bcabe3cce7ca0c18a052f57e5fd03b4758a09f30f5ddc4b22ec4a164736f6c634300081c000a","linkReferences":{"src/FixedPointMath.sol":{"FixedPointMath":[{"start":1718,"length":20},{"start":8459,"length":20},{"start":10387,"length":20},{"start":13970,"length":20},{"start":16646,"length":20},{"start":17798,"length":20},{"start":18964,"length":20},{"start":19608,"length":20},{"start":20131,"length":20},{"start":21333,"length":20},{"start":21790,"length":20},{"start":22244,"length":20},{"start":22680,"length":20},{"start":23195,"length":20}]}}},"methodIdentifiers":{"ALPHA_EPOCH_LENGTH()":"e0c2218e","CACHE_RESET_INTERVAL()":"c494bd92","MAX_FEE_BPS()":"d55be8c6","MIN_ALPHA_FLOOR_BPS()":"9307ee39","PHANTOM_SHARES()":"217c16e4","SOLVENCY_DUST()":"b70a7598","WAD()":"6a146024","activeBucketCount()":"bdaef623","addLiquidity(uint256)":"51c6590a","alpha()":"db1d0fd5","alphaFinal()":"e0af4fed","alphaInitial()":"09c51406","biddingDeadline()":"0fd388d3","bucketCount()":"c2f5673e","bucketWidth()":"4043a2fb","buckets(uint256)":"9b51fb0d","buySharesRange(uint256,uint256,uint256,uint256,uint256,address)":"d304420f","calculateReturnForShares(uint256,uint256)":"868be003","calculateSharesForCost(uint256,uint256)":"64daf9f2","claim(uint256,address)":"ddd5e1b2","configureAlphaDecay(uint256,uint256,uint256)":"4c8011bc","creationTime()":"d8270dce","creator()":"02d05d3f","currentMaxBucketId()":"4218bf02","decayDuration()":"ba35736e","decayStartTime()":"c17e608f","description()":"7284e416","emergencyPause()":"51858e27","emergencyUnpause()":"4a4e3bd5","factory()":"c45a0155","feeBps()":"24a9d853","feesCollectedLP()":"147d1862","feesCollectedProtocol()":"f91b73c3","getLPProfitability()":"51a2f80a","getQuoteForRange(uint256,uint256,uint256)":"25c07832","getRequiredReserves()":"67749581","getSafetyBuffer()":"647365d5","getWithdrawableSurplus()":"1b832499","initialBucketOffset()":"b298523b","initialDeposit()":"e037f889","initialize((uint256,address,address,address,address,uint256,uint256,uint256,uint256,uint256[],uint256[],uint256,uint256,(string,string,string,string,address,uint256,uint256,uint256),address))":"63c1bc8b","lastAlphaSyncTime()":"31a36c38","lpFeesAccrued()":"4bf33ab8","lpVault()":"2f867367","lpWithdrawn()":"77b8c9a5","marketId()":"6ed71ede","marketMin()":"5c038416","maxBucketCount()":"67041509","maxBucketId()":"ff45f144","maxLiability()":"6db49f60","maxRangeWidth()":"8f923177","minBetSize()":"61d5f225","name()":"06fdde03","poolBalance()":"96365d44","positionNFT()":"23228ecb","protocolFeeBps()":"35659fb8","protocolFeeCollector()":"850a1501","resolutionCriteria()":"519a1d84","resolutionTime()":"f3e41e90","resolutionValue()":"08feb1ab","resolveMarket(uint256)":"6399d03d","resolver()":"04f3bcec","router()":"f887ea40","scheduledResolutionTime()":"38a3f3c5","sellSharesRange(uint256,uint256,uint256,uint256,address)":"0f14cbe6","setFees(uint256,uint256)":"0b78f9c0","setLPVault(address)":"6c8d9e37","setMaxRangeWidth(uint256)":"f0b51790","setRouter(address)":"c0d78655","status()":"200d2ed2","syncAlpha()":"3b5d9d08","totalDeposited()":"ff50abdc","totalSurplusWithdrawn()":"893f47b4","totalVolume()":"5f81a57c","usdcToken()":"11eac855","valueUnit()":"5fd39d2f","winningBucket()":"34d492aa","withdrawLP()":"a1a64a1e","withdrawSurplus(address,uint256)":"b4845fff"},"id":84}