{"abi":[{"type":"constructor","inputs":[{"name":"_implementation","type":"address","internalType":"address"},{"name":"_usdcToken","type":"address","internalType":"address"},{"name":"_positionNFT","type":"address","internalType":"address"},{"name":"_minPoolBalance","type":"uint256","internalType":"uint256"},{"name":"_maxBuckets","type":"uint256","internalType":"uint256"},{"name":"_defaultFeeBps","type":"uint256","internalType":"uint256"},{"name":"_defaultProtocolFeeBps","type":"uint256","internalType":"uint256"},{"name":"_protocolFeeCollector","type":"address","internalType":"address"}],"stateMutability":"nonpayable"},{"type":"function","name":"addCreatorAllowance","inputs":[{"name":"creator","type":"address","internalType":"address"},{"name":"slots","type":"uint256","internalType":"uint256"}],"outputs":[],"stateMutability":"nonpayable"},{"type":"function","name":"createMarket","inputs":[{"name":"p","type":"tuple","internalType":"struct MarketFactory.MarketParams","components":[{"name":"alpha","type":"uint256","internalType":"uint256"},{"name":"seedAmount","type":"uint256","internalType":"uint256"},{"name":"bucketWidth","type":"uint256","internalType":"uint256"},{"name":"maxBucketId","type":"uint256","internalType":"uint256"},{"name":"seededBucketIds","type":"uint256[]","internalType":"uint256[]"},{"name":"seededShares","type":"uint256[]","internalType":"uint256[]"},{"name":"alphaFinal","type":"uint256","internalType":"uint256"},{"name":"decayStart","type":"uint256","internalType":"uint256"},{"name":"decayDuration","type":"uint256","internalType":"uint256"},{"name":"name","type":"string","internalType":"string"},{"name":"description","type":"string","internalType":"string"},{"name":"resolutionCriteria","type":"string","internalType":"string"},{"name":"valueUnit","type":"string","internalType":"string"},{"name":"resolver","type":"address","internalType":"address"},{"name":"biddingDeadline","type":"uint256","internalType":"uint256"},{"name":"scheduledResolutionTime","type":"uint256","internalType":"uint256"},{"name":"minBetSize","type":"uint256","internalType":"uint256"},{"name":"maxBucketsPerRange","type":"uint256","internalType":"uint256"}]}],"outputs":[{"name":"marketAddress","type":"address","internalType":"address"}],"stateMutability":"nonpayable"},{"type":"function","name":"creatorAllowance","inputs":[{"name":"","type":"address","internalType":"address"}],"outputs":[{"name":"","type":"uint256","internalType":"uint256"}],"stateMutability":"view"},{"type":"function","name":"defaultFeeBps","inputs":[],"outputs":[{"name":"","type":"uint256","internalType":"uint256"}],"stateMutability":"view"},{"type":"function","name":"defaultMaxBucketsPerRange","inputs":[],"outputs":[{"name":"","type":"uint256","internalType":"uint256"}],"stateMutability":"view"},{"type":"function","name":"defaultProtocolFeeBps","inputs":[],"outputs":[{"name":"","type":"uint256","internalType":"uint256"}],"stateMutability":"view"},{"type":"function","name":"implementation","inputs":[],"outputs":[{"name":"","type":"address","internalType":"address"}],"stateMutability":"view"},{"type":"function","name":"isValidMarket","inputs":[{"name":"","type":"address","internalType":"address"}],"outputs":[{"name":"","type":"bool","internalType":"bool"}],"stateMutability":"view"},{"type":"function","name":"marketById","inputs":[{"name":"","type":"uint256","internalType":"uint256"}],"outputs":[{"name":"","type":"address","internalType":"address"}],"stateMutability":"view"},{"type":"function","name":"marketCount","inputs":[],"outputs":[{"name":"","type":"uint256","internalType":"uint256"}],"stateMutability":"view"},{"type":"function","name":"maxBuckets","inputs":[],"outputs":[{"name":"","type":"uint256","internalType":"uint256"}],"stateMutability":"view"},{"type":"function","name":"minPoolBalance","inputs":[],"outputs":[{"name":"","type":"uint256","internalType":"uint256"}],"stateMutability":"view"},{"type":"function","name":"owner","inputs":[],"outputs":[{"name":"","type":"address","internalType":"address"}],"stateMutability":"view"},{"type":"function","name":"pauseMarket","inputs":[{"name":"_marketId","type":"uint256","internalType":"uint256"}],"outputs":[],"stateMutability":"nonpayable"},{"type":"function","name":"positionNFT","inputs":[],"outputs":[{"name":"","type":"address","internalType":"contract PositionNFT"}],"stateMutability":"view"},{"type":"function","name":"protocolFeeCollector","inputs":[],"outputs":[{"name":"","type":"address","internalType":"address"}],"stateMutability":"view"},{"type":"function","name":"renounceOwnership","inputs":[],"outputs":[],"stateMutability":"nonpayable"},{"type":"function","name":"router","inputs":[],"outputs":[{"name":"","type":"address","internalType":"address"}],"stateMutability":"view"},{"type":"function","name":"setCreatorAllowance","inputs":[{"name":"creator","type":"address","internalType":"address"},{"name":"slots","type":"uint256","internalType":"uint256"}],"outputs":[],"stateMutability":"nonpayable"},{"type":"function","name":"setDefaultFeeBps","inputs":[{"name":"newDefaultFeeBps","type":"uint256","internalType":"uint256"}],"outputs":[],"stateMutability":"nonpayable"},{"type":"function","name":"setDefaultMaxBucketsPerRange","inputs":[{"name":"newMaxBucketsPerRange","type":"uint256","internalType":"uint256"}],"outputs":[],"stateMutability":"nonpayable"},{"type":"function","name":"setDefaultProtocolFeeBps","inputs":[{"name":"newDefaultProtocolFeeBps","type":"uint256","internalType":"uint256"}],"outputs":[],"stateMutability":"nonpayable"},{"type":"function","name":"setMaxBuckets","inputs":[{"name":"newMaxBuckets","type":"uint256","internalType":"uint256"}],"outputs":[],"stateMutability":"nonpayable"},{"type":"function","name":"setMinPoolBalance","inputs":[{"name":"newMinPoolBalance","type":"uint256","internalType":"uint256"}],"outputs":[],"stateMutability":"nonpayable"},{"type":"function","name":"setProtocolFeeCollector","inputs":[{"name":"_collector","type":"address","internalType":"address"}],"outputs":[],"stateMutability":"nonpayable"},{"type":"function","name":"setRouter","inputs":[{"name":"_router","type":"address","internalType":"address"}],"outputs":[],"stateMutability":"nonpayable"},{"type":"function","name":"setVault","inputs":[{"name":"_vault","type":"address","internalType":"address"}],"outputs":[],"stateMutability":"nonpayable"},{"type":"function","name":"transferOwnership","inputs":[{"name":"newOwner","type":"address","internalType":"address"}],"outputs":[],"stateMutability":"nonpayable"},{"type":"function","name":"unpauseMarket","inputs":[{"name":"_marketId","type":"uint256","internalType":"uint256"}],"outputs":[],"stateMutability":"nonpayable"},{"type":"function","name":"updateMarketFees","inputs":[{"name":"market","type":"address","internalType":"address"}],"outputs":[],"stateMutability":"nonpayable"},{"type":"function","name":"updateMarketFeesBatch","inputs":[{"name":"markets","type":"address[]","internalType":"address[]"}],"outputs":[],"stateMutability":"nonpayable"},{"type":"function","name":"updateMarketRouter","inputs":[{"name":"market","type":"address","internalType":"address"},{"name":"_router","type":"address","internalType":"address"}],"outputs":[],"stateMutability":"nonpayable"},{"type":"function","name":"usdcToken","inputs":[],"outputs":[{"name":"","type":"address","internalType":"contract IUSDC"}],"stateMutability":"view"},{"type":"function","name":"vault","inputs":[],"outputs":[{"name":"","type":"address","internalType":"contract Vault"}],"stateMutability":"view"},{"type":"event","name":"CreatorAllowanceAdded","inputs":[{"name":"creator","type":"address","indexed":true,"internalType":"address"},{"name":"added","type":"uint256","indexed":false,"internalType":"uint256"},{"name":"total","type":"uint256","indexed":false,"internalType":"uint256"}],"anonymous":false},{"type":"event","name":"CreatorAllowanceSet","inputs":[{"name":"creator","type":"address","indexed":true,"internalType":"address"},{"name":"allowance","type":"uint256","indexed":false,"internalType":"uint256"}],"anonymous":false},{"type":"event","name":"DefaultFeeBpsUpdated","inputs":[{"name":"oldValue","type":"uint256","indexed":false,"internalType":"uint256"},{"name":"newValue","type":"uint256","indexed":false,"internalType":"uint256"}],"anonymous":false},{"type":"event","name":"DefaultMaxBucketsPerRangeUpdated","inputs":[{"name":"oldValue","type":"uint256","indexed":false,"internalType":"uint256"},{"name":"newValue","type":"uint256","indexed":false,"internalType":"uint256"}],"anonymous":false},{"type":"event","name":"DefaultProtocolFeeBpsUpdated","inputs":[{"name":"oldValue","type":"uint256","indexed":false,"internalType":"uint256"},{"name":"newValue","type":"uint256","indexed":false,"internalType":"uint256"}],"anonymous":false},{"type":"event","name":"MarketCreated","inputs":[{"name":"marketId","type":"uint256","indexed":true,"internalType":"uint256"},{"name":"marketAddress","type":"address","indexed":true,"internalType":"address"},{"name":"creator","type":"address","indexed":true,"internalType":"address"},{"name":"poolBalance","type":"uint256","indexed":false,"internalType":"uint256"},{"name":"bucketCount","type":"uint256","indexed":false,"internalType":"uint256"}],"anonymous":false},{"type":"event","name":"MarketPaused","inputs":[{"name":"marketId","type":"uint256","indexed":true,"internalType":"uint256"},{"name":"marketAddress","type":"address","indexed":true,"internalType":"address"}],"anonymous":false},{"type":"event","name":"MarketUnpaused","inputs":[{"name":"marketId","type":"uint256","indexed":true,"internalType":"uint256"},{"name":"marketAddress","type":"address","indexed":true,"internalType":"address"}],"anonymous":false},{"type":"event","name":"MaxBucketsUpdated","inputs":[{"name":"oldValue","type":"uint256","indexed":false,"internalType":"uint256"},{"name":"newValue","type":"uint256","indexed":false,"internalType":"uint256"}],"anonymous":false},{"type":"event","name":"MinPoolBalanceUpdated","inputs":[{"name":"oldValue","type":"uint256","indexed":false,"internalType":"uint256"},{"name":"newValue","type":"uint256","indexed":false,"internalType":"uint256"}],"anonymous":false},{"type":"event","name":"OwnershipTransferred","inputs":[{"name":"previousOwner","type":"address","indexed":true,"internalType":"address"},{"name":"newOwner","type":"address","indexed":true,"internalType":"address"}],"anonymous":false},{"type":"event","name":"ProtocolFeeCollectorUpdated","inputs":[{"name":"oldCollector","type":"address","indexed":true,"internalType":"address"},{"name":"newCollector","type":"address","indexed":true,"internalType":"address"}],"anonymous":false},{"type":"event","name":"RouterUpdated","inputs":[{"name":"oldRouter","type":"address","indexed":true,"internalType":"address"},{"name":"newRouter","type":"address","indexed":true,"internalType":"address"}],"anonymous":false},{"type":"event","name":"VaultUpdated","inputs":[{"name":"oldVault","type":"address","indexed":true,"internalType":"address"},{"name":"newVault","type":"address","indexed":true,"internalType":"address"}],"anonymous":false},{"type":"error","name":"ERC1167FailedCreateClone","inputs":[]},{"type":"error","name":"InvalidBucketRanges","inputs":[]},{"type":"error","name":"InvalidParameters","inputs":[]},{"type":"error","name":"NotWhitelisted","inputs":[]},{"type":"error","name":"OwnableInvalidOwner","inputs":[{"name":"owner","type":"address","internalType":"address"}]},{"type":"error","name":"OwnableUnauthorizedAccount","inputs":[{"name":"account","type":"address","internalType":"address"}]},{"type":"error","name":"PoolBalanceTooLow","inputs":[]},{"type":"error","name":"TooManyBuckets","inputs":[]},{"type":"error","name":"VaultNotSet","inputs":[]}],"bytecode":{"object":"0x60e0346101c657601f611b7238819003918201601f19168301916001600160401b038311848410176101ca57808492610100946040528339810103126101c657610048816101de565b610054602083016101de565b91610061604082016101de565b606082015160808301519060a08401519261008360e060c087015196016101de565b9033156101b3575f8054336001600160a01b03198216811783556040519a9290916001600160a01b0316907f8be0079c531659141344cd1fd0a4f28419497f9722a3daafe3b4186f6b6457e09080a36001600160a01b038816156101a4576001600160a01b03169081156101a4576001600160a01b03169182156101a45783156101a457600285106101a4576101f486116101a45761271087116101a4576001600160a01b03169687156101a45760c05260a052608052600655600755600855600955600a80546001600160a01b03191691909117905561197f90816101f3823960805181818161078101528181610a0801528181610a5301526116c4015260a0518181816107590152611705015260c05181818161066f01526114080152f35b630e52390960e41b5f5260045ffd5b631e4fbdf760e01b5f525f60045260245ffd5b5f80fd5b634e487b7160e01b5f52604160045260245ffd5b51906001600160a01b03821682036101c65756fe6080806040526004361015610012575f80fd5b5f905f3560e01c90816311eac855146116f35750806323228ecb146116af578063268d8eec146116925780632b7bcadf146115e85780632f9d6579146115475780634373a286146114e75780634d13b5bf1461147657806358e6309f146114375780635c60da1b146113f25780636817031b1461137d578063715018a614611336578063719adf701461128c578063850a15011461126357806387784844146111ad5780638da5cb5b146111865780639dd4a9361461114d5780639fcfb06e146110f7578063b345faab14610fdc578063bc37bf5514610fa9578063bcae25a414610f8b578063c0d7865514610f20578063c5e3ea4614610ec0578063cfca314714610e4b578063d82af4b514610e2d578063d918439714610454578063da0596a114610436578063dde7a5e6146103d7578063ec979082146103b9578063f2fde38b14610346578063f629907a146102da578063f6bcc11a146102bc578063f887ea4014610293578063fbfa77cf1461026a5763fc12524c14610194575f80fd5b34610267576020366003190112610267576004356101b061192c565b808252600460205260408220546001600160a01b031690811561025857818352600360205260ff6040842054161561025857813b15610249576040516351858e2760e01b81528390818160048183885af1801561024d57610234575b50807f9ba3551d939aa41cc4b27f47dcabdffc010f8f3a0ab092a80a52eaa6ee1245dc91a380f35b8161023e9161174a565b61024957825f61020c565b8280fd5b6040513d84823e3d90fd5b630e52390960e41b8352600483fd5b80fd5b50346102675780600319360112610267576001546040516001600160a01b039091168152602090f35b5034610267578060031936011261026757600c546040516001600160a01b039091168152602090f35b50346102675780600319360112610267576020600654604051908152f35b5034610267576020366003190112610267576004356102f761192c565b80156103375760407f34ce8414e8fd28efa9aeaf462418264b7decdeff2c1d8c53a489935cc8d0cc8b91600654908060065582519182526020820152a180f35b630e52390960e41b8252600482fd5b503461026757602036600319011261026757610360611734565b61036861192c565b6001600160a01b031680156103a55781546001600160a01b03198116821783556001600160a01b03165f5160206119535f395f51905f528380a380f35b631e4fbdf760e01b82526004829052602482fd5b50346102675780600319360112610267576020600254604051908152f35b5034610267576020366003190112610267576004356103f461192c565b600281106103375760407f51858306dad13fafbe4f4b853ac947a5dade9942c87bbd515a94d87b3b985f9f91600754908060075582519182526020820152a180f35b50346102675780600319360112610267576020600b54604051908152f35b5034610267576020366003190112610267576001600160401b03600435116102675761024060043536036003190112610267576001546001600160a01b031615610e1e57338152600560205260408120548015610e0f575f198101908111610dce57338252600560205260408220556004356004013515610df1576006546024600435013510610e00576044600435013515610df15760026105006084600435016004356004016117b9565b905010610df15761051b6084600435016004356004016117b9565b91905060a46004350191610534836004356004016117b9565b91905003610de2576004356064013560018101908110610dce5760075410610dbf576008549160095490600254905f198214610dab5760018201600255610586610124600435016004356004016117ee565b9061059c610144600435016004356004016117ee565b906105b2610164600435016004356004016117ee565b6105c7610184600435016004356004016117ee565b9390946105d96101a4600435016117a5565b604051989097906101008a016001600160401b0381118b821017610d97579261061661061f936106379a9998969361062b98966040523691611820565b8b523691611820565b60208901523691611820565b60408601523691611820565b60608301526001600160a01b031660808201526004356101c481013560a08301526101e481013560c0830152610204013560e08201527f0000000000000000000000000000000000000000000000000000000000000000608881901c62ffffff16763d602d80600a3d3981f3363d3d373d3d3d363d7300000017865260781b6e5af43d82803e903d91602b57fd5bf3176020526037600986f0936001600160a01b03851615610d88579061070892916106fa6084600435016004356004016117b9565b9490936004356004016117b9565b600a54604051929a92966001600160a01b0390911695906101e088018089116001600160401b0390911117610d74576101e0880160409081528989523360208a015230908901526001600160a01b037f0000000000000000000000000000000000000000000000000000000000000000811660608a01527f0000000000000000000000000000000000000000000000000000000000000000166080890152600480359081013560a08a0152602481013560c08a0152604481013560e08a015260640135610100890152999a989997988b986107f79391926107ea913691611865565b6101208901523691611865565b6101408601526101608501526101808401526101a08301526101c08201526001600160a01b0384163b15610cda57604080516363c1bc8b60e01b8152602060048201819052835160248301528301516001600160a01b0390811660448301529183015182166064820152606083015182166084820152608083015190911660a482015260a082015160c482015260c082015160e482015260e08201516101048201526101008201516101248201526101208201516101e061014483015290918391839182916108e7906108cf906102048501906118ba565b610140830151848203602319016101648601526118ba565b906101608101516101848401526101808101516101a48401526101a081015191602319848203016101c485015260e08061096b610959610947610935885161010088526101008801906118ed565b602089015187820360208901526118ed565b604088015186820360408801526118ed565b606087015185820360608701526118ed565b9460018060a01b03608082015116608085015260a081015160a085015260c081015160c085015201519101526101c060018060a01b03910151166101e483015203818360018060a01b0389165af1801561024d57610d5f575b50506001600160a01b03828116808552600360209081526040808720805460ff191660011790558487526004909152852080546001600160a01b03191690911790557f0000000000000000000000000000000000000000000000000000000000000000163b1561024957604051636a1701bd60e01b81528390818180610a4e868860048401611911565b0381837f00000000000000000000000000000000000000000000000000000000000000006001600160a01b03165af1801561024d57610d4a575b506001546001600160a01b039081169084163b15610cda57604051636c8d9e3760e01b815260048101919091528181602481836001600160a01b0389165af1801561024d57610d35575b50600c546001600160a01b031680610cde575b506001546001600160a01b0316803b15610cda57816040518092638726646d60e01b8252818381610b20602460043501358b60048401611911565b03925af1801561024d57610cc5575b50610104600435013580151580610cb6575b610c38575b5050600435610224013580610c335750600b545b80610bcd575b60208383610b786084600435016004356004016117b9565b9050604051906024600435013582528482015233917fc4b5cb94693653ae5c32763ba9a44acaa110bbbe42bd5be97514ffe6dab52294604060018060a01b03861693a46040516001600160a01b039091168152f35b6001600160a01b0383163b15610c2f57604051630f0b517960e41b815260048101919091528381602481836001600160a01b0388165af18015610c245715610b6057610c1a84809261174a565b6102495782610b60565b6040513d86823e3d90fd5b8380fd5b610b5a565b60043560e4013580610cb0575042905b6001600160a01b0385163b1561024957604051631320046f60e21b81526004803560c4013590820152602481019290925260448201528181606481836001600160a01b0389165af1801561024d5715610b465781610ca59161174a565b61024957825f610b46565b90610c48565b5060c460043501351515610b41565b81610ccf9161174a565b61024957825f610b2f565b5080fd5b6001600160a01b0384163b15610cda5760405163c0d7865560e01b815260048101919091528181602481836001600160a01b0389165af1801561024d5715610ae55781610d2a9161174a565b61024957825f610ae5565b81610d3f9161174a565b61024957825f610ad2565b81610d549161174a565b61024957825f610a88565b81610d699161174a565b61024957825f6109c4565b634e487b7160e01b8b52604160045260248bfd5b6330be1a3d60e21b8652600486fd5b634e487b7160e01b8f52604160045260248ffd5b634e487b7160e01b84526011600452602484fd5b632a52366760e11b8152600490fd5b634e487b7160e01b82526011600452602482fd5b632cd6232960e21b8152600490fd5b630e52390960e41b8152600490fd5b6396b10c1160e01b8152600490fd5b630b094f2760e31b8252600482fd5b630647140b60e51b8152600490fd5b50346102675780600319360112610267576020600954604051908152f35b503461026757602036600319011261026757610e65611734565b610e6d61192c565b6001600160a01b0316801561033757600a80546001600160a01b0319811683179091556001600160a01b03167fd975c62eaa3c65dc5a253ebc57cfcd285d46a7cab97817ca43413a396e3303a88380a380f35b503461026757602036600319011261026757600435610edd61192c565b61271081116103375760407feb42b2a8cbf17d114c3864b12f750b41884dc857b0cbb98b7b7135b4f3a7bf9291600954908060095582519182526020820152a180f35b503461026757602036600319011261026757610f3a611734565b610f4261192c565b600c80546001600160a01b039283166001600160a01b0319821681179092559091167f02dc5c233404867c793b749c6d644beb2277536d18a7e7974d3f238e4c6f16848380a380f35b50346102675780600319360112610267576020600854604051908152f35b503461026757602036600319011261026757602090600435815260048252604060018060a01b0391205416604051908152f35b5034610267576020366003190112610267576004356001600160401b038111610cda5736602382011215610cda576004810135906001600160401b038211610249576024810190602436918460051b0101116102495761103a61192c565b825b828110611047578380f35b6001600160a01b0361106261105d838686611781565b6117a5565b168452600360205260ff604085205416156110e857836001600160a01b0361108e61105d848787611781565b16600854600954823b15610c2f5760448492836040519586948593622de3e760e61b8552600485015260248401525af1801561024d576110d3575b505060010161103c565b816110dd9161174a565b610c2f57835f6110c9565b630e52390960e41b8452600484fd5b5034610267576020366003190112610267577f908a1ac58297531af5ba363fc51913673129b33875701f83a7d8b87586faa684604060043561113761192c565b600b549080600b5582519182526020820152a180f35b5034610267576020366003190112610267576020906040906001600160a01b03611175611734565b168152600583522054604051908152f35b5034610267578060031936011261026757546040516001600160a01b039091168152602090f35b5034610267576020366003190112610267576004356111ca61192c565b808252600460205260408220546001600160a01b031690811561025857818352600360205260ff6040842054161561025857813b1561024957604051634a4e3bd560e01b81528390818160048183885af1801561024d5761124e575b50807ffc982b0cb9c279b1f447d3b3e0645c97eb67699c0afef3b2d9157fa7470abf0991a380f35b816112589161174a565b61024957825f611226565b5034610267578060031936011261026757600a546040516001600160a01b039091168152602090f35b5034610267576040366003190112610267576112a6611734565b602435906112b261192c565b6001600160a01b03169081156102585780156102585781835260056020526040832080549082820180921161132257916040917f63810a3ea9e8b0e4821a55d5752f8eef7a539edb527c89696eb7ebede9446dd7935583855260056020528185205482519182526020820152a280f35b634e487b7160e01b85526011600452602485fd5b503461026757806003193601126102675761134f61192c565b80546001600160a01b03198116825581906001600160a01b03165f5160206119535f395f51905f528280a380f35b503461026757602036600319011261026757611397611734565b61139f61192c565b6001600160a01b0316801561033757600180546001600160a01b0319811683179091556001600160a01b03167f483bdedaaf23706a9800ac1af0d852b34927780d79f9d6ba60a80c7cad75ea398380a380f35b50346102675780600319360112610267576040517f00000000000000000000000000000000000000000000000000000000000000006001600160a01b03168152602090f35b50346102675760203660031901126102675760209060ff906040906001600160a01b03611462611734565b168152600384522054166040519015158152f35b503461026757604036600319011261026757611490611734565b6024359061149c61192c565b6001600160a01b03169081156102585760207ff1e6e2d3034b4c5f5d6b60ed7f721761d0a7c476a4f68089c01d51e66ea6fa5f9183855260058252806040862055604051908152a280f35b50346102675760203660031901126102675760043561150461192c565b6101f481116103375760407f3062378541f1b58e0547bfb13e7d7585153e442e477e263c6e63d4775b3072a691600854908060085582519182526020820152a180f35b503461026757604036600319011261026757611561611734565b6024356001600160a01b038116929190839003610cda5761158061192c565b6001600160a01b03168082526003602052604082205460ff1615610337578192813b156115e457829160248392604051948593849263c0d7865560e01b845260048401525af1801561024d576115d35750f35b816115dd9161174a565b6102675780f35b5050fd5b503461167f57602036600319011261167f57611602611734565b61160a61192c565b6001600160a01b03165f8181526003602052604090205460ff161561168357600854600954823b1561167f5760445f92836040519586948593622de3e760e61b8552600485015260248401525af1801561167457611666575080f35b61167291505f9061174a565b005b6040513d5f823e3d90fd5b5f80fd5b630e52390960e41b5f5260045ffd5b3461167f575f36600319011261167f576020600754604051908152f35b3461167f575f36600319011261167f576040517f00000000000000000000000000000000000000000000000000000000000000006001600160a01b03168152602090f35b3461167f575f36600319011261167f577f00000000000000000000000000000000000000000000000000000000000000006001600160a01b03168152602090f35b600435906001600160a01b038216820361167f57565b601f909101601f19168101906001600160401b0382119082101761176d57604052565b634e487b7160e01b5f52604160045260245ffd5b91908110156117915760051b0190565b634e487b7160e01b5f52603260045260245ffd5b356001600160a01b038116810361167f5790565b903590601e198136030182121561167f57018035906001600160401b03821161167f57602001918160051b3603831361167f57565b903590601e198136030182121561167f57018035906001600160401b03821161167f5760200191813603831361167f57565b9192916001600160401b03821161176d5760405191611849601f8201601f19166020018461174a565b82948184528183011161167f578281602093845f960137010152565b909291906001600160401b03841161176d578360051b90602060405161188d8285018261174a565b809681520191810192831161167f57905b8282106118aa57505050565b813581526020918201910161189e565b90602080835192838152019201905f5b8181106118d75750505090565b82518452602093840193909201916001016118ca565b805180835260209291819084018484015e5f828201840152601f01601f1916010190565b6001600160a01b039091168152602081019190915260400190565b5f546001600160a01b0316330361193f57565b63118cdaa760e01b5f523360045260245ffdfe8be0079c531659141344cd1fd0a4f28419497f9722a3daafe3b4186f6b6457e0a164736f6c634300081c000a","linkReferences":{}},"methodIdentifiers":{"addCreatorAllowance(address,uint256)":"719adf70","createMarket((uint256,uint256,uint256,uint256,uint256[],uint256[],uint256,uint256,uint256,string,string,string,string,address,uint256,uint256,uint256,uint256))":"d9184397","creatorAllowance(address)":"9dd4a936","defaultFeeBps()":"bcae25a4","defaultMaxBucketsPerRange()":"da0596a1","defaultProtocolFeeBps()":"d82af4b5","implementation()":"5c60da1b","isValidMarket(address)":"58e6309f","marketById(uint256)":"bc37bf55","marketCount()":"ec979082","maxBuckets()":"268d8eec","minPoolBalance()":"f6bcc11a","owner()":"8da5cb5b","pauseMarket(uint256)":"fc12524c","positionNFT()":"23228ecb","protocolFeeCollector()":"850a1501","renounceOwnership()":"715018a6","router()":"f887ea40","setCreatorAllowance(address,uint256)":"4d13b5bf","setDefaultFeeBps(uint256)":"4373a286","setDefaultMaxBucketsPerRange(uint256)":"9fcfb06e","setDefaultProtocolFeeBps(uint256)":"c5e3ea46","setMaxBuckets(uint256)":"dde7a5e6","setMinPoolBalance(uint256)":"f629907a","setProtocolFeeCollector(address)":"cfca3147","setRouter(address)":"c0d78655","setVault(address)":"6817031b","transferOwnership(address)":"f2fde38b","unpauseMarket(uint256)":"87784844","updateMarketFees(address)":"2b7bcadf","updateMarketFeesBatch(address[])":"b345faab","updateMarketRouter(address,address)":"2f9d6579","usdcToken()":"11eac855","vault()":"fbfa77cf"},"id":85}