{"abi":[{"type":"constructor","inputs":[{"name":"_implementation","type":"address","internalType":"address"},{"name":"_usdcToken","type":"address","internalType":"address"},{"name":"_positionNFT","type":"address","internalType":"address"},{"name":"_minPoolBalance","type":"uint256","internalType":"uint256"},{"name":"_maxBuckets","type":"uint256","internalType":"uint256"},{"name":"_defaultFeeBps","type":"uint256","internalType":"uint256"},{"name":"_defaultProtocolFeeBps","type":"uint256","internalType":"uint256"},{"name":"_protocolFeeCollector","type":"address","internalType":"address"}],"stateMutability":"nonpayable"},{"type":"function","name":"addCreatorAllowance","inputs":[{"name":"creator","type":"address","internalType":"address"},{"name":"slots","type":"uint256","internalType":"uint256"}],"outputs":[],"stateMutability":"nonpayable"},{"type":"function","name":"createMarket","inputs":[{"name":"p","type":"tuple","internalType":"struct MarketFactory.MarketParams","components":[{"name":"alpha","type":"uint256","internalType":"uint256"},{"name":"seedAmount","type":"uint256","internalType":"uint256"},{"name":"minValue","type":"uint256","internalType":"uint256"},{"name":"maxValue","type":"uint256","internalType":"uint256"},{"name":"bucketCount","type":"uint256","internalType":"uint256"},{"name":"feeBps","type":"uint256","internalType":"uint256"},{"name":"protocolFeeBps","type":"uint256","internalType":"uint256"},{"name":"alphaFinal","type":"uint256","internalType":"uint256"},{"name":"decayStart","type":"uint256","internalType":"uint256"},{"name":"decayDuration","type":"uint256","internalType":"uint256"},{"name":"name","type":"string","internalType":"string"},{"name":"description","type":"string","internalType":"string"},{"name":"resolutionCriteria","type":"string","internalType":"string"},{"name":"valueUnit","type":"string","internalType":"string"},{"name":"resolver","type":"address","internalType":"address"},{"name":"biddingDeadline","type":"uint256","internalType":"uint256"},{"name":"scheduledResolutionTime","type":"uint256","internalType":"uint256"},{"name":"minBetSize","type":"uint256","internalType":"uint256"},{"name":"maxBucketsPerRange","type":"uint256","internalType":"uint256"},{"name":"expandedMinValue","type":"uint256","internalType":"uint256"},{"name":"expandedMaxValue","type":"uint256","internalType":"uint256"}]}],"outputs":[{"name":"marketAddress","type":"address","internalType":"address"}],"stateMutability":"nonpayable"},{"type":"function","name":"creatorAllowance","inputs":[{"name":"","type":"address","internalType":"address"}],"outputs":[{"name":"","type":"uint256","internalType":"uint256"}],"stateMutability":"view"},{"type":"function","name":"defaultFeeBps","inputs":[],"outputs":[{"name":"","type":"uint256","internalType":"uint256"}],"stateMutability":"view"},{"type":"function","name":"defaultMaxBucketsPerRange","inputs":[],"outputs":[{"name":"","type":"uint256","internalType":"uint256"}],"stateMutability":"view"},{"type":"function","name":"defaultProtocolFeeBps","inputs":[],"outputs":[{"name":"","type":"uint256","internalType":"uint256"}],"stateMutability":"view"},{"type":"function","name":"implementation","inputs":[],"outputs":[{"name":"","type":"address","internalType":"address"}],"stateMutability":"view"},{"type":"function","name":"isValidMarket","inputs":[{"name":"","type":"address","internalType":"address"}],"outputs":[{"name":"","type":"bool","internalType":"bool"}],"stateMutability":"view"},{"type":"function","name":"marketById","inputs":[{"name":"","type":"uint256","internalType":"uint256"}],"outputs":[{"name":"","type":"address","internalType":"address"}],"stateMutability":"view"},{"type":"function","name":"marketCount","inputs":[],"outputs":[{"name":"","type":"uint256","internalType":"uint256"}],"stateMutability":"view"},{"type":"function","name":"maxBuckets","inputs":[],"outputs":[{"name":"","type":"uint256","internalType":"uint256"}],"stateMutability":"view"},{"type":"function","name":"minPoolBalance","inputs":[],"outputs":[{"name":"","type":"uint256","internalType":"uint256"}],"stateMutability":"view"},{"type":"function","name":"owner","inputs":[],"outputs":[{"name":"","type":"address","internalType":"address"}],"stateMutability":"view"},{"type":"function","name":"pauseMarket","inputs":[{"name":"_marketId","type":"uint256","internalType":"uint256"}],"outputs":[],"stateMutability":"nonpayable"},{"type":"function","name":"positionNFT","inputs":[],"outputs":[{"name":"","type":"address","internalType":"contract PositionNFT"}],"stateMutability":"view"},{"type":"function","name":"protocolFeeCollector","inputs":[],"outputs":[{"name":"","type":"address","internalType":"address"}],"stateMutability":"view"},{"type":"function","name":"renounceOwnership","inputs":[],"outputs":[],"stateMutability":"nonpayable"},{"type":"function","name":"setCreatorAllowance","inputs":[{"name":"creator","type":"address","internalType":"address"},{"name":"slots","type":"uint256","internalType":"uint256"}],"outputs":[],"stateMutability":"nonpayable"},{"type":"function","name":"setDefaultFeeBps","inputs":[{"name":"newDefaultFeeBps","type":"uint256","internalType":"uint256"}],"outputs":[],"stateMutability":"nonpayable"},{"type":"function","name":"setDefaultMaxBucketsPerRange","inputs":[{"name":"newMaxBucketsPerRange","type":"uint256","internalType":"uint256"}],"outputs":[],"stateMutability":"nonpayable"},{"type":"function","name":"setDefaultProtocolFeeBps","inputs":[{"name":"newDefaultProtocolFeeBps","type":"uint256","internalType":"uint256"}],"outputs":[],"stateMutability":"nonpayable"},{"type":"function","name":"setMaxBuckets","inputs":[{"name":"newMaxBuckets","type":"uint256","internalType":"uint256"}],"outputs":[],"stateMutability":"nonpayable"},{"type":"function","name":"setMinPoolBalance","inputs":[{"name":"newMinPoolBalance","type":"uint256","internalType":"uint256"}],"outputs":[],"stateMutability":"nonpayable"},{"type":"function","name":"setProtocolFeeCollector","inputs":[{"name":"_collector","type":"address","internalType":"address"}],"outputs":[],"stateMutability":"nonpayable"},{"type":"function","name":"setVault","inputs":[{"name":"_vault","type":"address","internalType":"address"}],"outputs":[],"stateMutability":"nonpayable"},{"type":"function","name":"transferOwnership","inputs":[{"name":"newOwner","type":"address","internalType":"address"}],"outputs":[],"stateMutability":"nonpayable"},{"type":"function","name":"unpauseMarket","inputs":[{"name":"_marketId","type":"uint256","internalType":"uint256"}],"outputs":[],"stateMutability":"nonpayable"},{"type":"function","name":"usdcToken","inputs":[],"outputs":[{"name":"","type":"address","internalType":"contract IUSDC"}],"stateMutability":"view"},{"type":"function","name":"vault","inputs":[],"outputs":[{"name":"","type":"address","internalType":"contract Vault"}],"stateMutability":"view"},{"type":"event","name":"CreatorAllowanceAdded","inputs":[{"name":"creator","type":"address","indexed":true,"internalType":"address"},{"name":"added","type":"uint256","indexed":false,"internalType":"uint256"},{"name":"total","type":"uint256","indexed":false,"internalType":"uint256"}],"anonymous":false},{"type":"event","name":"CreatorAllowanceSet","inputs":[{"name":"creator","type":"address","indexed":true,"internalType":"address"},{"name":"allowance","type":"uint256","indexed":false,"internalType":"uint256"}],"anonymous":false},{"type":"event","name":"DefaultFeeBpsUpdated","inputs":[{"name":"oldValue","type":"uint256","indexed":false,"internalType":"uint256"},{"name":"newValue","type":"uint256","indexed":false,"internalType":"uint256"}],"anonymous":false},{"type":"event","name":"DefaultMaxBucketsPerRangeUpdated","inputs":[{"name":"oldValue","type":"uint256","indexed":false,"internalType":"uint256"},{"name":"newValue","type":"uint256","indexed":false,"internalType":"uint256"}],"anonymous":false},{"type":"event","name":"DefaultProtocolFeeBpsUpdated","inputs":[{"name":"oldValue","type":"uint256","indexed":false,"internalType":"uint256"},{"name":"newValue","type":"uint256","indexed":false,"internalType":"uint256"}],"anonymous":false},{"type":"event","name":"MarketCreated","inputs":[{"name":"marketId","type":"uint256","indexed":true,"internalType":"uint256"},{"name":"marketAddress","type":"address","indexed":true,"internalType":"address"},{"name":"creator","type":"address","indexed":true,"internalType":"address"},{"name":"poolBalance","type":"uint256","indexed":false,"internalType":"uint256"},{"name":"bucketCount","type":"uint256","indexed":false,"internalType":"uint256"}],"anonymous":false},{"type":"event","name":"MarketPaused","inputs":[{"name":"marketId","type":"uint256","indexed":true,"internalType":"uint256"},{"name":"marketAddress","type":"address","indexed":true,"internalType":"address"}],"anonymous":false},{"type":"event","name":"MarketUnpaused","inputs":[{"name":"marketId","type":"uint256","indexed":true,"internalType":"uint256"},{"name":"marketAddress","type":"address","indexed":true,"internalType":"address"}],"anonymous":false},{"type":"event","name":"MaxBucketsUpdated","inputs":[{"name":"oldValue","type":"uint256","indexed":false,"internalType":"uint256"},{"name":"newValue","type":"uint256","indexed":false,"internalType":"uint256"}],"anonymous":false},{"type":"event","name":"MinPoolBalanceUpdated","inputs":[{"name":"oldValue","type":"uint256","indexed":false,"internalType":"uint256"},{"name":"newValue","type":"uint256","indexed":false,"internalType":"uint256"}],"anonymous":false},{"type":"event","name":"OwnershipTransferred","inputs":[{"name":"previousOwner","type":"address","indexed":true,"internalType":"address"},{"name":"newOwner","type":"address","indexed":true,"internalType":"address"}],"anonymous":false},{"type":"event","name":"ProtocolFeeCollectorUpdated","inputs":[{"name":"oldCollector","type":"address","indexed":true,"internalType":"address"},{"name":"newCollector","type":"address","indexed":true,"internalType":"address"}],"anonymous":false},{"type":"error","name":"ERC1167FailedCreateClone","inputs":[]},{"type":"error","name":"InvalidBucketRanges","inputs":[]},{"type":"error","name":"InvalidParameters","inputs":[]},{"type":"error","name":"NotWhitelisted","inputs":[]},{"type":"error","name":"OwnableInvalidOwner","inputs":[{"name":"owner","type":"address","internalType":"address"}]},{"type":"error","name":"OwnableUnauthorizedAccount","inputs":[{"name":"account","type":"address","internalType":"address"}]},{"type":"error","name":"PoolBalanceTooLow","inputs":[]},{"type":"error","name":"TooManyBuckets","inputs":[]},{"type":"error","name":"VaultNotSet","inputs":[]}],"bytecode":{"object":"0x60e034620001e257601f6200182b38819003918201601f191683019291906001600160401b03841183851017620001e657816101009284926040968752833981010312620001e2576200005281620001fa565b906200006160208201620001fa565b906200006f848201620001fa565b606082015160808301519060a0840151926200009360e060c08701519601620001fa565b903315620001cb575f80546001600160a01b03198082163390811784558c51919a6001600160a01b039490938516907f8be0079c531659141344cd1fd0a4f28419497f9722a3daafe3b4186f6b6457e09080a3828b1615620001bc57508116918215620001ab578116928315620001ab578415620001ab5760028610620001ab576101f48711620001ab576127108811620001ab57169788156200019a5760c05260a052608052600655600755600855600955600a541617600a555161161b908162000210823960805181818161097c01528181610aed01528181610b3801526113bc015260a05181818161095401526113fd015260c05181818161089c01526112510152f35b8951630e52390960e41b8152600490fd5b8a51630e52390960e41b8152600490fd5b630e52390960e41b8152600490fd5b8851631e4fbdf760e01b81525f6004820152602490fd5b5f80fd5b634e487b7160e01b5f52604160045260245ffd5b51906001600160a01b0382168203620001e25756fe6080806040526004361015610012575f80fd5b5f905f3560e01c90816311eac855146113eb5750806323228ecb146113a7578063268d8eec1461138a5780634373a2861461132c5780634d13b5bf146112bd57806358e6309f146112805780635c60da1b1461123c5780636817031b146111f6578063715018a6146111b2578063719adf7014611122578063850a1501146110fa57806387784844146110385780638955aa2f146105db5780638da5cb5b146105b45780639dd4a9361461057b5780639fcfb06e14610525578063bc37bf55146104f2578063bcae25a4146104d4578063c5e3ea4614610474578063cfca314714610404578063d82af4b5146103e6578063da0596a1146103c8578063dde7a5e614610369578063ec9790821461034b578063f2fde38b146102d9578063f629907a1461027c578063f6bcc11a1461025e578063fbfa77cf146102355763fc12524c1461015d575f80fd5b34610232576020366003190112610232576004356101796115c3565b808252600460205260408220546001600160a01b031690811561022057818352600360205260ff6040842054161561022057813b15610211576040516351858e2760e01b81528390818160048183885af18015610215576101fd575b50807f9ba3551d939aa41cc4b27f47dcabdffc010f8f3a0ab092a80a52eaa6ee1245dc91a380f35b61020690611463565b61021157825f6101d5565b8280fd5b6040513d84823e3d90fd5b604051630e52390960e41b8152600490fd5b80fd5b50346102325780600319360112610232576001546040516001600160a01b039091168152602090f35b50346102325780600319360112610232576020600654604051908152f35b5034610232576020366003190112610232576004356102996115c3565b80156102205760407f34ce8414e8fd28efa9aeaf462418264b7decdeff2c1d8c53a489935cc8d0cc8b91600654908060065582519182526020820152a180f35b5034610232576020366003190112610232576102f361142c565b6102fb6115c3565b6001600160a01b03908116908115610332575f548260018060a01b03198216175f55165f805160206115ef8339815191525f80a380f35b604051631e4fbdf760e01b815260048101849052602490fd5b50346102325780600319360112610232576020600254604051908152f35b5034610232576020366003190112610232576004356103866115c3565b600281106102205760407f51858306dad13fafbe4f4b853ac947a5dade9942c87bbd515a94d87b3b985f9f91600754908060075582519182526020820152a180f35b50346102325780600319360112610232576020600b54604051908152f35b50346102325780600319360112610232576020600954604051908152f35b50346102325760203660031901126102325761041e61142c565b6104266115c3565b6001600160a01b0390811690811561022057600a80546001600160a01b031981168417909155167fd975c62eaa3c65dc5a253ebc57cfcd285d46a7cab97817ca43413a396e3303a88380a380f35b5034610232576020366003190112610232576004356104916115c3565b61271081116102205760407feb42b2a8cbf17d114c3864b12f750b41884dc857b0cbb98b7b7135b4f3a7bf9291600954908060095582519182526020820152a180f35b50346102325780600319360112610232576020600854604051908152f35b503461023257602036600319011261023257602090600435815260048252604060018060a01b0391205416604051908152f35b5034610232576020366003190112610232577f908a1ac58297531af5ba363fc51913673129b33875701f83a7d8b87586faa68460406004356105656115c3565b600b549080600b5582519182526020820152a180f35b5034610232576020366003190112610232576020906040906001600160a01b036105a361142c565b168152600583522054604051908152f35b5034610232578060031936011261023257546040516001600160a01b039091168152602090f35b5034610232576020366003190112610232576001600160401b0360043511610232576102a060043536036003190112610232576001546001600160a01b03161561102657338152600560205260408120548015611014575f19810190811161100057338252600560205260408220556004356004013515610220576006546024600435013510610fee5760026084600435013510610220576007546084600435013511610d9e5760646004350135604460043501351015610db0576106bb608460043501356106b66044600435013560646004350135611499565b6114a6565b610db05760043560a4013580610fe957506008545b60043560c4013580610fe35750600954905b6101f481116102205761271082116102205760025490610701826114c4565b600255610729608460043501356107246044600435013560646004350135611499565b6114d2565b90600435608401356001810110610fcf5761074c600160846004350135016114dc565b9361075a6040519586611476565b60043560840135600101808652610770906114dc565b601f1901366020870137855b60846004350135811115610f6557506107a0610144600435016004356004016114f3565b91906107b7610164600435016004356004016114f3565b9190936107cf610184600435016004356004016114f3565b91906107e66101a4600435016004356004016114f3565b90949093906004356101c401356001600160a01b0381169003610f6157604051986001600160401b036101008b01908111908b1117610f4d5761085e9761083d61084693610852976101008e016040523691611525565b8b523691611525565b60208901523691611525565b60408601523691611525565b60608301526004356101c48101356001600160a01b031660808401526101e481013560a084015261020481013560c0840152610224013560e08301527f0000000000000000000000000000000000000000000000000000000000000000608881901c62ffffff16763d602d80600a3d3981f3363d3d373d3d3d363d7300000017885260781b6e5af43d82803e903d91602b57fd5bf3176020526037600988f0956001600160a01b03871615610f3b57600a546001600160a01b03908116929088163b15610f3757604051633e9e1ead60e01b81526004808201899052336024808401919091523060448401526001600160a01b037f0000000000000000000000000000000000000000000000000000000000000000811660648501527f000000000000000000000000000000000000000000000000000000000000000016608484015281359182013560a4840152013560c482015261018060e4820152825161018482018190528a96919594936101a48701939291602090910190885b818110610f1e575050509285939287959285946101048601526101248501526003198482030161014485015260e080610a5e610a4c610a3a610a288851610100885261010088019061156a565b6020890151878203602089015261156a565b6040880151868203604088015261156a565b6060870151858203606087015261156a565b9460018060a01b03608082015116608085015260a081015160a085015260c081015160c0850152015191015261016483015203818360018060a01b038a165af1801561021557610f0a575b50506001600160a01b03838116808652600360209081526040808820805460ff191660011790558588526004909152862080546001600160a01b03191690911790557f0000000000000000000000000000000000000000000000000000000000000000163b15610e3457604051636a1701bd60e01b81528490818180610b338789600484016115a8565b0381837f00000000000000000000000000000000000000000000000000000000000000006001600160a01b03165af1801561021557610ef6575b506001546001600160a01b039081169085163b15610e3857604051636c8d9e3760e01b815260048101919091528181602481836001600160a01b038a165af1801561021557610ee2575b506001546001600160a01b0316803b15610e3857816040518092638726646d60e01b8252818381610bf2602460043501358c600484016115a8565b03925af1801561021557610ece575b50610124600435013580151580610ebf575b610e41575b50600435610244013580610e3c5750600b545b80610dde575b505060043561026401358015801581610dce575b610ca7575b60208585604051602460043501358152608460043501358482015233917fc4b5cb94693653ae5c32763ba9a44acaa110bbbe42bd5be97514ffe6dab52294604060018060a01b03861693a46040516001600160a01b039091168152f35b15610dc8575060446004350135905b600435610284013580610dc2575060646004350135905b6044600435013583116102205760646004350135821061022057610cfb816106b68560446004350135611499565b610db057610d13816106b66064600435013585611499565b610db057610d25906107248484611499565b60075410610d9e576001600160a01b0384163b15610d9a576040516351bc084760e01b8152600481019290925260248201528381604481836001600160a01b0388165af18015610d8f57610d7b575b8080610c4a565b610d858491611463565b6102115782610d74565b6040513d86823e3d90fd5b8480fd5b604051632a52366760e11b8152600490fd5b604051632cd6232960e21b8152600490fd5b90610ccd565b90610cb6565b5061028460043501351515610c45565b6001600160a01b0385163b15610e3857604051630f0b517960e41b815260048101919091528181602481836001600160a01b038a165af180156102155715610c3157610e2990611463565b610e3457835f610c31565b8380fd5b5080fd5b610c2b565b600435610104013580610eb9575042905b6001600160a01b0386163b1561021157604051631320046f60e21b81526004803560e4013590820152602481019290925260448201528181606481836001600160a01b038a165af180156102155715610c1857610eae90611463565b610e3457835f610c18565b90610e52565b5060e460043501351515610c13565b610ed790611463565b610e3457835f610c01565b610eeb90611463565b610e3457835f610bb7565b610eff90611463565b610e3457835f610b6d565b610f1390611463565b610e3457835f610aa9565b825186528d9950602095860195909201916001016109db565b8880fd5b6040516330be1a3d60e21b8152600490fd5b634e487b7160e01b5f52604160045260245ffd5b8d80fd5b838102818104851482151715610fbb57610f859060446004350135611442565b8651821015610fa75790610fa29160208260051b890101526114c4565b61077c565b634e487b7160e01b88526032600452602488fd5b634e487b7160e01b88526011600452602488fd5b634e487b7160e01b85526011600452602485fd5b906106e2565b6106d0565b6040516396b10c1160e01b8152600490fd5b634e487b7160e01b82526011600452602482fd5b604051630b094f2760e31b8152600490fd5b604051630647140b60e51b8152600490fd5b50346110f65760203660031901126110f6576004356110556115c3565b5f818152600460205260409020546001600160a01b031690811561022057815f52600360205260ff60405f2054161561022057813b156110f657604051634a4e3bd560e01b81525f8160048183875af180156110eb576110d8575b507ffc982b0cb9c279b1f447d3b3e0645c97eb67699c0afef3b2d9157fa7470abf098380a380f35b6110e3919350611463565b5f915f6110b0565b6040513d5f823e3d90fd5b5f80fd5b346110f6575f3660031901126110f657600a546040516001600160a01b039091168152602090f35b346110f65760403660031901126110f65761113b61142c565b602435906111476115c3565b6001600160a01b03169081156102205780156102205760407f63810a3ea9e8b0e4821a55d5752f8eef7a539edb527c89696eb7ebede9446dd791835f526005602052815f20611197828254611442565b9055835f526005602052815f205482519182526020820152a2005b346110f6575f3660031901126110f6576111ca6115c3565b5f80546001600160a01b0319811682556001600160a01b03165f805160206115ef8339815191528280a3005b346110f65760203660031901126110f65761120f61142c565b6112176115c3565b6001600160a01b0316801561022057600180546001600160a01b031916919091179055005b346110f6575f3660031901126110f6576040517f00000000000000000000000000000000000000000000000000000000000000006001600160a01b03168152602090f35b346110f65760203660031901126110f6576001600160a01b036112a161142c565b165f526003602052602060ff60405f2054166040519015158152f35b346110f65760403660031901126110f6576112d661142c565b602435906112e26115c3565b6001600160a01b03169081156102205760207ff1e6e2d3034b4c5f5d6b60ed7f721761d0a7c476a4f68089c01d51e66ea6fa5f91835f52600582528060405f2055604051908152a2005b346110f65760203660031901126110f6576004356113486115c3565b6101f481116102205760407f3062378541f1b58e0547bfb13e7d7585153e442e477e263c6e63d4775b3072a691600854908060085582519182526020820152a1005b346110f6575f3660031901126110f6576020600754604051908152f35b346110f6575f3660031901126110f6576040517f00000000000000000000000000000000000000000000000000000000000000006001600160a01b03168152602090f35b346110f6575f3660031901126110f6577f00000000000000000000000000000000000000000000000000000000000000006001600160a01b03168152602090f35b600435906001600160a01b03821682036110f657565b9190820180921161144f57565b634e487b7160e01b5f52601160045260245ffd5b6001600160401b038111610f4d57604052565b601f909101601f19168101906001600160401b03821190821017610f4d57604052565b9190820391821161144f57565b81156114b0570690565b634e487b7160e01b5f52601260045260245ffd5b5f19811461144f5760010190565b81156114b0570490565b6001600160401b038111610f4d5760051b60200190565b903590601e19813603018212156110f657018035906001600160401b0382116110f6576020019181360383136110f657565b9192916001600160401b038211610f4d576040519161154e601f8201601f191660200184611476565b8294818452818301116110f6578281602093845f960137010152565b91908251928382525f5b848110611594575050825f602080949584010152601f8019910116010190565b602081830181015184830182015201611574565b6001600160a01b039091168152602081019190915260400190565b5f546001600160a01b031633036115d657565b60405163118cdaa760e01b8152336004820152602490fdfe8be0079c531659141344cd1fd0a4f28419497f9722a3daafe3b4186f6b6457e0a164736f6c6343000818000a","linkReferences":{}},"methodIdentifiers":{"addCreatorAllowance(address,uint256)":"719adf70","createMarket((uint256,uint256,uint256,uint256,uint256,uint256,uint256,uint256,uint256,uint256,string,string,string,string,address,uint256,uint256,uint256,uint256,uint256,uint256))":"8955aa2f","creatorAllowance(address)":"9dd4a936","defaultFeeBps()":"bcae25a4","defaultMaxBucketsPerRange()":"da0596a1","defaultProtocolFeeBps()":"d82af4b5","implementation()":"5c60da1b","isValidMarket(address)":"58e6309f","marketById(uint256)":"bc37bf55","marketCount()":"ec979082","maxBuckets()":"268d8eec","minPoolBalance()":"f6bcc11a","owner()":"8da5cb5b","pauseMarket(uint256)":"fc12524c","positionNFT()":"23228ecb","protocolFeeCollector()":"850a1501","renounceOwnership()":"715018a6","setCreatorAllowance(address,uint256)":"4d13b5bf","setDefaultFeeBps(uint256)":"4373a286","setDefaultMaxBucketsPerRange(uint256)":"9fcfb06e","setDefaultProtocolFeeBps(uint256)":"c5e3ea46","setMaxBuckets(uint256)":"dde7a5e6","setMinPoolBalance(uint256)":"f629907a","setProtocolFeeCollector(address)":"cfca3147","setVault(address)":"6817031b","transferOwnership(address)":"f2fde38b","unpauseMarket(uint256)":"87784844","usdcToken()":"11eac855","vault()":"fbfa77cf"},"id":86}