{"abi":[{"type":"constructor","inputs":[],"stateMutability":"nonpayable"},{"type":"function","name":"DOMAIN_SEPARATOR","inputs":[],"outputs":[{"name":"","type":"bytes32","internalType":"bytes32"}],"stateMutability":"view"},{"type":"function","name":"PERMIT_TYPEHASH","inputs":[],"outputs":[{"name":"","type":"bytes32","internalType":"bytes32"}],"stateMutability":"pure"},{"type":"function","name":"allowance","inputs":[{"name":"owner","type":"address","internalType":"address"},{"name":"spender","type":"address","internalType":"address"}],"outputs":[{"name":"","type":"uint256","internalType":"uint256"}],"stateMutability":"view"},{"type":"function","name":"approve","inputs":[{"name":"spender","type":"address","internalType":"address"},{"name":"value","type":"uint256","internalType":"uint256"}],"outputs":[{"name":"","type":"bool","internalType":"bool"}],"stateMutability":"nonpayable"},{"type":"function","name":"balanceOf","inputs":[{"name":"account","type":"address","internalType":"address"}],"outputs":[{"name":"","type":"uint256","internalType":"uint256"}],"stateMutability":"view"},{"type":"function","name":"burn","inputs":[{"name":"from","type":"address","internalType":"address"},{"name":"amount","type":"uint256","internalType":"uint256"}],"outputs":[],"stateMutability":"nonpayable"},{"type":"function","name":"decimals","inputs":[],"outputs":[{"name":"","type":"uint8","internalType":"uint8"}],"stateMutability":"pure"},{"type":"function","name":"eip712Domain","inputs":[],"outputs":[{"name":"fields","type":"bytes1","internalType":"bytes1"},{"name":"name","type":"string","internalType":"string"},{"name":"version","type":"string","internalType":"string"},{"name":"chainId","type":"uint256","internalType":"uint256"},{"name":"verifyingContract","type":"address","internalType":"address"},{"name":"salt","type":"bytes32","internalType":"bytes32"},{"name":"extensions","type":"uint256[]","internalType":"uint256[]"}],"stateMutability":"view"},{"type":"function","name":"mint","inputs":[{"name":"to","type":"address","internalType":"address"},{"name":"amount","type":"uint256","internalType":"uint256"}],"outputs":[],"stateMutability":"nonpayable"},{"type":"function","name":"name","inputs":[],"outputs":[{"name":"","type":"string","internalType":"string"}],"stateMutability":"view"},{"type":"function","name":"nonces","inputs":[{"name":"owner","type":"address","internalType":"address"}],"outputs":[{"name":"","type":"uint256","internalType":"uint256"}],"stateMutability":"view"},{"type":"function","name":"permit","inputs":[{"name":"owner","type":"address","internalType":"address"},{"name":"spender","type":"address","internalType":"address"},{"name":"value","type":"uint256","internalType":"uint256"},{"name":"deadline","type":"uint256","internalType":"uint256"},{"name":"v","type":"uint8","internalType":"uint8"},{"name":"r","type":"bytes32","internalType":"bytes32"},{"name":"s","type":"bytes32","internalType":"bytes32"}],"outputs":[],"stateMutability":"nonpayable"},{"type":"function","name":"symbol","inputs":[],"outputs":[{"name":"","type":"string","internalType":"string"}],"stateMutability":"view"},{"type":"function","name":"totalSupply","inputs":[],"outputs":[{"name":"","type":"uint256","internalType":"uint256"}],"stateMutability":"view"},{"type":"function","name":"transfer","inputs":[{"name":"to","type":"address","internalType":"address"},{"name":"value","type":"uint256","internalType":"uint256"}],"outputs":[{"name":"","type":"bool","internalType":"bool"}],"stateMutability":"nonpayable"},{"type":"function","name":"transferFrom","inputs":[{"name":"from","type":"address","internalType":"address"},{"name":"to","type":"address","internalType":"address"},{"name":"value","type":"uint256","internalType":"uint256"}],"outputs":[{"name":"","type":"bool","internalType":"bool"}],"stateMutability":"nonpayable"},{"type":"event","name":"Approval","inputs":[{"name":"owner","type":"address","indexed":true,"internalType":"address"},{"name":"spender","type":"address","indexed":true,"internalType":"address"},{"name":"value","type":"uint256","indexed":false,"internalType":"uint256"}],"anonymous":false},{"type":"event","name":"EIP712DomainChanged","inputs":[],"anonymous":false},{"type":"event","name":"Transfer","inputs":[{"name":"from","type":"address","indexed":true,"internalType":"address"},{"name":"to","type":"address","indexed":true,"internalType":"address"},{"name":"value","type":"uint256","indexed":false,"internalType":"uint256"}],"anonymous":false},{"type":"error","name":"ECDSAInvalidSignature","inputs":[]},{"type":"error","name":"ECDSAInvalidSignatureLength","inputs":[{"name":"length","type":"uint256","internalType":"uint256"}]},{"type":"error","name":"ECDSAInvalidSignatureS","inputs":[{"name":"s","type":"bytes32","internalType":"bytes32"}]},{"type":"error","name":"ERC20InsufficientAllowance","inputs":[{"name":"spender","type":"address","internalType":"address"},{"name":"allowance","type":"uint256","internalType":"uint256"},{"name":"needed","type":"uint256","internalType":"uint256"}]},{"type":"error","name":"ERC20InsufficientBalance","inputs":[{"name":"sender","type":"address","internalType":"address"},{"name":"balance","type":"uint256","internalType":"uint256"},{"name":"needed","type":"uint256","internalType":"uint256"}]},{"type":"error","name":"ERC20InvalidApprover","inputs":[{"name":"approver","type":"address","internalType":"address"}]},{"type":"error","name":"ERC20InvalidReceiver","inputs":[{"name":"receiver","type":"address","internalType":"address"}]},{"type":"error","name":"ERC20InvalidSender","inputs":[{"name":"sender","type":"address","internalType":"address"}]},{"type":"error","name":"ERC20InvalidSpender","inputs":[{"name":"spender","type":"address","internalType":"address"}]},{"type":"error","name":"ERC2612ExpiredSignature","inputs":[{"name":"deadline","type":"uint256","internalType":"uint256"}]},{"type":"error","name":"ERC2612InvalidSigner","inputs":[{"name":"signer","type":"address","internalType":"address"},{"name":"owner","type":"address","internalType":"address"}]},{"type":"error","name":"InvalidAccountNonce","inputs":[{"name":"account","type":"address","internalType":"address"},{"name":"currentNonce","type":"uint256","internalType":"uint256"}]},{"type":"error","name":"InvalidShortString","inputs":[]},{"type":"error","name":"StringTooLong","inputs":[{"name":"str","type":"string","internalType":"string"}]}],"bytecode":{"object":"0x6101606040523461042a5760405161001860408261042e565b6008815260208101672aa9a21021b7b4b760c11b81526040519061003d60408361042e565b60088252672aa9a21021b7b4b760c11b60208301526040519261006160408561042e565b60048452635553444360e01b60208501526040519361008160408661042e565b60018552603160f81b60208601908152845190946001600160401b03821161032d5760035490600182811c92168015610420575b602083101461030f5781601f8493116103b2575b50602090601f831160011461034c575f92610341575b50508160011b915f199060031b1c1916176003555b8051906001600160401b03821161032d5760045490600182811c92168015610323575b602083101461030f5781601f8493116102a1575b50602090601f831160011461023b575f92610230575b50508160011b915f199060031b1c1916176004555b61015f81610451565b6101205261016c846105d8565b61014052519020918260e05251902080610100524660a0526040519060208201927f8b73c3c69bb8fe3d512ecc4cf759cc79239f7b179b0ffacaa9a75d522b39400f8452604083015260608201524660808201523060a082015260a081526101d560c08261042e565b5190206080523060c052604051610d419081610711823960805181610a1d015260a05181610ada015260c051816109e7015260e05181610a6c01526101005181610a9201526101205181610419015261014051816104420152f35b015190505f80610141565b60045f9081528281209350601f198516905b8181106102895750908460019594939210610271575b505050811b01600455610156565b01515f1960f88460031b161c191690555f8080610263565b9293602060018192878601518155019501930161024d565b60045f529091507f8a35acfbc15ff81a39ae7d344fd709f28e8600b4aa8c65c6b64bfe7fe36bd19b601f840160051c81019160208510610305575b90601f859493920160051c01905b8181106102f7575061012b565b5f81558493506001016102ea565b90915081906102dc565b634e487b7160e01b5f52602260045260245ffd5b91607f1691610117565b634e487b7160e01b5f52604160045260245ffd5b015190505f806100df565b60035f9081528281209350601f198516905b81811061039a5750908460019594939210610382575b505050811b016003556100f4565b01515f1960f88460031b161c191690555f8080610374565b9293602060018192878601518155019501930161035e565b60035f529091507fc2575a0e9e593c00f959f8c92f12db2869c3395a3b0502d05e2516446f71f85b601f840160051c81019160208510610416575b90601f859493920160051c01905b81811061040857506100c9565b5f81558493506001016103fb565b90915081906103ed565b91607f16916100b5565b5f80fd5b601f909101601f19168101906001600160401b0382119082101761032d57604052565b908151602081105f146104cb575090601f81511161048b57602081519101516020821061047c571790565b5f198260200360031b1b161790565b604460209160405192839163305a27a960e01b83528160048401528051918291826024860152018484015e5f828201840152601f01601f19168101030190fd5b6001600160401b03811161032d57600554600181811c911680156105ce575b602082101461030f57601f811161059b575b50602092601f821160011461053a57928192935f9261052f575b50508160011b915f199060031b1c19161760055560ff90565b015190505f80610516565b601f1982169360055f52805f20915f5b868110610583575083600195961061056b575b505050811b0160055560ff90565b01515f1960f88460031b161c191690555f808061055d565b9192602060018192868501518155019401920161054a565b60055f52601f60205f20910160051c810190601f830160051c015b8181106105c357506104fc565b5f81556001016105b6565b90607f16906104ea565b908151602081105f14610603575090601f81511161048b57602081519101516020821061047c571790565b6001600160401b03811161032d57600654600181811c91168015610706575b602082101461030f57601f81116106d3575b50602092601f821160011461067257928192935f92610667575b50508160011b915f199060031b1c19161760065560ff90565b015190505f8061064e565b601f1982169360065f52805f20915f5b8681106106bb57508360019596106106a3575b505050811b0160065560ff90565b01515f1960f88460031b161c191690555f8080610695565b91926020600181928685015181550194019201610682565b60065f52601f60205f20910160051c810190601f830160051c015b8181106106fb5750610634565b5f81556001016106ee565b90607f169061062256fe6080806040526004361015610012575f80fd5b5f3560e01c90816306fdde031461077e57508063095ea7b31461075857806318160ddd1461073b57806323b872dd1461065b57806330adf81f14610634578063313ce567146106195780633644e515146105f757806340c10f191461056857806370a08231146105315780637ecebe00146104f957806384b0196e1461040157806395d89b411461031f5780639dc29fac14610283578063a9059cbb14610252578063d505accf146101205763dd62ed3e146100cc575f80fd5b3461011c57604036600319011261011c576100e5610844565b6100ed61085a565b6001600160a01b039182165f908152600160209081526040808320949093168252928352819020549051908152f35b5f80fd5b3461011c5760e036600319011261011c57610139610844565b61014161085a565b604435906064359260843560ff8116810361011c5784421161023f5761020261020b9160018060a01b03841696875f52600760205260405f20908154916001830190556040519060208201925f516020610d155f395f51905f5284528a604084015260018060a01b038916606084015289608084015260a083015260c082015260c081526101d060e082610929565b5190206101db6109e4565b906040519161190160f01b83526002830152602282015260c43591604260a4359220610bfd565b90929192610c80565b6001600160a01b031684810361022857506102269350610b00565b005b84906325c0072360e11b5f5260045260245260445ffd5b8463313c898160e11b5f5260045260245ffd5b3461011c57604036600319011261011c5761027861026e610844565b6024359033610960565b602060405160018152f35b3461011c57604036600319011261011c5761029c610844565b602435906001600160a01b0316801561030c57805f525f60205260405f20548281106102f3576020835f945f516020610cf55f395f51905f52938587528684520360408620558060025403600255604051908152a3005b9063391434e360e21b5f5260045260245260445260645ffd5b634b637e8f60e11b5f525f60045260245ffd5b3461011c575f36600319011261011c576040515f60045461033f81610870565b80845290600181169081156103dd575060011461037f575b61037b8361036781850382610929565b604051918291602083526020830190610820565b0390f35b60045f9081527f8a35acfbc15ff81a39ae7d344fd709f28e8600b4aa8c65c6b64bfe7fe36bd19b939250905b8082106103c357509091508101602001610367610357565b9192600181602092548385880101520191019092916103ab565b60ff191660208086019190915291151560051b840190910191506103679050610357565b3461011c575f36600319011261011c5761049d61043d7f0000000000000000000000000000000000000000000000000000000000000000610b63565b6104667f0000000000000000000000000000000000000000000000000000000000000000610bc6565b60206104ab604051926104798385610929565b5f84525f368137604051958695600f60f81b875260e08588015260e0870190610820565b908582036040870152610820565b4660608501523060808501525f60a085015283810360c08501528180845192838152019301915f5b8281106104e257505050500390f35b8351855286955093810193928101926001016104d3565b3461011c57602036600319011261011c576001600160a01b0361051a610844565b165f526007602052602060405f2054604051908152f35b3461011c57602036600319011261011c576001600160a01b03610552610844565b165f525f602052602060405f2054604051908152f35b3461011c57604036600319011261011c57610581610844565b6001600160a01b031660243581156105e457600254908082018092116105d05760205f516020610cf55f395f51905f52915f9360025584845283825260408420818154019055604051908152a3005b634e487b7160e01b5f52601160045260245ffd5b63ec442f0560e01b5f525f60045260245ffd5b3461011c575f36600319011261011c5760206106116109e4565b604051908152f35b3461011c575f36600319011261011c57602060405160068152f35b3461011c575f36600319011261011c5760206040515f516020610d155f395f51905f528152f35b3461011c57606036600319011261011c57610674610844565b61067c61085a565b6001600160a01b0382165f8181526001602081815260408084203385529091529091205491936044359392909181016106bb575b506102789350610960565b83811061072057841561070d5733156106fa57610278945f52600160205260405f2060018060a01b0333165f526020528360405f2091039055846106b0565b634a1406b160e11b5f525f60045260245ffd5b63e602df0560e01b5f525f60045260245ffd5b8390637dc7a0d960e11b5f523360045260245260445260645ffd5b3461011c575f36600319011261011c576020600254604051908152f35b3461011c57604036600319011261011c57610278610774610844565b6024359033610b00565b3461011c575f36600319011261011c575f60035461079b81610870565b80845290600181169081156103dd57506001146107c25761037b8361036781850382610929565b60035f9081527fc2575a0e9e593c00f959f8c92f12db2869c3395a3b0502d05e2516446f71f85b939250905b80821061080657509091508101602001610367610357565b9192600181602092548385880101520191019092916107ee565b805180835260209291819084018484015e5f828201840152601f01601f1916010190565b600435906001600160a01b038216820361011c57565b602435906001600160a01b038216820361011c57565b90600182811c9216801561089e575b602083101461088a57565b634e487b7160e01b5f52602260045260245ffd5b91607f169161087f565b5f92918154916108b783610870565b808352926001811690811561090c57506001146108d357505050565b5f9081526020812093945091925b8383106108f2575060209250010190565b6001816020929493945483858701015201910191906108e1565b915050602093945060ff929192191683830152151560051b010190565b601f909101601f19168101906001600160401b0382119082101761094c57604052565b634e487b7160e01b5f52604160045260245ffd5b6001600160a01b031690811561030c576001600160a01b03169182156105e457815f525f60205260405f20548181106109cb57815f516020610cf55f395f51905f5292602092855f525f84520360405f2055845f525f825260405f20818154019055604051908152a3565b8263391434e360e21b5f5260045260245260445260645ffd5b307f00000000000000000000000000000000000000000000000000000000000000006001600160a01b03161480610ad7575b15610a3f577f000000000000000000000000000000000000000000000000000000000000000090565b60405160208101907f8b73c3c69bb8fe3d512ecc4cf759cc79239f7b179b0ffacaa9a75d522b39400f82527f000000000000000000000000000000000000000000000000000000000000000060408201527f000000000000000000000000000000000000000000000000000000000000000060608201524660808201523060a082015260a08152610ad160c082610929565b51902090565b507f00000000000000000000000000000000000000000000000000000000000000004614610a16565b6001600160a01b031690811561070d576001600160a01b03169182156106fa5760207f8c5be1e5ebec7d5bd14f71427d1e84f3dd0314c0f7b2291e5b200ac8c7c3b92591835f526001825260405f20855f5282528060405f2055604051908152a3565b60ff8114610ba95760ff811690601f8211610b9a5760405191610b87604084610929565b6020808452838101919036833783525290565b632cd44ac360e21b5f5260045ffd5b50604051610bc381610bbc8160056108a8565b0382610929565b90565b60ff8114610bea5760ff811690601f8211610b9a5760405191610b87604084610929565b50604051610bc381610bbc8160066108a8565b91906fa2a8918ca85bafe22016d0b997e4df60600160ff1b038411610c75579160209360809260ff5f9560405194855216868401526040830152606082015282805260015afa15610c6a575f516001600160a01b03811615610c6057905f905f90565b505f906001905f90565b6040513d5f823e3d90fd5b5050505f9160039190565b6004811015610ce05780610c92575050565b60018103610ca95763f645eedf60e01b5f5260045ffd5b60028103610cc4575063fce698f760e01b5f5260045260245ffd5b600314610cce5750565b6335e2f38360e21b5f5260045260245ffd5b634e487b7160e01b5f52602160045260245ffdfeddf252ad1be2c89b69c2b068fc378daa952ba7f163c4a11628f55a4df523b3ef6e71edae12b1b97f4d1f60370fef10105fa2faae0126114a169c64845d6126c9a164736f6c634300081c000a","linkReferences":{}},"methodIdentifiers":{"DOMAIN_SEPARATOR()":"3644e515","PERMIT_TYPEHASH()":"30adf81f","allowance(address,address)":"dd62ed3e","approve(address,uint256)":"095ea7b3","balanceOf(address)":"70a08231","burn(address,uint256)":"9dc29fac","decimals()":"313ce567","eip712Domain()":"84b0196e","mint(address,uint256)":"40c10f19","name()":"06fdde03","nonces(address)":"7ecebe00","permit(address,address,uint256,uint256,uint8,bytes32,bytes32)":"d505accf","symbol()":"95d89b41","totalSupply()":"18160ddd","transfer(address,uint256)":"a9059cbb","transferFrom(address,address,uint256)":"23b872dd"},"id":91}