{"abi":[{"type":"constructor","inputs":[{"name":"_factory","type":"address","internalType":"address"}],"stateMutability":"nonpayable"},{"type":"function","name":"authorizeMarket","inputs":[{"name":"market","type":"address","internalType":"address"},{"name":"marketId","type":"uint256","internalType":"uint256"}],"outputs":[],"stateMutability":"nonpayable"},{"type":"function","name":"balanceOf","inputs":[{"name":"account","type":"address","internalType":"address"},{"name":"id","type":"uint256","internalType":"uint256"}],"outputs":[{"name":"","type":"uint256","internalType":"uint256"}],"stateMutability":"view"},{"type":"function","name":"balanceOfBatch","inputs":[{"name":"accounts","type":"address[]","internalType":"address[]"},{"name":"ids","type":"uint256[]","internalType":"uint256[]"}],"outputs":[{"name":"","type":"uint256[]","internalType":"uint256[]"}],"stateMutability":"view"},{"type":"function","name":"bucketCount","inputs":[{"name":"tokenId","type":"uint256","internalType":"uint256"}],"outputs":[{"name":"","type":"uint256","internalType":"uint256"}],"stateMutability":"pure"},{"type":"function","name":"burn","inputs":[{"name":"from","type":"address","internalType":"address"},{"name":"tokenId","type":"uint256","internalType":"uint256"},{"name":"amount","type":"uint256","internalType":"uint256"}],"outputs":[],"stateMutability":"nonpayable"},{"type":"function","name":"decodeTokenId","inputs":[{"name":"tokenId","type":"uint256","internalType":"uint256"}],"outputs":[{"name":"marketId","type":"uint256","internalType":"uint256"},{"name":"rangeLower","type":"uint256","internalType":"uint256"},{"name":"rangeUpper","type":"uint256","internalType":"uint256"}],"stateMutability":"pure"},{"type":"function","name":"encodeTokenId","inputs":[{"name":"marketId","type":"uint256","internalType":"uint256"},{"name":"rangeLower","type":"uint256","internalType":"uint256"},{"name":"rangeUpper","type":"uint256","internalType":"uint256"}],"outputs":[{"name":"tokenId","type":"uint256","internalType":"uint256"}],"stateMutability":"pure"},{"type":"function","name":"encodeTokenIdSingle","inputs":[{"name":"marketId","type":"uint256","internalType":"uint256"},{"name":"bucketId","type":"uint256","internalType":"uint256"}],"outputs":[{"name":"tokenId","type":"uint256","internalType":"uint256"}],"stateMutability":"pure"},{"type":"function","name":"factory","inputs":[],"outputs":[{"name":"","type":"address","internalType":"address"}],"stateMutability":"view"},{"type":"function","name":"isApprovedForAll","inputs":[{"name":"account","type":"address","internalType":"address"},{"name":"operator","type":"address","internalType":"address"}],"outputs":[{"name":"","type":"bool","internalType":"bool"}],"stateMutability":"view"},{"type":"function","name":"isAuthorizedMarket","inputs":[{"name":"","type":"address","internalType":"address"}],"outputs":[{"name":"","type":"bool","internalType":"bool"}],"stateMutability":"view"},{"type":"function","name":"isRangeToken","inputs":[{"name":"tokenId","type":"uint256","internalType":"uint256"}],"outputs":[{"name":"","type":"bool","internalType":"bool"}],"stateMutability":"pure"},{"type":"function","name":"mint","inputs":[{"name":"to","type":"address","internalType":"address"},{"name":"tokenId","type":"uint256","internalType":"uint256"},{"name":"amount","type":"uint256","internalType":"uint256"}],"outputs":[],"stateMutability":"nonpayable"},{"type":"function","name":"safeBatchTransferFrom","inputs":[{"name":"from","type":"address","internalType":"address"},{"name":"to","type":"address","internalType":"address"},{"name":"ids","type":"uint256[]","internalType":"uint256[]"},{"name":"values","type":"uint256[]","internalType":"uint256[]"},{"name":"data","type":"bytes","internalType":"bytes"}],"outputs":[],"stateMutability":"nonpayable"},{"type":"function","name":"safeTransferFrom","inputs":[{"name":"from","type":"address","internalType":"address"},{"name":"to","type":"address","internalType":"address"},{"name":"id","type":"uint256","internalType":"uint256"},{"name":"value","type":"uint256","internalType":"uint256"},{"name":"data","type":"bytes","internalType":"bytes"}],"outputs":[],"stateMutability":"nonpayable"},{"type":"function","name":"setApprovalForAll","inputs":[{"name":"operator","type":"address","internalType":"address"},{"name":"approved","type":"bool","internalType":"bool"}],"outputs":[],"stateMutability":"nonpayable"},{"type":"function","name":"setCID","inputs":[{"name":"marketId","type":"uint256","internalType":"uint256"},{"name":"cid","type":"bytes32","internalType":"bytes32"}],"outputs":[],"stateMutability":"nonpayable"},{"type":"function","name":"supportsInterface","inputs":[{"name":"interfaceId","type":"bytes4","internalType":"bytes4"}],"outputs":[{"name":"","type":"bool","internalType":"bool"}],"stateMutability":"view"},{"type":"function","name":"uri","inputs":[{"name":"tokenId","type":"uint256","internalType":"uint256"}],"outputs":[{"name":"","type":"string","internalType":"string"}],"stateMutability":"view"},{"type":"event","name":"ApprovalForAll","inputs":[{"name":"account","type":"address","indexed":true,"internalType":"address"},{"name":"operator","type":"address","indexed":true,"internalType":"address"},{"name":"approved","type":"bool","indexed":false,"internalType":"bool"}],"anonymous":false},{"type":"event","name":"CIDSet","inputs":[{"name":"marketId","type":"uint256","indexed":true,"internalType":"uint256"},{"name":"cid","type":"bytes32","indexed":false,"internalType":"bytes32"}],"anonymous":false},{"type":"event","name":"MarketAuthorized","inputs":[{"name":"market","type":"address","indexed":true,"internalType":"address"},{"name":"marketId","type":"uint256","indexed":true,"internalType":"uint256"}],"anonymous":false},{"type":"event","name":"TransferBatch","inputs":[{"name":"operator","type":"address","indexed":true,"internalType":"address"},{"name":"from","type":"address","indexed":true,"internalType":"address"},{"name":"to","type":"address","indexed":true,"internalType":"address"},{"name":"ids","type":"uint256[]","indexed":false,"internalType":"uint256[]"},{"name":"values","type":"uint256[]","indexed":false,"internalType":"uint256[]"}],"anonymous":false},{"type":"event","name":"TransferSingle","inputs":[{"name":"operator","type":"address","indexed":true,"internalType":"address"},{"name":"from","type":"address","indexed":true,"internalType":"address"},{"name":"to","type":"address","indexed":true,"internalType":"address"},{"name":"id","type":"uint256","indexed":false,"internalType":"uint256"},{"name":"value","type":"uint256","indexed":false,"internalType":"uint256"}],"anonymous":false},{"type":"event","name":"URI","inputs":[{"name":"value","type":"string","indexed":false,"internalType":"string"},{"name":"id","type":"uint256","indexed":true,"internalType":"uint256"}],"anonymous":false},{"type":"error","name":"ERC1155InsufficientBalance","inputs":[{"name":"sender","type":"address","internalType":"address"},{"name":"balance","type":"uint256","internalType":"uint256"},{"name":"needed","type":"uint256","internalType":"uint256"},{"name":"tokenId","type":"uint256","internalType":"uint256"}]},{"type":"error","name":"ERC1155InvalidApprover","inputs":[{"name":"approver","type":"address","internalType":"address"}]},{"type":"error","name":"ERC1155InvalidArrayLength","inputs":[{"name":"idsLength","type":"uint256","internalType":"uint256"},{"name":"valuesLength","type":"uint256","internalType":"uint256"}]},{"type":"error","name":"ERC1155InvalidOperator","inputs":[{"name":"operator","type":"address","internalType":"address"}]},{"type":"error","name":"ERC1155InvalidReceiver","inputs":[{"name":"receiver","type":"address","internalType":"address"}]},{"type":"error","name":"ERC1155InvalidSender","inputs":[{"name":"sender","type":"address","internalType":"address"}]},{"type":"error","name":"ERC1155MissingApprovalForAll","inputs":[{"name":"operator","type":"address","internalType":"address"},{"name":"owner","type":"address","internalType":"address"}]},{"type":"error","name":"InvalidTokenId","inputs":[]},{"type":"error","name":"Unauthorized","inputs":[]}],"bytecode":{"object":"0x60a06040523461014057604051601f61176638819003918201601f19168301916001600160401b0383118484101761012c5780849260209460405283398101031261014057516001600160a01b03811681036101405760405160208101906001600160401b0382118183101761012c575f9160405252600254600181811c91168015610122575b602082101461010e57601f81116100c6575b505f60025560805260405161162190816101458239608051818181610895015281816109230152610b2c0152f35b60025f52601f0160051c7f405787fa12a823e0f2b7631cc41b3ba8828b3321ca811111fa75cd3aa3bb5ace908101905b8181106101035750610098565b5f81556001016100f6565b634e487b7160e01b5f52602260045260245ffd5b90607f1690610086565b634e487b7160e01b5f52604160045260245ffd5b5f80fdfe60806040526004361015610011575f80fd5b5f3560e01c8062fdd58e1461014357806301ffc9a71461013e5780630e89341c14610139578063156e29f614610134578063162c370a1461012f5780632eb2c2d61461012a5780634e1273f4146101255780636a1701bd146101205780636a7f854d1461011b5780637efd911214610116578063959c45b714610111578063990796711461010c578063a22cb46514610107578063ab21dbab14610102578063c45a0155146100fd578063dba4a464146100f8578063e985e9c5146100f3578063f242432a146100ee5763f5298aca146100e9575f80fd5b610c9f565b610bcd565b610b7d565b610b5b565b610b17565b610adc565b610a3a565b6109fd565b6109bc565b61098b565b61090a565b610876565b6107b7565b6106e7565b610594565b610404565b61027c565b6101d6565b61018c565b600435906001600160a01b038216820361015e57565b5f80fd5b602435906001600160a01b038216820361015e57565b35906001600160a01b038216820361015e57565b3461015e57604036600319011261015e5760206101bb6101aa610148565b6024355f525f835260405f206109e8565b54604051908152f35b6001600160e01b031981160361015e57565b3461015e57602036600319011261015e5760206004356101f5816101c4565b63ffffffff60e01b16636cdb3d1360e11b8114908115610233575b8115610222575b506040519015158152f35b6301ffc9a760e01b1490505f610217565b6303a24d0760e21b81149150610210565b805180835260209291819084018484015e5f828201840152601f01601f1916010190565b906020610279928181520190610244565b90565b3461015e57602036600319011261015e57610298600435610f9a565b90915f52600360205260405f2054916102af611027565b926102b8611055565b935f5b602081106103605761035c610317610350886103426103318a6103116103246102ec6102e68e6110de565b936110de565b92610311604051998a9861031160208b0160079066697066733a2f2f60c81b81520190565b90610e0f565b602f60f81b815260010190565b602d60f81b815260010190565b64173539b7b760d91b815260050190565b03601f1981018352826105ea565b60405191829182610268565b0390f35b6001906103b5610389600f86841a61039783610383600484901c85165b60ff1690565b896110a9565b516001600160f81b03191690565b6103ad6103a3876110ba565b915f1a918d6110a9565b5316856110a9565b6103d36103c96103c4846110ba565b610e43565b915f1a91896110a9565b53016102bb565b606090600319011261015e576004356001600160a01b038116810361015e57906024359060443590565b3461015e57610412366103da565b335f52600460205260ff60405f20541615610586576020916040519161043884846105ea565b5f83526001600160a01b03851615610573576104539161118e565b8194915181519081810361055d5750506001600160a01b03821693841515935f5b87518110156104c9578086868a868060019660051b80930101519189010151926104a2575b50505001610474565b6104bf916104b26104b792610deb565b6109e8565b918254610e5f565b90555f8681610499565b5093869560018751145f14610535575f838801515f5160206115f55f395f51905f5261050086880151604051918291339583610ec7565b0390a45b61050a57005b84516001036105275780610525950151910151915f33611536565b005b509092610525935f33611418565b5f6040515f5160206115d55f395f51905f52339180610555898d8361135c565b0390a4610504565b635b05999160e01b5f5260045260245260445b5ffd5b632bfa23e760e11b5f525f60045260245ffd5b6282b42960e81b5f5260045ffd5b3461015e57602036600319011261015e576105b0600435610f9a565b809250039081116105d157600181018091116105d157602090604051908152f35b610e21565b634e487b7160e01b5f52604160045260245ffd5b601f909101601f19168101906001600160401b0382119082101761060d57604052565b6105d6565b6001600160401b03811161060d5760051b60200190565b9080601f8301121561015e57813561064081610612565b9261064e60405194856105ea565b81845260208085019260051b82010192831161015e57602001905b8282106106765750505090565b8135815260209182019101610669565b6001600160401b03811161060d57601f01601f191660200190565b81601f8201121561015e578035906106b882610686565b926106c660405194856105ea565b8284526020838301011161015e57815f926020809301838601378301015290565b3461015e5760a036600319011261015e57610700610148565b610708610162565b906044356001600160401b03811161015e57610728903690600401610629565b6064356001600160401b03811161015e57610747903690600401610629565b608435939091906001600160401b03851161015e5761076d6105259536906004016106a1565b93610e6c565b90602080835192838152019201905f5b8181106107905750505090565b8251845260209384019390920191600101610783565b906020610279928181520190610773565b3461015e57604036600319011261015e576004356001600160401b03811161015e573660238201121561015e578060040135906107f382610612565b9161080160405193846105ea565b8083526024602084019160051b8301019136831161015e57602401905b82821061085e57836024356001600160401b03811161015e5761035c9161084c610852923690600401610629565b90610f05565b604051918291826107a6565b6020809161086b84610178565b81520191019061081e565b3461015e57604036600319011261015e5761088f610148565b602435907f00000000000000000000000000000000000000000000000000000000000000006001600160a01b03163303610586576001600160a01b03165f818152600460205260408120805460ff191660011790557f5c7526a8606ef738707802d7fb4207680d8d2b8ab0daa599cdf1bbe410591f3b9080a3005b3461015e57604036600319011261015e576004356024357f00000000000000000000000000000000000000000000000000000000000000006001600160a01b031633036105865760207f3f43c41becd9103ee7cea2e43fc31ecba817031f5822bcc289bb044bd1e7e94991835f52600382528060405f2055604051908152a2005b3461015e57602036600319011261015e5760606109a9600435610f9a565b9060405192835260208301526040820152f35b3461015e57606036600319011261015e5760206109e0604435602435600435610fb4565b604051908152f35b9060018060a01b03165f5260205260405f2090565b3461015e57602036600319011261015e576001600160a01b03610a1e610148565b165f526004602052602060ff60405f2054166040519015158152f35b3461015e57604036600319011261015e57610a53610148565b602435908115159081830361015e576001600160a01b038116928315610aca57610a8b610a9c92335f52600160205260405f206109e8565b9060ff801983541691151516179055565b6040519081527f17307eab39ab6107e8899845ad3d59bd9653f200f220920489ca2b5937696c3160203392a3005b62ced3e160e81b5f525f60045260245ffd5b3461015e57602036600319011261015e576020610afa600435610f9a565b60405191141581529050f35b6001600160a01b0316600452602490565b3461015e575f36600319011261015e576040517f00000000000000000000000000000000000000000000000000000000000000006001600160a01b03168152602090f35b3461015e57604036600319011261015e5760206109e060243580600435610fb4565b3461015e57604036600319011261015e57602060ff610bc1610b9d610148565b610ba5610162565b6001600160a01b039091165f90815260018552604090206109e8565b54166040519015158152f35b3461015e5760a036600319011261015e57610be6610148565b610bee610162565b60443590606435926084356001600160401b03811161015e57610c159036906004016106a1565b926001600160a01b0382163381141580610c7f575b610c69576001600160a01b038416156105735715610c575761052594610c4f9161118e565b9290916111b3565b626a0d4560e21b5f525f60045260245ffd5b63711bec9160e11b5f523360045260245260445ffd5b50805f52600160205260ff610c973360405f206109e8565b541615610c2a565b3461015e57610cad366103da565b335f52600460205260ff60405f20541615610586576001600160a01b03831615610c5757610cda9161118e565b60405191926020925f90610cee85826105ea565b52835182519081810361055d576001600160a01b038316801515908585888a5f5b8151811015610d8d578060051b8784808386010151928801015190610d39575b5050600101610d0f565b610d46866104b284610deb565b54818110610d6a57866104b26001959493610d62930393610deb565b559088610d2f565b86610d8984846040519485946303dee4c560e01b865260048601611338565b0390fd5b5f8683878660018351148514610dca5780610dc5915f5160206115f55f395f51905f5293940151930151604051918291339583610ec7565b0390a4005b50610dc55f5160206115d55f395f51905f529160405191829133958361135c565b5f525f60205260405f2090565b610e0b915f525f60205260405f206109e8565b5490565b805191908290602001825e015f815290565b634e487b7160e01b5f52601160045260245ffd5b5f198101919082116105d157565b60010190816001116105d157565b60300190816030116105d157565b919082018092116105d157565b939291906001600160a01b0385163381141580610ea7575b610c69576001600160a01b038216156105735715610c5757610ea5946111b3565b565b50805f52600160205260ff610ebf3360405f206109e8565b541615610e84565b908152602081019190915260400190565b634e487b7160e01b5f52603260045260245ffd5b8051821015610f005760209160051b010190565b610ed8565b91909180518351808203610f85575050805190610f2182610612565b91610f2f60405193846105ea565b808352610f3e601f1991610612565b013660208401375f5b8151811015610f7e5780610f6d60019260051b6020808287010151918901015190610df8565b610f778286610eec565b5201610f47565b5090925050565b635b05999160e01b5f5260045260245260445ffd5b608081901c916001600160401b03604083901c8116921690565b9190808210610ff25760809290921b6001600160801b03191660409290921b600160401b600160801b0316919091176001600160401b039091161790565b60405162461bcd60e51b815260206004820152600d60248201526c496e76616c69642072616e676560981b6044820152606490fd5b604051906110366040836105ea565b601082526f181899199a1a9b1b9c1cb0b131b232b360811b6020830152565b6040516060919061106683826105ea565b6040815291601f1901366020840137565b9061108182610686565b61108e60405191826105ea565b828152809261109f601f1991610686565b0190602036910137565b908151811015610f00570160200190565b908160011b91808304600214901517156105d157565b5f1981146105d15760010190565b90811561116d575f82805b61114e5750806110f98492611077565b915b61110457509150565b61111061114791610e35565b9361113361112361037d600a8406610e51565b60f81b6001600160f81b03191690565b5f1a61113f86856110a9565b53600a900490565b92836110fb565b929061115c611164916110d0565b93600a900490565b809391936110e9565b905060405161117d6040826105ea565b60018152600360fc1b602082015290565b9160405192600184526020840152604083019160018352606084015260808301604052565b949392909193845182519081810361055d5750506001600160a01b038681169586151595918516801515939192905f5b845181101561128c578060051b90898988602080868b010151958c01015192611233575b93600194611219575b505050016111e3565b611229916104b26104b792610deb565b90555f8981611210565b505090916112448d6104b283610deb565b5482811061126d578291898f611264600197968f9503916104b285610deb565b55909450611207565b8d610d8983856040519485946303dee4c560e01b865260048601611338565b5091989593929790965060018851145f146113115760208801515f5160206115f55f395f51905f526112ca6020880151604051918291339583610ec7565b0390a45b6112da575b5050505050565b8451600103611300576020806112f69601519201519233611536565b5f808080806112d3565b61130c94919233611418565b6112f6565b6040515f5160206115d55f395f51905f52339180611330898d8361135c565b0390a46112ce565b90949392606092608083019660018060a01b03168352602083015260408201520152565b909161137361027993604084526040840190610773565b916020818403910152610773565b9081602091031261015e5751610279816101c4565b6001600160a01b0391821681529116602082015260a06040820181905261027994919391926113db92916113cd9190860190610773565b908482036060860152610773565b916080818403910152610244565b3d15611413573d906113fa82610686565b9161140860405193846105ea565b82523d5f602084013e565b606090565b9091949293853b61142c575b505050505050565b60209361144e91604051968795869563bc197c8160e01b875260048701611396565b03815f6001600160a01b0387165af15f91816114cc575b5061149657506114736113e9565b805191908261148f57632bfa23e760e11b5f5261057082610b06565b9050602001fd5b6001600160e01b0319166343e6837f60e01b016114b957505f8080808080611424565b632bfa23e760e11b5f5261057090610b06565b6114ef91925060203d6020116114f6575b6114e781836105ea565b810190611381565b905f611465565b503d6114dd565b6001600160a01b039182168152911660208201526040810191909152606081019190915260a06080820181905261027992910190610244565b9091949293853b61154957505050505050565b60209361156b91604051968795869563f23a6e6160e01b8752600487016114fd565b03815f6001600160a01b0387165af15f91816115b3575b5061159057506114736113e9565b6001600160e01b031916630dc5919f60e01b016114b957505f8080808080611424565b6115cd91925060203d6020116114f6576114e781836105ea565b905f61158256fe4a39dc06d4c0dbc64b70af90fd698a233a518aa5d07e595d983b8c0526c8f7fbc3d58168c5ae7397731d063d5bbf3d657854427343f4c083240f7aacaa2d0f62a164736f6c634300081c000a","linkReferences":{}},"methodIdentifiers":{"authorizeMarket(address,uint256)":"6a1701bd","balanceOf(address,uint256)":"00fdd58e","balanceOfBatch(address[],uint256[])":"4e1273f4","bucketCount(uint256)":"162c370a","burn(address,uint256,uint256)":"f5298aca","decodeTokenId(uint256)":"7efd9112","encodeTokenId(uint256,uint256,uint256)":"959c45b7","encodeTokenIdSingle(uint256,uint256)":"dba4a464","factory()":"c45a0155","isApprovedForAll(address,address)":"e985e9c5","isAuthorizedMarket(address)":"99079671","isRangeToken(uint256)":"ab21dbab","mint(address,uint256,uint256)":"156e29f6","safeBatchTransferFrom(address,address,uint256[],uint256[],bytes)":"2eb2c2d6","safeTransferFrom(address,address,uint256,uint256,bytes)":"f242432a","setApprovalForAll(address,bool)":"a22cb465","setCID(uint256,bytes32)":"6a7f854d","supportsInterface(bytes4)":"01ffc9a7","uri(uint256)":"0e89341c"},"id":86}