{"abi":[{"type":"constructor","inputs":[{"name":"_asset","type":"address","internalType":"address"},{"name":"_name","type":"string","internalType":"string"},{"name":"_symbol","type":"string","internalType":"string"},{"name":"_owner","type":"address","internalType":"address"}],"stateMutability":"nonpayable"},{"type":"function","name":"BPS_DENOMINATOR","inputs":[],"outputs":[{"name":"","type":"uint256","internalType":"uint256"}],"stateMutability":"view"},{"type":"function","name":"HEALTH_INJECT_THRESHOLD","inputs":[],"outputs":[{"name":"","type":"uint256","internalType":"uint256"}],"stateMutability":"view"},{"type":"function","name":"HEALTH_WITHDRAW_THRESHOLD","inputs":[],"outputs":[{"name":"","type":"uint256","internalType":"uint256"}],"stateMutability":"view"},{"type":"function","name":"LIQUID_BUFFER_BPS","inputs":[],"outputs":[{"name":"","type":"uint256","internalType":"uint256"}],"stateMutability":"view"},{"type":"function","name":"MAX_MARKET_BPS","inputs":[],"outputs":[{"name":"","type":"uint256","internalType":"uint256"}],"stateMutability":"view"},{"type":"function","name":"MIN_WITHDRAWAL_REQUEST","inputs":[],"outputs":[{"name":"","type":"uint256","internalType":"uint256"}],"stateMutability":"view"},{"type":"function","name":"allowance","inputs":[{"name":"owner","type":"address","internalType":"address"},{"name":"spender","type":"address","internalType":"address"}],"outputs":[{"name":"","type":"uint256","internalType":"uint256"}],"stateMutability":"view"},{"type":"function","name":"approve","inputs":[{"name":"spender","type":"address","internalType":"address"},{"name":"value","type":"uint256","internalType":"uint256"}],"outputs":[{"name":"","type":"bool","internalType":"bool"}],"stateMutability":"nonpayable"},{"type":"function","name":"asset","inputs":[],"outputs":[{"name":"","type":"address","internalType":"address"}],"stateMutability":"view"},{"type":"function","name":"balanceOf","inputs":[{"name":"account","type":"address","internalType":"address"}],"outputs":[{"name":"","type":"uint256","internalType":"uint256"}],"stateMutability":"view"},{"type":"function","name":"cachedMarketValue","inputs":[{"name":"","type":"address","internalType":"address"}],"outputs":[{"name":"","type":"uint256","internalType":"uint256"}],"stateMutability":"view"},{"type":"function","name":"cachedTotalMarketValue","inputs":[],"outputs":[{"name":"","type":"uint256","internalType":"uint256"}],"stateMutability":"view"},{"type":"function","name":"claimWithdrawal","inputs":[{"name":"queueIndex","type":"uint256","internalType":"uint256"}],"outputs":[],"stateMutability":"nonpayable"},{"type":"function","name":"convertToAssets","inputs":[{"name":"shares","type":"uint256","internalType":"uint256"}],"outputs":[{"name":"","type":"uint256","internalType":"uint256"}],"stateMutability":"view"},{"type":"function","name":"convertToShares","inputs":[{"name":"assets","type":"uint256","internalType":"uint256"}],"outputs":[{"name":"","type":"uint256","internalType":"uint256"}],"stateMutability":"view"},{"type":"function","name":"decimals","inputs":[],"outputs":[{"name":"","type":"uint8","internalType":"uint8"}],"stateMutability":"view"},{"type":"function","name":"deployTo","inputs":[{"name":"market","type":"address","internalType":"address"},{"name":"amount","type":"uint256","internalType":"uint256"}],"outputs":[],"stateMutability":"nonpayable"},{"type":"function","name":"deployableCapital","inputs":[],"outputs":[{"name":"","type":"uint256","internalType":"uint256"}],"stateMutability":"view"},{"type":"function","name":"deployedTo","inputs":[{"name":"","type":"address","internalType":"address"}],"outputs":[{"name":"","type":"uint256","internalType":"uint256"}],"stateMutability":"view"},{"type":"function","name":"deposit","inputs":[{"name":"assets","type":"uint256","internalType":"uint256"},{"name":"receiver","type":"address","internalType":"address"}],"outputs":[{"name":"","type":"uint256","internalType":"uint256"}],"stateMutability":"nonpayable"},{"type":"function","name":"depositsEnabled","inputs":[],"outputs":[{"name":"","type":"bool","internalType":"bool"}],"stateMutability":"view"},{"type":"function","name":"factory","inputs":[],"outputs":[{"name":"","type":"address","internalType":"address"}],"stateMutability":"view"},{"type":"function","name":"fundNewMarket","inputs":[{"name":"market","type":"address","internalType":"address"},{"name":"amount","type":"uint256","internalType":"uint256"}],"outputs":[],"stateMutability":"nonpayable"},{"type":"function","name":"getWithdrawalRequest","inputs":[{"name":"queueIndex","type":"uint256","internalType":"uint256"}],"outputs":[{"name":"","type":"tuple","internalType":"struct Vault.WithdrawalRequest","components":[{"name":"owner","type":"address","internalType":"address"},{"name":"assetsOwed","type":"uint256","internalType":"uint256"},{"name":"fulfilled","type":"bool","internalType":"bool"},{"name":"claimed","type":"bool","internalType":"bool"},{"name":"requestTime","type":"uint256","internalType":"uint256"}]}],"stateMutability":"view"},{"type":"function","name":"harvestResolved","inputs":[{"name":"market","type":"address","internalType":"address"}],"outputs":[],"stateMutability":"nonpayable"},{"type":"function","name":"harvestSurplus","inputs":[{"name":"market","type":"address","internalType":"address"}],"outputs":[],"stateMutability":"nonpayable"},{"type":"function","name":"isRegistered","inputs":[{"name":"","type":"address","internalType":"address"}],"outputs":[{"name":"","type":"bool","internalType":"bool"}],"stateMutability":"view"},{"type":"function","name":"liquidAvailable","inputs":[],"outputs":[{"name":"","type":"uint256","internalType":"uint256"}],"stateMutability":"view"},{"type":"function","name":"lowestHealthMarket","inputs":[],"outputs":[{"name":"worst","type":"address","internalType":"address"},{"name":"ratio","type":"uint256","internalType":"uint256"}],"stateMutability":"view"},{"type":"function","name":"marketCount","inputs":[],"outputs":[{"name":"","type":"uint256","internalType":"uint256"}],"stateMutability":"view"},{"type":"function","name":"marketHealthRatio","inputs":[{"name":"market","type":"address","internalType":"address"}],"outputs":[{"name":"","type":"uint256","internalType":"uint256"}],"stateMutability":"view"},{"type":"function","name":"markets","inputs":[{"name":"","type":"uint256","internalType":"uint256"}],"outputs":[{"name":"","type":"address","internalType":"address"}],"stateMutability":"view"},{"type":"function","name":"maxDeposit","inputs":[{"name":"receiver","type":"address","internalType":"address"}],"outputs":[{"name":"","type":"uint256","internalType":"uint256"}],"stateMutability":"view"},{"type":"function","name":"maxMint","inputs":[{"name":"receiver","type":"address","internalType":"address"}],"outputs":[{"name":"","type":"uint256","internalType":"uint256"}],"stateMutability":"view"},{"type":"function","name":"maxRedeem","inputs":[{"name":"owner","type":"address","internalType":"address"}],"outputs":[{"name":"","type":"uint256","internalType":"uint256"}],"stateMutability":"view"},{"type":"function","name":"maxWithdraw","inputs":[{"name":"owner","type":"address","internalType":"address"}],"outputs":[{"name":"","type":"uint256","internalType":"uint256"}],"stateMutability":"view"},{"type":"function","name":"mint","inputs":[{"name":"shares","type":"uint256","internalType":"uint256"},{"name":"receiver","type":"address","internalType":"address"}],"outputs":[{"name":"","type":"uint256","internalType":"uint256"}],"stateMutability":"nonpayable"},{"type":"function","name":"name","inputs":[],"outputs":[{"name":"","type":"string","internalType":"string"}],"stateMutability":"view"},{"type":"function","name":"owner","inputs":[],"outputs":[{"name":"","type":"address","internalType":"address"}],"stateMutability":"view"},{"type":"function","name":"pause","inputs":[],"outputs":[],"stateMutability":"nonpayable"},{"type":"function","name":"paused","inputs":[],"outputs":[{"name":"","type":"bool","internalType":"bool"}],"stateMutability":"view"},{"type":"function","name":"pendingCount","inputs":[],"outputs":[{"name":"","type":"uint256","internalType":"uint256"}],"stateMutability":"view"},{"type":"function","name":"pendingWithdrawalsCount","inputs":[],"outputs":[{"name":"","type":"uint256","internalType":"uint256"}],"stateMutability":"view"},{"type":"function","name":"previewDeposit","inputs":[{"name":"assets","type":"uint256","internalType":"uint256"}],"outputs":[{"name":"","type":"uint256","internalType":"uint256"}],"stateMutability":"view"},{"type":"function","name":"previewMint","inputs":[{"name":"shares","type":"uint256","internalType":"uint256"}],"outputs":[{"name":"","type":"uint256","internalType":"uint256"}],"stateMutability":"view"},{"type":"function","name":"previewRedeem","inputs":[{"name":"shares","type":"uint256","internalType":"uint256"}],"outputs":[{"name":"","type":"uint256","internalType":"uint256"}],"stateMutability":"view"},{"type":"function","name":"previewWithdraw","inputs":[{"name":"assets","type":"uint256","internalType":"uint256"}],"outputs":[{"name":"","type":"uint256","internalType":"uint256"}],"stateMutability":"view"},{"type":"function","name":"queueHead","inputs":[],"outputs":[{"name":"","type":"uint256","internalType":"uint256"}],"stateMutability":"view"},{"type":"function","name":"redeem","inputs":[{"name":"shares","type":"uint256","internalType":"uint256"},{"name":"receiver","type":"address","internalType":"address"},{"name":"owner","type":"address","internalType":"address"}],"outputs":[{"name":"","type":"uint256","internalType":"uint256"}],"stateMutability":"nonpayable"},{"type":"function","name":"registerMarket","inputs":[{"name":"market","type":"address","internalType":"address"}],"outputs":[],"stateMutability":"nonpayable"},{"type":"function","name":"renounceOwnership","inputs":[],"outputs":[],"stateMutability":"nonpayable"},{"type":"function","name":"requestWithdrawal","inputs":[{"name":"shares","type":"uint256","internalType":"uint256"}],"outputs":[{"name":"queueIndex","type":"uint256","internalType":"uint256"}],"stateMutability":"nonpayable"},{"type":"function","name":"reservedForWithdrawals","inputs":[],"outputs":[{"name":"","type":"uint256","internalType":"uint256"}],"stateMutability":"view"},{"type":"function","name":"setDepositsEnabled","inputs":[{"name":"_enabled","type":"bool","internalType":"bool"}],"outputs":[],"stateMutability":"nonpayable"},{"type":"function","name":"setFactory","inputs":[{"name":"_factory","type":"address","internalType":"address"}],"outputs":[],"stateMutability":"nonpayable"},{"type":"function","name":"symbol","inputs":[],"outputs":[{"name":"","type":"string","internalType":"string"}],"stateMutability":"view"},{"type":"function","name":"syncMarketValue","inputs":[{"name":"market","type":"address","internalType":"address"}],"outputs":[],"stateMutability":"nonpayable"},{"type":"function","name":"totalAssets","inputs":[],"outputs":[{"name":"","type":"uint256","internalType":"uint256"}],"stateMutability":"view"},{"type":"function","name":"totalAssetsOwed","inputs":[],"outputs":[{"name":"","type":"uint256","internalType":"uint256"}],"stateMutability":"view"},{"type":"function","name":"totalDeployed","inputs":[],"outputs":[{"name":"","type":"uint256","internalType":"uint256"}],"stateMutability":"view"},{"type":"function","name":"totalHarvestableSurplus","inputs":[],"outputs":[{"name":"total","type":"uint256","internalType":"uint256"}],"stateMutability":"view"},{"type":"function","name":"totalSupply","inputs":[],"outputs":[{"name":"","type":"uint256","internalType":"uint256"}],"stateMutability":"view"},{"type":"function","name":"transfer","inputs":[{"name":"to","type":"address","internalType":"address"},{"name":"value","type":"uint256","internalType":"uint256"}],"outputs":[{"name":"","type":"bool","internalType":"bool"}],"stateMutability":"nonpayable"},{"type":"function","name":"transferFrom","inputs":[{"name":"from","type":"address","internalType":"address"},{"name":"to","type":"address","internalType":"address"},{"name":"value","type":"uint256","internalType":"uint256"}],"outputs":[{"name":"","type":"bool","internalType":"bool"}],"stateMutability":"nonpayable"},{"type":"function","name":"transferOwnership","inputs":[{"name":"newOwner","type":"address","internalType":"address"}],"outputs":[],"stateMutability":"nonpayable"},{"type":"function","name":"unpause","inputs":[],"outputs":[],"stateMutability":"nonpayable"},{"type":"function","name":"withdraw","inputs":[{"name":"assets","type":"uint256","internalType":"uint256"},{"name":"receiver","type":"address","internalType":"address"},{"name":"owner","type":"address","internalType":"address"}],"outputs":[{"name":"","type":"uint256","internalType":"uint256"}],"stateMutability":"nonpayable"},{"type":"function","name":"withdrawalQueue","inputs":[{"name":"","type":"uint256","internalType":"uint256"}],"outputs":[{"name":"owner","type":"address","internalType":"address"},{"name":"assetsOwed","type":"uint256","internalType":"uint256"},{"name":"fulfilled","type":"bool","internalType":"bool"},{"name":"claimed","type":"bool","internalType":"bool"},{"name":"requestTime","type":"uint256","internalType":"uint256"}],"stateMutability":"view"},{"type":"event","name":"Approval","inputs":[{"name":"owner","type":"address","indexed":true,"internalType":"address"},{"name":"spender","type":"address","indexed":true,"internalType":"address"},{"name":"value","type":"uint256","indexed":false,"internalType":"uint256"}],"anonymous":false},{"type":"event","name":"CapitalDeployed","inputs":[{"name":"market","type":"address","indexed":true,"internalType":"address"},{"name":"amount","type":"uint256","indexed":false,"internalType":"uint256"}],"anonymous":false},{"type":"event","name":"Deposit","inputs":[{"name":"sender","type":"address","indexed":true,"internalType":"address"},{"name":"owner","type":"address","indexed":true,"internalType":"address"},{"name":"assets","type":"uint256","indexed":false,"internalType":"uint256"},{"name":"shares","type":"uint256","indexed":false,"internalType":"uint256"}],"anonymous":false},{"type":"event","name":"DepositsEnabledUpdated","inputs":[{"name":"enabled","type":"bool","indexed":false,"internalType":"bool"}],"anonymous":false},{"type":"event","name":"FactoryUpdated","inputs":[{"name":"oldFactory","type":"address","indexed":true,"internalType":"address"},{"name":"newFactory","type":"address","indexed":true,"internalType":"address"}],"anonymous":false},{"type":"event","name":"MarketRegistered","inputs":[{"name":"market","type":"address","indexed":true,"internalType":"address"}],"anonymous":false},{"type":"event","name":"MarketValueSynced","inputs":[{"name":"market","type":"address","indexed":true,"internalType":"address"},{"name":"oldValue","type":"uint256","indexed":false,"internalType":"uint256"},{"name":"newValue","type":"uint256","indexed":false,"internalType":"uint256"}],"anonymous":false},{"type":"event","name":"OwnershipTransferred","inputs":[{"name":"previousOwner","type":"address","indexed":true,"internalType":"address"},{"name":"newOwner","type":"address","indexed":true,"internalType":"address"}],"anonymous":false},{"type":"event","name":"Paused","inputs":[{"name":"account","type":"address","indexed":false,"internalType":"address"}],"anonymous":false},{"type":"event","name":"ResolvedHarvested","inputs":[{"name":"market","type":"address","indexed":true,"internalType":"address"},{"name":"amount","type":"uint256","indexed":false,"internalType":"uint256"}],"anonymous":false},{"type":"event","name":"SurplusHarvested","inputs":[{"name":"market","type":"address","indexed":true,"internalType":"address"},{"name":"amount","type":"uint256","indexed":false,"internalType":"uint256"}],"anonymous":false},{"type":"event","name":"Transfer","inputs":[{"name":"from","type":"address","indexed":true,"internalType":"address"},{"name":"to","type":"address","indexed":true,"internalType":"address"},{"name":"value","type":"uint256","indexed":false,"internalType":"uint256"}],"anonymous":false},{"type":"event","name":"Unpaused","inputs":[{"name":"account","type":"address","indexed":false,"internalType":"address"}],"anonymous":false},{"type":"event","name":"Withdraw","inputs":[{"name":"sender","type":"address","indexed":true,"internalType":"address"},{"name":"receiver","type":"address","indexed":true,"internalType":"address"},{"name":"owner","type":"address","indexed":true,"internalType":"address"},{"name":"assets","type":"uint256","indexed":false,"internalType":"uint256"},{"name":"shares","type":"uint256","indexed":false,"internalType":"uint256"}],"anonymous":false},{"type":"event","name":"WithdrawalClaimed","inputs":[{"name":"owner","type":"address","indexed":true,"internalType":"address"},{"name":"queueIndex","type":"uint256","indexed":true,"internalType":"uint256"},{"name":"assets","type":"uint256","indexed":false,"internalType":"uint256"}],"anonymous":false},{"type":"event","name":"WithdrawalFulfilled","inputs":[{"name":"queueIndex","type":"uint256","indexed":true,"internalType":"uint256"},{"name":"assetsOwed","type":"uint256","indexed":false,"internalType":"uint256"}],"anonymous":false},{"type":"event","name":"WithdrawalRequested","inputs":[{"name":"owner","type":"address","indexed":true,"internalType":"address"},{"name":"queueIndex","type":"uint256","indexed":true,"internalType":"uint256"},{"name":"sharesBurned","type":"uint256","indexed":false,"internalType":"uint256"},{"name":"assetsOwed","type":"uint256","indexed":false,"internalType":"uint256"}],"anonymous":false},{"type":"error","name":"AddressEmptyCode","inputs":[{"name":"target","type":"address","internalType":"address"}]},{"type":"error","name":"AddressInsufficientBalance","inputs":[{"name":"account","type":"address","internalType":"address"}]},{"type":"error","name":"DepositsDisabled","inputs":[]},{"type":"error","name":"ERC20InsufficientAllowance","inputs":[{"name":"spender","type":"address","internalType":"address"},{"name":"allowance","type":"uint256","internalType":"uint256"},{"name":"needed","type":"uint256","internalType":"uint256"}]},{"type":"error","name":"ERC20InsufficientBalance","inputs":[{"name":"sender","type":"address","internalType":"address"},{"name":"balance","type":"uint256","internalType":"uint256"},{"name":"needed","type":"uint256","internalType":"uint256"}]},{"type":"error","name":"ERC20InvalidApprover","inputs":[{"name":"approver","type":"address","internalType":"address"}]},{"type":"error","name":"ERC20InvalidReceiver","inputs":[{"name":"receiver","type":"address","internalType":"address"}]},{"type":"error","name":"ERC20InvalidSender","inputs":[{"name":"sender","type":"address","internalType":"address"}]},{"type":"error","name":"ERC20InvalidSpender","inputs":[{"name":"spender","type":"address","internalType":"address"}]},{"type":"error","name":"ERC4626ExceededMaxDeposit","inputs":[{"name":"receiver","type":"address","internalType":"address"},{"name":"assets","type":"uint256","internalType":"uint256"},{"name":"max","type":"uint256","internalType":"uint256"}]},{"type":"error","name":"ERC4626ExceededMaxMint","inputs":[{"name":"receiver","type":"address","internalType":"address"},{"name":"shares","type":"uint256","internalType":"uint256"},{"name":"max","type":"uint256","internalType":"uint256"}]},{"type":"error","name":"ERC4626ExceededMaxRedeem","inputs":[{"name":"owner","type":"address","internalType":"address"},{"name":"shares","type":"uint256","internalType":"uint256"},{"name":"max","type":"uint256","internalType":"uint256"}]},{"type":"error","name":"ERC4626ExceededMaxWithdraw","inputs":[{"name":"owner","type":"address","internalType":"address"},{"name":"assets","type":"uint256","internalType":"uint256"},{"name":"max","type":"uint256","internalType":"uint256"}]},{"type":"error","name":"EnforcedPause","inputs":[]},{"type":"error","name":"ExceedsMarketCap","inputs":[]},{"type":"error","name":"ExpectedPause","inputs":[]},{"type":"error","name":"FailedInnerCall","inputs":[]},{"type":"error","name":"InsufficientLiquidBuffer","inputs":[]},{"type":"error","name":"InsufficientShares","inputs":[]},{"type":"error","name":"InvalidQueueIndex","inputs":[]},{"type":"error","name":"MarketAlreadyRegistered","inputs":[]},{"type":"error","name":"MarketNotRegistered","inputs":[]},{"type":"error","name":"MarketNotResolved","inputs":[]},{"type":"error","name":"MathOverflowedMulDiv","inputs":[]},{"type":"error","name":"NotFactory","inputs":[]},{"type":"error","name":"NotRequestOwner","inputs":[]},{"type":"error","name":"NothingToHarvest","inputs":[]},{"type":"error","name":"OwnableInvalidOwner","inputs":[{"name":"owner","type":"address","internalType":"address"}]},{"type":"error","name":"OwnableUnauthorizedAccount","inputs":[{"name":"account","type":"address","internalType":"address"}]},{"type":"error","name":"ReentrancyGuardReentrantCall","inputs":[]},{"type":"error","name":"SafeERC20FailedOperation","inputs":[{"name":"token","type":"address","internalType":"address"}]},{"type":"error","name":"WithdrawalAlreadyClaimed","inputs":[]},{"type":"error","name":"WithdrawalNotFulfilled","inputs":[]}],"bytecode":{"object":"0x60c0806040523461041d576137bf803803809161001c8285610421565b833981019060808183031261041d5761003481610444565b60208201516001600160401b03811161041d5783610053918401610473565b604083015190936001600160401b03821161041d57610079606091610080938601610473565b9301610444565b835190916001600160a01b0316906001600160401b03811161032e57600354600181811c91168015610413575b602082101461031057601f81116103b0575b50602094601f821160011461034d579481929394955f92610342575b50508160011b915f199060031b1c1916176003555b82516001600160401b03811161032e57600454600181811c91168015610324575b602082101461031057601f81116102ad575b506020601f821160011461024a57819293945f9261023f575b50508160011b915f199060031b1c1916176004555b61015a816104b9565b9015610237575b60a0526080526001600160a01b03168015610224576005546040519190816001600160a01b0382167f8be0079c531659141344cd1fd0a4f28419497f9722a3daafe3b4186f6b6457e05f80a36001600160a81b031916176005556001600655613262908161055d82396080518181816103b80152818161068101528181610b9e01528181610cd7015281816112ec015281816114d70152818161187a01528181611c11015281816120590152818161241c015261257c015260a05181611c560152f35b631e4fbdf760e01b5f525f60045260245ffd5b506012610161565b015190505f8061013c565b601f1982169060045f52805f20915f5b8181106102955750958360019596971061027d575b505050811b01600455610151565b01515f1960f88460031b161c191690555f808061026f565b9192602060018192868b01518155019401920161025a565b60045f527f8a35acfbc15ff81a39ae7d344fd709f28e8600b4aa8c65c6b64bfe7fe36bd19b601f830160051c81019160208410610306575b601f0160051c01905b8181106102fb5750610123565b5f81556001016102ee565b90915081906102e5565b634e487b7160e01b5f52602260045260245ffd5b90607f1690610111565b634e487b7160e01b5f52604160045260245ffd5b015190505f806100db565b601f1982169560035f52805f20915f5b88811061039857508360019596979810610380575b505050811b016003556100f0565b01515f1960f88460031b161c191690555f8080610372565b9192602060018192868501518155019401920161035d565b60035f527fc2575a0e9e593c00f959f8c92f12db2869c3395a3b0502d05e2516446f71f85b601f830160051c81019160208410610409575b601f0160051c01905b8181106103fe57506100bf565b5f81556001016103f1565b90915081906103e8565b90607f16906100ad565b5f80fd5b601f909101601f19168101906001600160401b0382119082101761032e57604052565b51906001600160a01b038216820361041d57565b6001600160401b03811161032e57601f01601f191660200190565b81601f8201121561041d5780519061048a82610458565b926104986040519485610421565b8284526020838301011161041d57815f9260208093018386015e8301015290565b5f8091604051602081019063313ce56760e01b8252600481526104dd602482610421565b51916001600160a01b03165afa3d15610554573d906104fb82610458565b916105096040519384610421565b82523d5f602084013e5b80610548575b610525575b505f905f90565b60208180518101031261041d576020015160ff811161051e579060ff6001921690565b50602081511015610519565b60609061051356fe60806040526004361015610011575f80fd5b5f5f3560e01c80630117eb2b14611fd357806301e1d11414611fb957806306fdde0314611ec557806307a2d13a14611b45578063095ea7b314611e1d5780630a28a47714611dff5780630cfb14b014611de257806318160ddd14611dc557806319dc3ac914611cc557806323b872dd14611c8d578063313ce56714611c4057806338d52e0f14611bfc5780633f4ba83a14611b8e578063402d267d14610a6c5780634773884014611b4a5780634cdad50614611b455780635392fd1c14611b235780635bb4780814611aba5780635c975abb14611a955780635d449a9d14611a785780636495e49e14611a5b57806364996c9b1461178e5780636d5cf122146117725780636e553f651461167257806370a082311461163a578063715018a6146115f05780637d3e1df0146107f35780638456cb591461158d5780638726646d146113fa5780638da5cb5b146113d157806393bd61ff146113ad57806394bf804d1461126457806395d89b411461115b578063965236441461113d5780639ee679e814610fa85780639f04586c14610f40578063a79b9ec914610eba578063a9059cbb14610e88578063ae48565114610db0578063b1283e7714610d6c578063b3d7f6b914610d4d578063b460af9414610c6c578063b77d39df14610c33578063ba08765214610b30578063bcbba0c914610b12578063c03f98f214610ad9578063c3c5a54714610a9a578063c45a015514610a71578063c63d75b614610a6c578063c6e6f5921461078f578063c822adda146109fc578063ce96cb77146109dd578063d646d450146109c1578063d905777e14610995578063d93af1d2146107d5578063d94ac1b114610886578063dd62ed3e14610833578063e1a4521814610816578063e20abac2146107b2578063e70cc5df146107f3578063ea70b4af146107d5578063ec979082146107b7578063ee21dd37146107b2578063ee25b32014610794578063ef8b30f71461078f578063f2fde38b14610719578063f8444436146106055763fe48e10c14610306575f80fd5b346106025760203660031901126106025761031f612227565b6103276127d8565b6001600160a01b0316808252600d602052604082205460ff16156105f357604051631006976960e11b8152602081600481855afa80156105aa5760019184916105c4575b50610375816124db565b036105b5576040516377b8c9a560e01b8152602081600481855afa9081156105aa57839161057b575b5061056c576040516370a0823160e01b81523060048201527f00000000000000000000000000000000000000000000000000000000000000006001600160a01b031690602081602481855afa90811561050b57849161053a575b50823b1561052b576040516350d3250f60e11b81528490818160048183895af1801561052f57610516575b50506020602492604051938480926370a0823160e01b82523060048301525afa91821561050b5784926104d1575b5061047f6020917f50c9f14b8aa1609c009a96ab936bd13d703e06b3bb5dd4c44e74f0488288768e936123e7565b83855260118252604085205484865260118352856040812055601054908082115f146104c9576104ae916123e7565b6010556104ba8161286c565b604051908152a2600160065580f35b5050846104ae565b91506020823d602011610503575b816104ec602093836123c4565b810103126104ff5790519061047f610451565b5f80fd5b3d91506104df565b6040513d86823e3d90fd5b81610520916123c4565b61052b57835f610423565b8380fd5b6040513d84823e3d90fd5b90506020813d602011610564575b81610555602093836123c4565b810103126104ff57515f6103f8565b3d9150610548565b631f94998d60e11b8252600482fd5b61059d915060203d6020116105a3575b61059581836123c4565b8101906127c0565b5f61039e565b503d61058b565b6040513d85823e3d90fd5b63174b639360e11b8252600482fd5b6105e6915060203d6020116105ec575b6105de81836123c4565b8101906124c3565b5f61036b565b503d6105d4565b631d5a9fa160e01b8252600482fd5b80fd5b50346106025760203660031901126106025760043560075481101561070a5761062d8161235d565b5080546001600160a01b031633036106fb576002810190815460ff8116156106ec5760081c60ff166106dd57600101549061066a826009546123e7565b600955805461ff0019166101001790556106ae81337f00000000000000000000000000000000000000000000000000000000000000006001600160a01b0316612bcf565b6040519081527f2d43eb174787155132b52ddb6b346e2dca99302eac3df4466dbeff953d3c84d160203392a380f35b632f29b3db60e01b8452600484fd5b639638981160e01b8552600485fd5b63517907dd60e01b8352600483fd5b630d00062b60e01b8252600482fd5b503461060257602036600319011261060257610733612227565b61073b612ba8565b6001600160a01b0316801561077b57600580546001600160a01b0319811683179091556001600160a01b03165f5160206131d65f395f51905f528380a380f35b631e4fbdf760e01b82526004829052602482fd5b61233f565b50346106025780600319360112610602576020604051620f42408152f35b612379565b50346106025780600319360112610602576020600c54604051908152f35b50346106025780600319360112610602576020601254604051908152f35b5034610602578060031936011261060257602061080e612561565b604051908152f35b503461060257806003193601126106025760206040516127108152f35b503461060257604036600319011261060257604061084f612227565b9161085861223d565b9260018060a01b031681526001602052209060018060a01b03165f52602052602060405f2054604051908152f35b5034610602578060031936011261060257600c5481805b8281106108af57602084604051908152f35b6108b8816122d9565b9054604051631006976960e11b815260039290921b1c6001600160a01b031690602081600481855afa90811561050b578491610977575b506108f9816124db565b15610908575b5060010161089d565b602060049160409693965192838092631b83249960e01b82525afa9081156105aa578391610945575b5061093e906001926123f4565b93906108ff565b90506020813d821161096f575b8161095f602093836123c4565b810103126104ff57516001610931565b3d9150610952565b61098f915060203d81116105ec576105de81836123c4565b5f6108ef565b503461060257602036600319011261060257602061080e6109bc6109b7612227565b61278c565b6129ff565b5034610602578060031936011261060257602060405160788152f35b503461060257602036600319011261060257602061080e6109b7612227565b503461060257602036600319011261060257600435906007548210156106025760a0610a278361235d565b50600180831b038154169060ff600182015491600360028201549101549260405194855260208501528181161515604085015260081c16151560608301526080820152f35b6122b6565b5034610602578060031936011261060257600b546040516001600160a01b039091168152602090f35b50346106025760203660031901126106025760209060ff906040906001600160a01b03610ac5612227565b168152600d84522054166040519015158152f35b5034610602576020366003190112610602576020906040906001600160a01b03610b01612227565b168152601183522054604051908152f35b50346106025780600319360112610602576020600854604051908152f35b503461060257610b3f36612305565b9091610b4d6109bc8361278c565b808211610c105750610b5e816129d6565b92610b67613065565b610b6f612561565b8411610c0157602094506001600160a01b03831692610b9790839033869003610bf157612c06565b610bc284827f0000000000000000000000000000000000000000000000000000000000000000612bcf565b604051918483528583015260018060a01b0316905f5160206131b65f395f51905f5260403392a4604051908152f35b610bfc823383612a5e565b612c06565b63fd8be27360e01b8552600485fd5b632e52afbb60e21b85526001600160a01b03909216600452602452604452606482fd5b5034610602576020366003190112610602576020906040906001600160a01b03610c5b612227565b168152600e83522054604051908152f35b503461060257610c7b36612305565b9091610c868261278c565b808211610d2a5750610c97816129ff565b92610ca0613065565b610ca8612561565b8211610c0157602094506001600160a01b03831692610cd090859033869003610bf157612c06565b610cfb82827f0000000000000000000000000000000000000000000000000000000000000000612bcf565b604051918252838583015260018060a01b0316905f5160206131b65f395f51905f5260403392a4604051908152f35b633fa733bb60e21b85526001600160a01b03909216600452602452604452606482fd5b503461060257602036600319011261060257602061080e6004356129a6565b50346106025760203660031901126106025760043590600c54821015610602576020610d97836122d9565b905460405160039290921b1c6001600160a01b03168152f35b50346106025760203660031901126106025760043590806080604051610dd581612395565b8281528260208201528260408201528260608201520152600754821015610e795760a0610e018361235d565b50604051610e0e81612395565b600180841b03825416918282526001810154906020830191825260028101549160806003604086019360ff86161515855260ff606088019660081c16151586520154940193845260405194855251602085015251151560408401525115156060830152516080820152f35b630d00062b60e01b8152600490fd5b503461060257604036600319011261060257610eaf610ea5612227565b6024359033612afe565b602060405160018152f35b503461060257602036600319011261060257610ed4612227565b610edc612ba8565b6001600160a01b038116808352600d602052604083205490919060ff16610f3157818352600d60205260408320805460ff19166001179055610f1d90612631565b5f5160206132165f395f51905f528280a280f35b63043bf2f760e51b8352600483fd5b503461060257602036600319011261060257600435801515809103610fa45760207f3e60a7054babfee1c64189c1b1493c8972e387009d11e7b1619f10db74420aef91610f8b612ba8565b60ff196013541660ff821617601355604051908152a180f35b5080fd5b50346106025760203660031901126106025760043590811561112e57338152806020528160408220541061112e57610fdf826129d6565b620f4240811061111f57610ff38333612c06565b6007549160405161100381612395565b33815260208101838152604082019083825260608301908482526080840193428552600160401b88101561110b57600188016007556110418861235d565b9690966110f75750926003928897959260209a979560018060a01b0390511660018060a01b0319875416178655516001860155600285019151151560ff8019845416911617825551151561ff0082549160081b169061ff001916179055519101556110ae816008546123f4565b6008556110bc60125461277e565b601255604051918252848201527f38e3d972947cfef94205163d483d6287ef27eb312e20cb8e0b13a49989db232e60403392a3604051908152f35b634e487b7160e01b81526004819052602490fd5b634e487b7160e01b86526041600452602486fd5b633999656760e01b8252600482fd5b633999656760e01b8152600490fd5b50346106025780600319360112610602576020600a54604051908152f35b50346106025780600319360112610602576040519080600454908160011c9160018116801561125a575b6020841081146112465783865290811561121f57506001146111c2575b6111be846111b2818603826123c4565b60405191829182612253565b0390f35b600481527f8a35acfbc15ff81a39ae7d344fd709f28e8600b4aa8c65c6b64bfe7fe36bd19b939250905b808210611205575090915081016020016111b2826111a2565b9192600181602092548385880101520191019092916111ec565b60ff191660208087019190915292151560051b850190920192506111b291508390506111a2565b634e487b7160e01b83526022600452602483fd5b92607f1692611185565b50346106025760403660031901126106025760043561128161223d565b9161128b836124f9565b80831161138c575061129c826129a6565b916112a5613065565b60ff601354161580611377575b611368576113106040516323b872dd60e01b6020820152336024820152306044820152846064820152606481526112ea6084826123c4565b7f0000000000000000000000000000000000000000000000000000000000000000612ffa565b6001600160a01b038416918215611354575061132e81602095612f62565b60405190838252848201525f5160206132365f395f51905f5260403392a3604051908152f35b63ec442f0560e01b81526004819052602490fd5b630e2f42c960e31b8252600482fd5b506005546001600160a01b03163314156112b2565b6064928463284ff66760e01b845260018060a01b0316600452602452604452fd5b503461060257602036600319011261060257602061080e6113cc612227565b612696565b50346106025780600319360112610602576005546040516001600160a01b039091168152602090f35b503461060257604036600319011261060257611414612227565b600b54602435906001600160a01b0316330361157e576001600160a01b038216808452600d602052604084205490929060ff1661156f57611453612401565b61145b612561565b8311610c015780611520575b50816115045f5160206131765f395f51905f5293602093868852600d855260408820600160ff1982541617905561149d81612631565b868852600e85528160408920556114b682600f546123f4565b600f55868852601185528160408920556114d2826010546123f4565b6010557f00000000000000000000000000000000000000000000000000000000000000006001600160a01b0316612bcf565b60405190845f5160206132165f395f51905f528780a28152a280f35b6127108302838104612710148415171561155b576107d09161154191612543565b1161154c575f611467565b635c3ac05760e01b8452600484fd5b634e487b7160e01b86526011600452602486fd5b63043bf2f760e51b8452600484fd5b631966391b60e11b8352600483fd5b50346106025780600319360112610602576115a6612ba8565b6115ae613065565b6005805460ff60a01b1916600160a01b1790556040513381527f62e78cea01bee320cd4e420270b5ea74000d11b0c9f74754ebdbfc544b05a25890602090a180f35b5034610602578060031936011261060257611609612ba8565b600580546001600160a01b0319811690915581906001600160a01b03165f5160206131d65f395f51905f528280a380f35b5034610602576020366003190112610602576020906040906001600160a01b03611662612227565b1681528083522054604051908152f35b50346106025760403660031901126106025760043561168f61223d565b91611699836124f9565b80831161175157506116aa82612a2f565b916116b3613065565b60ff60135416158061173c575b611368576116f86040516323b872dd60e01b6020820152336024820152306044820152826064820152606481526112ea6084826123c4565b6001600160a01b038416918215611354575061171683602095612f62565b60405190815282848201525f5160206132365f395f51905f5260403392a3604051908152f35b506005546001600160a01b03163314156116c0565b60649284633c8097d960e11b845260018060a01b0316600452602452604452fd5b5034610602578060031936011261060257602060405160968152f35b50346104ff5760403660031901126104ff576117a8612227565b6024356117b3612ba8565b6001600160a01b0382165f818152600d602052604090205490929060ff1615611a4c576117de612561565b8211611a3d576117ec612401565b806119d7575b50825f52600e60205260405f2061180a8382546123f4565b905561181882600f546123f4565b600f55825f52601160205261186361185060405f2054855f52600e60205260405f2054865f52601160205260405f20556010546123e7565b845f52600e60205260405f2054906123f4565b60105560405163095ea7b360e01b602082019081527f00000000000000000000000000000000000000000000000000000000000000006001600160a01b0316925f9182916118ca9085906118bc9089906024840161229b565b03601f1981018652856123c4565b83519082865af16118d9612fbc565b816119a8575b508061199e575b1561195a575b5050813b156104ff576040516328e32c8560e11b8152600481018290525f8160248183875af1801561194f57611939575b5060205f5160206131765f395f51905f5291604051908152a280f35b6119469193505f906123c4565b5f91602061191d565b6040513d5f823e3d90fd5b6119979161199260405163095ea7b360e01b60208201528660248201525f60448201526044815261198c6064826123c4565b82612ffa565b612ffa565b5f806118ec565b50813b15156118e6565b80518015925082156119bd575b50505f6118df565b6119d092506020809183010191016127c0565b5f806119b5565b835f52600e6020526119ed8360405f20546123f4565b6127108102908082046127101490151715611a29576107d091611a0f91612543565b11611a1a575f6117f2565b635c3ac05760e01b5f5260045ffd5b634e487b7160e01b5f52601160045260245ffd5b63fd8be27360e01b5f5260045ffd5b631d5a9fa160e01b5f5260045ffd5b346104ff575f3660031901126104ff576020600954604051908152f35b346104ff575f3660031901126104ff576020601054604051908152f35b346104ff575f3660031901126104ff57602060ff60055460a01c166040519015158152f35b346104ff5760203660031901126104ff57611ad3612227565b611adb612ba8565b600b80546001600160a01b039283166001600160a01b0319821681179092559091167f333c7678baf16017cf31e1d2f90143a62aab01a67a0807f6836a4304ceabb5555f80a3005b346104ff575f3660031901126104ff57602060ff601354166040519015158152f35b61227d565b346104ff5760203660031901126104ff57611b63612227565b6001600160a01b0381165f908152600d602052604090205460ff1615611a4c57611b8c906127f8565b005b346104ff575f3660031901126104ff57611ba6612ba8565b60055460ff8160a01c1615611bed5760ff60a01b19166005556040513381527f5db9ee0a495bf2e6ff9c91a7834c1ba4fdd244a5e8aa4e537bd38aeae4b073aa90602090a1005b638dfc202b60e01b5f5260045ffd5b346104ff575f3660031901126104ff576040517f00000000000000000000000000000000000000000000000000000000000000006001600160a01b03168152602090f35b346104ff575f3660031901126104ff57600660ff7f0000000000000000000000000000000000000000000000000000000000000000160160ff8111611a295760209060ff60405191168152f35b346104ff5760603660031901126104ff57610eaf611ca9612227565b611cb161223d565b60443591611cc0833383612a5e565b612afe565b346104ff575f3660031901126104ff57600c545f19905f90815b818110611cf75750506111be6040519283928361229b565b60046020611d04836122d9565b9054604051631006976960e11b81529384929091839160031b1c6001600160a01b03165afa90811561194f575f91611da7575b50611d41816124db565b611d9f57611d68611d51826122d9565b905460039190911b1c6001600160a01b0316612696565b848110611d7b575b506001905b01611cdf565b935091506001611d8a836122d9565b828060a01b0391549060031b1c169290611d70565b600190611d75565b611dbf915060203d81116105ec576105de81836123c4565b85611d37565b346104ff575f3660031901126104ff576020600254604051908152f35b346104ff575f3660031901126104ff576020600f54604051908152f35b346104ff5760203660031901126104ff57602061080e6004356129ff565b346104ff5760403660031901126104ff57611e36612227565b602435903315611eb2576001600160a01b0316908115611e9f57335f52600160205260405f20825f526020528060405f20556040519081527f8c5be1e5ebec7d5bd14f71427d1e84f3dd0314c0f7b2291e5b200ac8c7c3b92560203392a3602060405160018152f35b634a1406b160e11b5f525f60045260245ffd5b63e602df0560e01b5f525f60045260245ffd5b346104ff575f3660031901126104ff576040515f6003548060011c90600181168015611faf575b602083108114611f9b57828552908115611f775750600114611f19575b6111be836111b2818503826123c4565b60035f9081527fc2575a0e9e593c00f959f8c92f12db2869c3395a3b0502d05e2516446f71f85b939250905b808210611f5d575090915081016020016111b2611f09565b919260018160209254838588010152019101909291611f45565b60ff191660208086019190915291151560051b840190910191506111b29050611f09565b634e487b7160e01b5f52602260045260245ffd5b91607f1691611eec565b346104ff575f3660031901126104ff57602061080e612401565b346104ff5760203660031901126104ff57611fec612227565b611ff46127d8565b6001600160a01b0381165f818152600d602052604090205490919060ff1615611a4c57604051631b83249960e01b815290602082600481865afa91821561194f575f926121f3575b5081156121e4576040516370a0823160e01b8152306004820152917f00000000000000000000000000000000000000000000000000000000000000006001600160a01b031690602084602481855afa93841561194f575f946121af575b5060206120bb916040518093819263b4845fff60e01b8352306004840161229b565b03815f895af1801561194f5761217e575b506020602491604051928380926370a0823160e01b82523060048301525afa90811561194f575f91612148575b509061213161212b7f9d21805d66c5bf8e61bbdfb3b51b524a6280a7e6d5744a4c13fc41566902818d946020946123e7565b916127f8565b61213a8161286c565b604051908152a26001600655005b9190506020823d602011612176575b81612164602093836123c4565b810103126104ff5790516121316120f9565b3d9150612157565b6020813d6020116121a7575b81612197602093836123c4565b810103126104ff575060206120cc565b3d915061218a565b9093506020813d6020116121dc575b816121cb602093836123c4565b810103126104ff5751926020612099565b3d91506121be565b631f94998d60e11b5f5260045ffd5b9091506020813d60201161221f575b8161220f602093836123c4565b810103126104ff5751908361203c565b3d9150612202565b600435906001600160a01b03821682036104ff57565b602435906001600160a01b03821682036104ff57565b602060409281835280519182918282860152018484015e5f828201840152601f01601f1916010190565b346104ff5760203660031901126104ff57602061080e6004356129d6565b6001600160a01b039091168152602081019190915260400190565b346104ff5760203660031901126104ff57602061080e6122d4612227565b6124f9565b600c548110156122f157600c5f5260205f2001905f90565b634e487b7160e01b5f52603260045260245ffd5b60609060031901126104ff57600435906024356001600160a01b03811681036104ff57906044356001600160a01b03811681036104ff5790565b346104ff5760203660031901126104ff57602061080e600435612a2f565b6007548110156122f15760075f5260205f209060021b01905f90565b346104ff575f3660031901126104ff5760206040516107d08152f35b60a081019081106001600160401b038211176123b057604052565b634e487b7160e01b5f52604160045260245ffd5b601f909101601f19168101906001600160401b038211908210176123b057604052565b91908203918211611a2957565b91908201809211611a2957565b6040516370a0823160e01b81523060048201526020816024817f00000000000000000000000000000000000000000000000000000000000000006001600160a01b03165afa90811561194f575f91612491575b50612464600954600854906123f4565b9081811115612486576124839161247a916123e7565b601054906123f4565b90565b50506124835f61247a565b90506020813d6020116124bb575b816124ac602093836123c4565b810103126104ff57515f612454565b3d915061249f565b908160209103126104ff575160048110156104ff5790565b600411156124e557565b634e487b7160e01b5f52602160045260245ffd5b6005549060ff8260a01c1661253d5760ff60135416159182612525575b5050612521575f1990565b5f90565b6001600160a01b039182169116141590505f80612516565b50505f90565b811561254d570490565b634e487b7160e01b5f52601260045260245ffd5b6040516370a0823160e01b81523060048201526020816024817f00000000000000000000000000000000000000000000000000000000000000006001600160a01b03165afa90811561194f575f916125ff575b50601054600954811580156125d8575b5090508082111561253d57612483916123e7565b6107d083029283046107d0141715611a29576127106125f89204906123f4565b805f6125c4565b90506020813d602011612629575b8161261a602093836123c4565b810103126104ff57515f6125b4565b3d915061260d565b600c54600160401b8110156123b05760018101600c55600c548110156122f157600c5f527fdf6966c971051c3d54ec59162606531493a51404a002842f56009d7e5cf4a8c70180546001600160a01b0319166001600160a01b03909216919091179055565b604051636774958160e01b81526001600160a01b039190911690602081600481855afa90811561194f575f9161274c575b5080156127455760206004926040519384809263258d975160e21b82525afa91821561194f575f92612711575b50606482029180830460641490151715611a295761248391612543565b9091506020813d60201161273d575b8161272d602093836123c4565b810103126104ff5751905f6126f4565b3d9150612720565b50505f1990565b90506020813d602011612776575b81612767602093836123c4565b810103126104ff57515f6126c7565b3d915061275a565b5f198114611a295760010190565b60018060a01b03165f525f6020526127a760405f20546129d6565b6127af612561565b808210156127bb575090565b905090565b908160209103126104ff575180151581036104ff5790565b6002600654146127e9576002600655565b633ee5aeb560e01b5f5260045ffd5b7f51afde6e6cfd3cb25cf90bf85e95281b8b8493b0d47ef57c10b232083014d7de604060018060a01b03831692835f52601160205261283a825f205491612c77565b845f52601160205280835f205561285c81612857846010546123e7565b6123f4565b60105582519182526020820152a2565b80156129a357600a54905b60075482108061299a575b15612996576128908261235d565b506002810190815460ff8116908115612988575b50801561297c575b6129525760010180549092909182821061294b57805460ff191660011790556009546128f6926128db916123f4565b6009556128eb83546008546123e7565b6008558254906123e7565b916012548015801561292d575b5050805f5160206131965f395f51905f5260206129279454604051908152a261277e565b90612877565b611a29575f1901601255805f5160206131965f395f51905f52612903565b5050505050565b50509061292790600a5480821461296a575b5061277e565b6129739061277e565b600a555f612964565b506001810154156128ac565b60ff915060081c165f6128a4565b5050565b50801515612882565b50565b6129ae612401565b60018101809111611a2957612483916001916129d0600254620f4240906123f4565b91612f12565b6129de612401565b60018101809111611a2957612483915f916129d0600254620f4240906123f4565b612a0f600254620f4240906123f4565b90612a18612401565b60018101809111611a295761248392600192612f12565b612a3f600254620f4240906123f4565b90612a48612401565b60018101809111611a2957612483925f92612f12565b6001600160a01b039081165f8181526001602081815260408084209587168452949052929020549392918401612a95575b50505050565b828410612adb578015611eb2576001600160a01b03821615611e9f575f52600160205260405f209060018060a01b03165f5260205260405f20910390555f808080612a8f565b508290637dc7a0d960e11b5f5260018060a01b031660045260245260445260645ffd5b6001600160a01b0316908115612b95576001600160a01b0316918215612b8257815f525f60205260405f2054818110612b6957815f5160206131f65f395f51905f5292602092855f525f84520360405f2055845f525f825260405f20818154019055604051908152a3565b8263391434e360e21b5f5260045260245260445260645ffd5b63ec442f0560e01b5f525f60045260245ffd5b634b637e8f60e11b5f525f60045260245ffd5b6005546001600160a01b03163303612bbc57565b63118cdaa760e01b5f523360045260245ffd5b611992612c049392612bf660405194859263a9059cbb60e01b60208501526024840161229b565b03601f1981018452836123c4565b565b9091906001600160a01b03168015612b9557805f525f60205260405f2054838110612c5d576020845f94955f5160206131f65f395f51905f52938587528684520360408620558060025403600255604051908152a3565b915063391434e360e21b5f5260045260245260445260645ffd5b6001600160a01b03165f818152600e602052604090205415612f0d57604051631006976960e11b8152602081600481855afa90811561194f575f91612eee575b50612cc1816124db565b8015612e7a57600190612cd3816124db565b1480612e2f575b612ce357505f90565b604051631a6a495560e11b815290602082600481845afa91821561194f575f92612dfb575b5060405191639b51fb0d60e01b83526004830152608082602481845afa801561194f575f5f91612dc0575b6004935081811115612db557602091612d4b916123e7565b915b60405163258d975160e21b815293849182905afa91821561194f575f92612d81575b508082111561253d57612483916123e7565b9091506020813d602011612dad575b81612d9d602093836123c4565b810103126104ff5751905f612d6f565b3d9150612d90565b505060205f91612d4d565b50506080823d608011612df3575b81612ddb608093836123c4565b810103126104ff578160206004935191015190612d33565b3d9150612dce565b9091506020813d602011612e27575b81612e17602093836123c4565b810103126104ff5751905f612d08565b3d9150612e0a565b506040516377b8c9a560e01b8152602081600481855afa90811561194f575f91612e5b575b5015612cda565b612e74915060203d6020116105a35761059581836123c4565b5f612e54565b5060405163258d975160e21b815290602082600481845afa91821561194f575f92612eba575b505f52600e60205260405f20548082105f146127bb575090565b9091506020813d602011612ee6575b81612ed6602093836123c4565b810103126104ff5751905f612ea0565b3d9150612ec9565b612f07915060203d6020116105ec576105de81836123c4565b5f612cb7565b505f90565b9190600180612f22848487613083565b95612f2c816124db565b16149283612f4d575b505050612f3f5790565b60018101809111611a295790565b90918093501561254d570915155f8080612f35565b5f5160206131f65f395f51905f5260205f92612f80856002546123f4565b6002556001600160a01b03169384158414612fa75780600254036002555b604051908152a3565b84845283825260408420818154019055612f9e565b3d15612ff5573d906001600160401b0382116123b05760405191612fea601f8201601f1916602001846123c4565b82523d5f602084013e565b606090565b5f806130229260018060a01b03169360208151910182865af161301b612fbc565b9083613117565b805190811515918261304a575b50506130385750565b635274afe760e01b5f5260045260245ffd5b61305d92506020809183010191016127c0565b155f8061302f565b60ff60055460a01c1661307457565b63d93c066560e01b5f5260045ffd5b9091828202915f198482099383808610950394808603951461310a57848311156130fb57829109815f0382168092046002816003021880820260020302808202600203028082026002030280820260020302808202600203028091026002030293600183805f03040190848311900302920304170290565b63227bc15360e01b5f5260045ffd5b5050906124839250612543565b9061313b575080511561312c57805190602001fd5b630a12f52160e11b5f5260045ffd5b8151158061316c575b61314c575090565b639996b31560e01b5f9081526001600160a01b0391909116600452602490fd5b50803b1561314456fe4d81bbe4082f7e517d393affbb296d4d970e377fd351719a011a8d09e7ca247423c7543e82c59986dd55b7bcde4617f3fe6b97f790fe6a3f7344d97fe80ad518fbde797d201c681b91056529119e0b02407c7bb96a4a2c75c01fc9667232c8db8be0079c531659141344cd1fd0a4f28419497f9722a3daafe3b4186f6b6457e0ddf252ad1be2c89b69c2b068fc378daa952ba7f163c4a11628f55a4df523b3efd2392e8674082692962920b6bc022067ae83f52fc1de409f5c74de7aa893bd02dcbc1c05240f31ff3ad067ef1ee35ce4997762752e3a095284754544f4c709d7a164736f6c634300081c000a","linkReferences":{}},"methodIdentifiers":{"BPS_DENOMINATOR()":"e1a45218","HEALTH_INJECT_THRESHOLD()":"d646d450","HEALTH_WITHDRAW_THRESHOLD()":"6d5cf122","LIQUID_BUFFER_BPS()":"e20abac2","MAX_MARKET_BPS()":"ee21dd37","MIN_WITHDRAWAL_REQUEST()":"ee25b320","allowance(address,address)":"dd62ed3e","approve(address,uint256)":"095ea7b3","asset()":"38d52e0f","balanceOf(address)":"70a08231","cachedMarketValue(address)":"c03f98f2","cachedTotalMarketValue()":"5d449a9d","claimWithdrawal(uint256)":"f8444436","convertToAssets(uint256)":"07a2d13a","convertToShares(uint256)":"c6e6f592","decimals()":"313ce567","deployTo(address,uint256)":"64996c9b","deployableCapital()":"7d3e1df0","deployedTo(address)":"b77d39df","deposit(uint256,address)":"6e553f65","depositsEnabled()":"5392fd1c","factory()":"c45a0155","fundNewMarket(address,uint256)":"8726646d","getWithdrawalRequest(uint256)":"ae485651","harvestResolved(address)":"fe48e10c","harvestSurplus(address)":"0117eb2b","isRegistered(address)":"c3c5a547","liquidAvailable()":"e70cc5df","lowestHealthMarket()":"19dc3ac9","marketCount()":"ec979082","marketHealthRatio(address)":"93bd61ff","markets(uint256)":"b1283e77","maxDeposit(address)":"402d267d","maxMint(address)":"c63d75b6","maxRedeem(address)":"d905777e","maxWithdraw(address)":"ce96cb77","mint(uint256,address)":"94bf804d","name()":"06fdde03","owner()":"8da5cb5b","pause()":"8456cb59","paused()":"5c975abb","pendingCount()":"ea70b4af","pendingWithdrawalsCount()":"d93af1d2","previewDeposit(uint256)":"ef8b30f7","previewMint(uint256)":"b3d7f6b9","previewRedeem(uint256)":"4cdad506","previewWithdraw(uint256)":"0a28a477","queueHead()":"96523644","redeem(uint256,address,address)":"ba087652","registerMarket(address)":"a79b9ec9","renounceOwnership()":"715018a6","requestWithdrawal(uint256)":"9ee679e8","reservedForWithdrawals()":"6495e49e","setDepositsEnabled(bool)":"9f04586c","setFactory(address)":"5bb47808","symbol()":"95d89b41","syncMarketValue(address)":"47738840","totalAssets()":"01e1d114","totalAssetsOwed()":"bcbba0c9","totalDeployed()":"0cfb14b0","totalHarvestableSurplus()":"d94ac1b1","totalSupply()":"18160ddd","transfer(address,uint256)":"a9059cbb","transferFrom(address,address,uint256)":"23b872dd","transferOwnership(address)":"f2fde38b","unpause()":"3f4ba83a","withdraw(uint256,address,address)":"b460af94","withdrawalQueue(uint256)":"c822adda"},"id":88}